{
  "contractName": "CancellationValidator",
  "abi": [
    {
      "constant": true,
      "inputs": [],
      "name": "waitingPeriod",
      "outputs": [
        {
          "name": "",
          "type": "uint256"
        }
      ],
      "payable": false,
      "stateMutability": "view",
      "type": "function"
    },
    {
      "constant": true,
      "inputs": [
        {
          "name": "",
          "type": "address"
        }
      ],
      "name": "cancellationRequest",
      "outputs": [
        {
          "name": "",
          "type": "uint256"
        }
      ],
      "payable": false,
      "stateMutability": "view",
      "type": "function"
    },
    {
      "inputs": [
        {
          "name": "_waitingPeriod",
          "type": "uint256"
        }
      ],
      "payable": false,
      "stateMutability": "nonpayable",
      "type": "constructor"
    },
    {
      "anonymous": false,
      "inputs": [
        {
          "indexed": true,
          "name": "liability",
          "type": "address"
        }
      ],
      "name": "CancellationRequest",
      "type": "event"
    },
    {
      "constant": false,
      "inputs": [
        {
          "name": "_liability",
          "type": "address"
        }
      ],
      "name": "cancel",
      "outputs": [],
      "payable": false,
      "stateMutability": "nonpayable",
      "type": "function"
    },
    {
      "constant": false,
      "inputs": [
        {
          "name": "_validator",
          "type": "address"
        }
      ],
      "name": "isValidator",
      "outputs": [
        {
          "name": "",
          "type": "bool"
        }
      ],
      "payable": false,
      "stateMutability": "nonpayable",
      "type": "function"
    }
  ],
  "bytecode": "0x608060405234801561001057600080fd5b506040516020806103058339810180604052602081101561003057600080fd5b50516001556102c1806100446000396000f3fe608060405234801561001057600080fd5b506004361061004c5760003560e01c80633a2ef9df1461005157806347484ac31461006b5780634c33fe9414610091578063facd743b146100b9575b600080fd5b6100596100f3565b60408051918252519081900360200190f35b6100596004803603602081101561008157600080fd5b50356001600160a01b03166100f9565b6100b7600480360360208110156100a757600080fd5b50356001600160a01b031661010b565b005b6100df600480360360208110156100cf57600080fd5b50356001600160a01b03166101d1565b604080519115158252519081900360200190f35b60015481565b60006020819052908152604090205481565b336001600160a01b0316816001600160a01b031663474ce8726040518163ffffffff1660e01b815260040160206040518083038186803b15801561014e57600080fd5b505afa158015610162573d6000803e3d6000fd5b505050506040513d602081101561017857600080fd5b50516001600160a01b03161461018d57600080fd5b6001600160a01b038116600081815260208190526040808220439055517fc6246cf1cf6f32378d2cb6c8d92a01a199beeb40cc3b2bf8df418ac0fbe47ef99190a250565b336000908152602081905260408120548181158015906101f45750600154824303115b90506000339050806001600160a01b031663474ce8726040518163ffffffff1660e01b815260040160206040518083038186803b15801561023457600080fd5b505afa158015610248573d6000803e3d6000fd5b505050506040513d602081101561025e57600080fd5b50516001600160a01b0386811691161480156102775750815b156102885760019350505050610290565b600093505050505b91905056fea165627a7a72305820b0c7f6717527d77fec3da6e311d2deb31f7ad00103a2e43eb7f046a5720a443c0029",
  "source": "pragma solidity ^0.5.0;\n\nimport '../interface/IValidator.sol';\nimport '../interface/ILiability.sol';\n\n/**\n * @dev Autonomous validator that helps cancel liabilities when promisor was gone.\n */\ncontract CancellationValidator is IValidator {\n    event CancellationRequest(address indexed liability);\n\n    mapping(address => uint256) public cancellationRequest;\n    uint256 public waitingPeriod;\n\n    /**\n     * @param _waitingPeriod Waiting period in blocks\n     */\n    constructor(uint256 _waitingPeriod) public {\n        waitingPeriod = _waitingPeriod;\n    }\n\n    /**\n     * @dev Request to cancel liability\n     * @param _liability Contract address\n     * @notice For promisee only\n     */\n    function cancel(address _liability) external {\n        require(ILiability(_liability).promisee() == msg.sender);\n        cancellationRequest[_liability] = block.number;\n        emit CancellationRequest(_liability);\n    }\n\n    function isValidator(address _validator) external returns (bool) {\n        uint256 requestStartBlock = cancellationRequest[msg.sender];\n        bool waitingDone = requestStartBlock > 0\n                        && block.number - requestStartBlock > waitingPeriod;\n\n        ILiability liability = ILiability(msg.sender);\n        if (_validator == liability.promisee() && waitingDone) {\n            return true;\n        } else {\n            return false;\n        }\n    }\n}\n",
  "sourcePath": "/home/akru/devel/robonomics_contracts/contracts/robonomics/validator/CancellationValidator.sol",
  "compiler": {
    "name": "solc",
    "version": "0.5.7+commit.6da8b019.Emscripten.clang"
  },
  "schemaVersion": "3.0.2",
  "updatedAt": "2019-04-17T08:53:51.196Z",
  "devdoc": {
    "details": "Autonomous validator that helps cancel liabilities when promisor was gone.",
    "methods": {
      "cancel(address)": {
        "details": "Request to cancel liability",
        "params": {
          "_liability": "Contract address"
        }
      },
      "constructor": {
        "params": {
          "_waitingPeriod": "Waiting period in blocks"
        }
      }
    }
  },
  "userdoc": {
    "methods": {
      "cancel(address)": {
        "notice": "For promisee only"
      }
    }
  }
}