{
  "contractName": "DutchAuction",
  "abi": [
    {
      "constant": true,
      "inputs": [],
      "name": "endTime",
      "outputs": [
        {
          "name": "",
          "type": "uint256"
        }
      ],
      "payable": false,
      "stateMutability": "view",
      "type": "function"
    },
    {
      "constant": true,
      "inputs": [],
      "name": "startBlock",
      "outputs": [
        {
          "name": "",
          "type": "uint256"
        }
      ],
      "payable": false,
      "stateMutability": "view",
      "type": "function"
    },
    {
      "constant": true,
      "inputs": [],
      "name": "wallet",
      "outputs": [
        {
          "name": "",
          "type": "address"
        }
      ],
      "payable": false,
      "stateMutability": "view",
      "type": "function"
    },
    {
      "constant": true,
      "inputs": [],
      "name": "ambix",
      "outputs": [
        {
          "name": "",
          "type": "address"
        }
      ],
      "payable": false,
      "stateMutability": "view",
      "type": "function"
    },
    {
      "constant": true,
      "inputs": [
        {
          "name": "",
          "type": "address"
        }
      ],
      "name": "bids",
      "outputs": [
        {
          "name": "",
          "type": "uint256"
        }
      ],
      "payable": false,
      "stateMutability": "view",
      "type": "function"
    },
    {
      "constant": true,
      "inputs": [],
      "name": "WAITING_PERIOD",
      "outputs": [
        {
          "name": "",
          "type": "uint256"
        }
      ],
      "payable": false,
      "stateMutability": "view",
      "type": "function"
    },
    {
      "constant": true,
      "inputs": [],
      "name": "ceiling",
      "outputs": [
        {
          "name": "",
          "type": "uint256"
        }
      ],
      "payable": false,
      "stateMutability": "view",
      "type": "function"
    },
    {
      "constant": true,
      "inputs": [
        {
          "name": "account",
          "type": "address"
        }
      ],
      "name": "isSigner",
      "outputs": [
        {
          "name": "",
          "type": "bool"
        }
      ],
      "payable": false,
      "stateMutability": "view",
      "type": "function"
    },
    {
      "constant": true,
      "inputs": [],
      "name": "owner",
      "outputs": [
        {
          "name": "",
          "type": "address"
        }
      ],
      "payable": false,
      "stateMutability": "view",
      "type": "function"
    },
    {
      "constant": true,
      "inputs": [],
      "name": "totalReceived",
      "outputs": [
        {
          "name": "",
          "type": "uint256"
        }
      ],
      "payable": false,
      "stateMutability": "view",
      "type": "function"
    },
    {
      "constant": true,
      "inputs": [],
      "name": "finalPrice",
      "outputs": [
        {
          "name": "",
          "type": "uint256"
        }
      ],
      "payable": false,
      "stateMutability": "view",
      "type": "function"
    },
    {
      "constant": true,
      "inputs": [],
      "name": "stage",
      "outputs": [
        {
          "name": "",
          "type": "uint8"
        }
      ],
      "payable": false,
      "stateMutability": "view",
      "type": "function"
    },
    {
      "constant": true,
      "inputs": [],
      "name": "maxTokenSold",
      "outputs": [
        {
          "name": "",
          "type": "uint256"
        }
      ],
      "payable": false,
      "stateMutability": "view",
      "type": "function"
    },
    {
      "constant": true,
      "inputs": [],
      "name": "priceFactor",
      "outputs": [
        {
          "name": "",
          "type": "uint256"
        }
      ],
      "payable": false,
      "stateMutability": "view",
      "type": "function"
    },
    {
      "constant": false,
      "inputs": [],
      "name": "renounceSigner",
      "outputs": [],
      "payable": false,
      "stateMutability": "nonpayable",
      "type": "function"
    },
    {
      "constant": false,
      "inputs": [
        {
          "name": "account",
          "type": "address"
        }
      ],
      "name": "addSigner",
      "outputs": [],
      "payable": false,
      "stateMutability": "nonpayable",
      "type": "function"
    },
    {
      "constant": true,
      "inputs": [],
      "name": "token",
      "outputs": [
        {
          "name": "",
          "type": "address"
        }
      ],
      "payable": false,
      "stateMutability": "view",
      "type": "function"
    },
    {
      "inputs": [
        {
          "name": "_wallet",
          "type": "address"
        },
        {
          "name": "_maxTokenSold",
          "type": "uint256"
        },
        {
          "name": "_ceiling",
          "type": "uint256"
        },
        {
          "name": "_priceFactor",
          "type": "uint256"
        }
      ],
      "payable": false,
      "stateMutability": "nonpayable",
      "type": "constructor"
    },
    {
      "anonymous": false,
      "inputs": [
        {
          "indexed": true,
          "name": "sender",
          "type": "address"
        },
        {
          "indexed": false,
          "name": "amount",
          "type": "uint256"
        }
      ],
      "name": "BidSubmission",
      "type": "event"
    },
    {
      "anonymous": false,
      "inputs": [
        {
          "indexed": true,
          "name": "account",
          "type": "address"
        }
      ],
      "name": "SignerAdded",
      "type": "event"
    },
    {
      "anonymous": false,
      "inputs": [
        {
          "indexed": true,
          "name": "account",
          "type": "address"
        }
      ],
      "name": "SignerRemoved",
      "type": "event"
    },
    {
      "constant": false,
      "inputs": [
        {
          "name": "_token",
          "type": "address"
        },
        {
          "name": "_ambix",
          "type": "address"
        }
      ],
      "name": "setup",
      "outputs": [],
      "payable": false,
      "stateMutability": "nonpayable",
      "type": "function"
    },
    {
      "constant": false,
      "inputs": [],
      "name": "startAuction",
      "outputs": [],
      "payable": false,
      "stateMutability": "nonpayable",
      "type": "function"
    },
    {
      "constant": false,
      "inputs": [],
      "name": "calcCurrentTokenPrice",
      "outputs": [
        {
          "name": "",
          "type": "uint256"
        }
      ],
      "payable": false,
      "stateMutability": "nonpayable",
      "type": "function"
    },
    {
      "constant": false,
      "inputs": [],
      "name": "updateStage",
      "outputs": [
        {
          "name": "",
          "type": "uint8"
        }
      ],
      "payable": false,
      "stateMutability": "nonpayable",
      "type": "function"
    },
    {
      "constant": false,
      "inputs": [
        {
          "name": "signature",
          "type": "bytes"
        }
      ],
      "name": "bid",
      "outputs": [
        {
          "name": "amount",
          "type": "uint256"
        }
      ],
      "payable": true,
      "stateMutability": "payable",
      "type": "function"
    },
    {
      "constant": false,
      "inputs": [],
      "name": "claimTokens",
      "outputs": [],
      "payable": false,
      "stateMutability": "nonpayable",
      "type": "function"
    },
    {
      "constant": true,
      "inputs": [],
      "name": "calcStopPrice",
      "outputs": [
        {
          "name": "",
          "type": "uint256"
        }
      ],
      "payable": false,
      "stateMutability": "view",
      "type": "function"
    },
    {
      "constant": true,
      "inputs": [],
      "name": "calcTokenPrice",
      "outputs": [
        {
          "name": "",
          "type": "uint256"
        }
      ],
      "payable": false,
      "stateMutability": "view",
      "type": "function"
    }
  ],
  "bytecode": "0x60806040523480156200001157600080fd5b50604051608080620012cc833981018060405260808110156200003357600080fd5b50805160208201516040830151606090930151919290916200005e33640100000000620000db810204565b600160a060020a03841615801590620000775750600082115b8015620000845750600081115b15156200009057600080fd5b6004805433600160a060020a03199182161790915560038054909116600160a060020a039590951694909417909355600591909155600655600755600d805460ff19169055620001c0565b620000f660008264010000000062000f5b6200012d82021704565b604051600160a060020a038216907f47d1c22a25bb3a5d4e481b9b1e6944c2eade3181a0a20b495ed61d35b5323f2490600090a250565b600160a060020a03811615156200014357600080fd5b62000158828264010000000062000188810204565b156200016357600080fd5b600160a060020a0316600090815260209190915260409020805460ff19166001179055565b6000600160a060020a0382161515620001a057600080fd5b50600160a060020a03166000908152602091909152604090205460ff1690565b6110fc80620001d06000396000f3fe608060405260043610610183576000357c0100000000000000000000000000000000000000000000000000000000900480637df73e27116100ee578063d9f8a4e2116100a7578063dfb2866d11610081578063dfb2866d14610466578063e5c8b03d1461047b578063eb12d61e14610490578063fc0c546a146104c357610183565b8063d9f8a4e214610427578063da8e0b781461043c578063dd9dd6881461045157610183565b80637df73e27146103535780638da5cb5b1461039a578063a3c2c462146103af578063a6b513ee146103c4578063c040e6b8146103d9578063c062f5781461041257610183565b8063521eb27311610140578063521eb2731461029b5780635a5132be146102cc57806362ea82db146102e15780636b64c769146103145780636f85c7e414610329578063753ed1bd1461033e57610183565b80632d34ba79146101885780633197cbb6146101c557806331e37530146101ec57806339f64b521461025c57806348c54b9d1461027157806348cd4cb114610286575b600080fd5b34801561019457600080fd5b506101c3600480360360408110156101ab57600080fd5b50600160a060020a03813581169160200135166104d8565b005b3480156101d157600080fd5b506101da61061a565b60408051918252519081900360200190f35b6101da6004803603602081101561020257600080fd5b81019060208101813564010000000081111561021d57600080fd5b82018360208201111561022f57600080fd5b8035906020019184600183028401116401000000008311171561025157600080fd5b509092509050610620565b34801561026857600080fd5b506101da61085d565b34801561027d57600080fd5b506101c3610888565b34801561029257600080fd5b506101da61098f565b3480156102a757600080fd5b506102b0610995565b60408051600160a060020a039092168252519081900360200190f35b3480156102d857600080fd5b506102b06109a4565b3480156102ed57600080fd5b506101da6004803603602081101561030457600080fd5b5035600160a060020a03166109b3565b34801561032057600080fd5b506101c36109c5565b34801561033557600080fd5b506101da610a0e565b34801561034a57600080fd5b506101da610a13565b34801561035f57600080fd5b506103866004803603602081101561037657600080fd5b5035600160a060020a0316610a19565b604080519115158252519081900360200190f35b3480156103a657600080fd5b506102b0610a31565b3480156103bb57600080fd5b506101da610a40565b3480156103d057600080fd5b506101da610a46565b3480156103e557600080fd5b506103ee610a4c565b604051808260048111156103fe57fe5b60ff16815260200191505060405180910390f35b34801561041e57600080fd5b506103ee610a55565b34801561043357600080fd5b506101da610ad0565b34801561044857600080fd5b506101da610b8b565b34801561045d57600080fd5b506101da610b91565b34801561047257600080fd5b506101da610ba8565b34801561048757600080fd5b506101c3610bae565b34801561049c57600080fd5b506101c3600480360360208110156104b357600080fd5b5035600160a060020a0316610bb9565b3480156104cf57600080fd5b506102b0610bd9565b600454600160a060020a031633146104ef57600080fd5b600080600d5460ff16600481111561050357fe5b1461050d57600080fd5b600160a060020a0383161580159061052d5750600160a060020a03821615155b151561053857600080fd5b60018054600160a060020a0380861673ffffffffffffffffffffffffffffffffffffffff19928316179283905560028054868316931692909217909155600554604080517f70a0823100000000000000000000000000000000000000000000000000000000815230600482015290519193909216916370a08231916024808301926020929190829003018186803b1580156105d257600080fd5b505afa1580156105e6573d6000803e3d6000fd5b505050506040513d60208110156105fc57600080fd5b50511461060857600080fd5b5050600d805460ff1916600117905550565b60095481565b60006004361480610631575060a436145b151561063c57600080fd5b6002600d5460ff16600481111561064f57fe5b14801561066a575061065f610b91565b61066761085d565b11155b1561067757610677610be8565b6003600d5460ff16600481111561068a57fe5b148015610698575060095442115b156106ab57600d805460ff191660041790555b600280600d5460ff1660048111156106bf57fe5b146106c957600080fd5b83838080601f01602080910402602001604051908101604052809392919081815260200183838082843760009201919091525061070c9250339150839050610cf8565b151561071757600080fd5b6000341161072457600080fd5b600a543493503390600090633b9aca0061073c61085d565b6005540281151561074957fe5b040390506000600a5460065403905081811015610764578091505b818611156107ac5781955082600160a060020a03166108fc8734039081150290604051600060405180830381858888f193505050501580156107aa573d6000803e3d6000fd5b505b600354604051600160a060020a039091169087156108fc029088906000818181858888f193505050501580156107e6573d6000803e3d6000fd5b50600160a060020a0383166000818152600c602090815260409182902080548a019055600a80548a019055815189815291517f9c89e828e6cee6374b68147c9e753e41746aad98ba255a527a4fc0ac1868bff99281900390910190a28186141561085257610852610be8565b505050505092915050565b60006008544303611d4c01600754670de0b6b3a76400000281151561087e57fe5b0460010190505b90565b6004361480610897575060a436145b15156108a257600080fd5b6002600d5460ff1660048111156108b557fe5b1480156108d057506108c5610b91565b6108cd61085d565b11155b156108dd576108dd610be8565b6003600d5460ff1660048111156108f057fe5b1480156108fe575060095442115b1561091157600d805460ff191660041790555b600480600d5460ff16600481111561092557fe5b1461092f57600080fd5b600b54336000818152600c602052604081205491929091633b9aca000281151561095557fe5b600160a060020a038085166000908152600c602052604081205560015492909104925061098a9116838363ffffffff610d5316565b505050565b60085481565b600354600160a060020a031681565b600254600160a060020a031681565b600c6020526000908152604090205481565b600354600160a060020a031633146109dc57600080fd5b600180600d5460ff1660048111156109f057fe5b146109fa57600080fd5b50600d805460ff1916600217905543600855565b600081565b60065481565b6000610a2b818363ffffffff610e0616565b92915050565b600454600160a060020a031681565b600a5481565b600b5481565b600d5460ff1681565b60006002600d5460ff166004811115610a6a57fe5b148015610a855750610a7a610b91565b610a8261085d565b11155b15610a9257610a92610be8565b6003600d5460ff166004811115610aa557fe5b148015610ab3575060095442115b15610ac657600d805460ff191660041790555b50600d5460ff1690565b60006002600d5460ff166004811115610ae557fe5b148015610b005750610af5610b91565b610afd61085d565b11155b15610b0d57610b0d610be8565b6003600d5460ff166004811115610b2057fe5b148015610b2e575060095442115b15610b4157600d805460ff191660041790555b6003600d5460ff166004811115610b5457fe5b1480610b7057506004600d5460ff166004811115610b6e57fe5b145b15610b7e5750600b54610885565b610b8661085d565b905090565b60055481565b6000600554600a54633b9aca000281151561087e57fe5b60075481565b610bb733610e3d565b565b610bc233610a19565b1515610bcd57600080fd5b610bd681610e85565b50565b600154600160a060020a031681565b600d805460ff19166003179055600654600a5414610c0d57610c08610b91565b610c15565b610c1561085d565b600b819055600a5460009190633b9aca0002811515610c3057fe5b049050600654600a541415610c6e57600254600554600154610c6992600160a060020a039182169291169084900363ffffffff610d5316565b610cf1565b600154600554604080517f42966c6800000000000000000000000000000000000000000000000000000000815291849003600483015251600160a060020a03909216916342966c689160248082019260009290919082900301818387803b158015610cd857600080fd5b505af1158015610cec573d6000803e3d6000fd5b505050505b5042600955565b604080516c01000000000000000000000000308102602080840191909152600160a060020a03861690910260348301528251602881840301815260489092019092528051910120600090610d4c9083610ecd565b9392505050565b82600160a060020a031663a9059cbb83836040518363ffffffff167c01000000000000000000000000000000000000000000000000000000000281526004018083600160a060020a0316600160a060020a0316815260200182815260200192505050602060405180830381600087803b158015610dcf57600080fd5b505af1158015610de3573d6000803e3d6000fd5b505050506040513d6020811015610df957600080fd5b5051151561098a57600080fd5b6000600160a060020a0382161515610e1d57600080fd5b50600160a060020a03166000908152602091909152604090205460ff1690565b610e4e60008263ffffffff610f0f16565b604051600160a060020a038216907f3525e22824a8a7df2c9a6029941c824cf95b6447f1e13d5128fd3826d35afe8b90600090a250565b610e9660008263ffffffff610f5b16565b604051600160a060020a038216907f47d1c22a25bb3a5d4e481b9b1e6944c2eade3181a0a20b495ed61d35b5323f2490600090a250565b600080610ee983610edd86610fa9565b9063ffffffff610ffa16565b9050600160a060020a03811615801590610f075750610f0781610a19565b949350505050565b600160a060020a0381161515610f2457600080fd5b610f2e8282610e06565b1515610f3957600080fd5b600160a060020a0316600090815260209190915260409020805460ff19169055565b600160a060020a0381161515610f7057600080fd5b610f7a8282610e06565b15610f8457600080fd5b600160a060020a0316600090815260209190915260409020805460ff19166001179055565b604080517f19457468657265756d205369676e6564204d6573736167653a0a333200000000602080830191909152603c8083019490945282518083039094018452605c909101909152815191012090565b600080600080845160411415156110175760009350505050610a2b565b50505060208201516040830151606084015160001a601b60ff8216101561103c57601b015b8060ff16601b1415801561105457508060ff16601c14155b156110655760009350505050610a2b565b6040805160008152602080820180845289905260ff8416828401526060820186905260808201859052915160019260a0808401939192601f1981019281900390910190855afa1580156110bc573d6000803e3d6000fd5b505050602060405103519350505050610a2b56fea165627a7a72305820479188ad44b828006a7be01359e0e03317deecdb10f11874c80ddb9ac2dea1930029",
  "source": "pragma solidity ^0.5.0;\n\nimport 'openzeppelin-solidity/contracts/drafts/SignatureBouncer.sol';\nimport 'openzeppelin-solidity/contracts/token/ERC20/ERC20Burnable.sol';\nimport 'openzeppelin-solidity/contracts/token/ERC20/SafeERC20.sol';\n\n\n/// @title Dutch auction contract - distribution of XRT tokens using an auction.\n/// @author Stefan George - <stefan.george@consensys.net>\n/// @author Airalab - <research@aira.life> \ncontract DutchAuction is SignatureBouncer {\n    using SafeERC20 for ERC20Burnable;\n\n    /*\n     *  Events\n     */\n    event BidSubmission(address indexed sender, uint256 amount);\n\n    /*\n     *  Constants\n     */\n    uint constant public WAITING_PERIOD = 0; // 1 days;\n\n    /*\n     *  Storage\n     */\n    ERC20Burnable public token;\n    address public ambix;\n    address payable public wallet;\n    address public owner;\n    uint public maxTokenSold;\n    uint public ceiling;\n    uint public priceFactor;\n    uint public startBlock;\n    uint public endTime;\n    uint public totalReceived;\n    uint public finalPrice;\n    mapping (address => uint) public bids;\n    Stages public stage;\n\n    /*\n     *  Enums\n     */\n    enum Stages {\n        AuctionDeployed,\n        AuctionSetUp,\n        AuctionStarted,\n        AuctionEnded,\n        TradingStarted\n    }\n\n    /*\n     *  Modifiers\n     */\n    modifier atStage(Stages _stage) {\n        // Contract on stage\n        require(stage == _stage);\n        _;\n    }\n\n    modifier isOwner() {\n        // Only owner is allowed to proceed\n        require(msg.sender == owner);\n        _;\n    }\n\n    modifier isWallet() {\n        // Only wallet is allowed to proceed\n        require(msg.sender == wallet);\n        _;\n    }\n\n    modifier isValidPayload() {\n        require(msg.data.length == 4 || msg.data.length == 164);\n        _;\n    }\n\n    modifier timedTransitions() {\n        if (stage == Stages.AuctionStarted && calcTokenPrice() <= calcStopPrice())\n            finalizeAuction();\n        if (stage == Stages.AuctionEnded && now > endTime + WAITING_PERIOD)\n            stage = Stages.TradingStarted;\n        _;\n    }\n\n    /*\n     *  Public functions\n     */\n    /// @dev Contract constructor function sets owner.\n    /// @param _wallet Multisig wallet.\n    /// @param _maxTokenSold Auction token balance.\n    /// @param _ceiling Auction ceiling.\n    /// @param _priceFactor Auction price factor.\n    constructor(address payable _wallet, uint _maxTokenSold, uint _ceiling, uint _priceFactor)\n        public\n    {\n        require(_wallet != address(0) && _ceiling > 0 && _priceFactor > 0);\n\n        owner = msg.sender;\n        wallet = _wallet;\n        maxTokenSold = _maxTokenSold;\n        ceiling = _ceiling;\n        priceFactor = _priceFactor;\n        stage = Stages.AuctionDeployed;\n    }\n\n    /// @dev Setup function sets external contracts' addresses.\n    /// @param _token Token address.\n    /// @param _ambix Distillation cube address.\n    function setup(ERC20Burnable _token, address _ambix)\n        public\n        isOwner\n        atStage(Stages.AuctionDeployed)\n    {\n        // Validate argument\n        require(_token != ERC20Burnable(0) && _ambix != address(0));\n\n        token = _token;\n        ambix = _ambix;\n\n        // Validate token balance\n        require(token.balanceOf(address(this)) == maxTokenSold);\n\n        stage = Stages.AuctionSetUp;\n    }\n\n    /// @dev Starts auction and sets startBlock.\n    function startAuction()\n        public\n        isWallet\n        atStage(Stages.AuctionSetUp)\n    {\n        stage = Stages.AuctionStarted;\n        startBlock = block.number;\n    }\n\n    /// @dev Calculates current token price.\n    /// @return Returns token price.\n    function calcCurrentTokenPrice()\n        public\n        timedTransitions\n        returns (uint)\n    {\n        if (stage == Stages.AuctionEnded || stage == Stages.TradingStarted)\n            return finalPrice;\n        return calcTokenPrice();\n    }\n\n    /// @dev Returns correct stage, even if a function with timedTransitions modifier has not yet been called yet.\n    /// @return Returns current auction stage.\n    function updateStage()\n        public\n        timedTransitions\n        returns (Stages)\n    {\n        return stage;\n    }\n\n    /// @dev Allows to send a bid to the auction.\n    /// @param signature KYC approvement\n    function bid(bytes calldata signature)\n        external\n        payable\n        isValidPayload\n        timedTransitions\n        atStage(Stages.AuctionStarted)\n        onlyValidSignature(signature)\n        returns (uint amount)\n    {\n        require(msg.value > 0);\n        amount = msg.value;\n\n        address payable receiver = msg.sender;\n\n        // Prevent that more than 90% of tokens are sold. Only relevant if cap not reached.\n        uint maxWei = maxTokenSold * calcTokenPrice() / 10**9 - totalReceived;\n        uint maxWeiBasedOnTotalReceived = ceiling - totalReceived;\n        if (maxWeiBasedOnTotalReceived < maxWei)\n            maxWei = maxWeiBasedOnTotalReceived;\n\n        // Only invest maximum possible amount.\n        if (amount > maxWei) {\n            amount = maxWei;\n            // Send change back to receiver address.\n            receiver.transfer(msg.value - amount);\n        }\n\n        // Forward funding to ether wallet\n        wallet.transfer(amount);\n\n        bids[receiver] += amount;\n        totalReceived += amount;\n        emit BidSubmission(receiver, amount);\n\n        // Finalize auction when maxWei reached\n        if (amount == maxWei)\n            finalizeAuction();\n    }\n\n    /// @dev Claims tokens for bidder after auction.\n    function claimTokens()\n        public\n        isValidPayload\n        timedTransitions\n        atStage(Stages.TradingStarted)\n    {\n        address receiver = msg.sender;\n        uint tokenCount = bids[receiver] * 10**9 / finalPrice;\n        bids[receiver] = 0;\n        token.safeTransfer(receiver, tokenCount);\n    }\n\n    /// @dev Calculates stop price.\n    /// @return Returns stop price.\n    function calcStopPrice()\n        view\n        public\n        returns (uint)\n    {\n        return totalReceived * 10**9 / maxTokenSold + 1;\n    }\n\n    /// @dev Calculates token price.\n    /// @return Returns token price.\n    function calcTokenPrice()\n        view\n        public\n        returns (uint)\n    {\n        return priceFactor * 10**18 / (block.number - startBlock + 7500) + 1;\n    }\n\n    /*\n     *  Private functions\n     */\n    function finalizeAuction()\n        private\n    {\n        stage = Stages.AuctionEnded;\n        finalPrice = totalReceived == ceiling ? calcTokenPrice() : calcStopPrice();\n        uint soldTokens = totalReceived * 10**9 / finalPrice;\n\n        if (totalReceived == ceiling) {\n            // Auction contract transfers all unsold tokens to Ambix contract\n            token.safeTransfer(ambix, maxTokenSold - soldTokens);\n        } else {\n            // Auction contract burn all unsold tokens\n            token.burn(maxTokenSold - soldTokens);\n        }\n\n        endTime = now;\n    }\n}\n",
  "sourcePath": "/home/akru/devel/robonomics_contracts/contracts/misc/DutchAuction.sol",
  "compiler": {
    "name": "solc",
    "version": "0.5.4+commit.9549d8ff.Emscripten.clang"
  },
  "schemaVersion": "3.0.2",
  "updatedAt": "2019-04-01T11:43:52.992Z",
  "devdoc": {
    "author": "Stefan George - <stefan.george@consensys.net>Airalab - <research@aira.life> ",
    "methods": {
      "bid(bytes)": {
        "details": "Allows to send a bid to the auction.",
        "params": {
          "signature": "KYC approvement"
        }
      },
      "calcCurrentTokenPrice()": {
        "details": "Calculates current token price.",
        "return": "Returns token price."
      },
      "calcStopPrice()": {
        "details": "Calculates stop price.",
        "return": "Returns stop price."
      },
      "calcTokenPrice()": {
        "details": "Calculates token price.",
        "return": "Returns token price."
      },
      "claimTokens()": {
        "details": "Claims tokens for bidder after auction."
      },
      "constructor": {
        "details": "Contract constructor function sets owner.",
        "params": {
          "_ceiling": "Auction ceiling.",
          "_maxTokenSold": "Auction token balance.",
          "_priceFactor": "Auction price factor.",
          "_wallet": "Multisig wallet."
        }
      },
      "setup(address,address)": {
        "details": "Setup function sets external contracts' addresses.",
        "params": {
          "_ambix": "Distillation cube address.",
          "_token": "Token address."
        }
      },
      "startAuction()": {
        "details": "Starts auction and sets startBlock."
      },
      "updateStage()": {
        "details": "Returns correct stage, even if a function with timedTransitions modifier has not yet been called yet.",
        "return": "Returns current auction stage."
      }
    },
    "title": "Dutch auction contract - distribution of XRT tokens using an auction."
  },
  "userdoc": {
    "methods": {}
  }
}