{
  "contractName": "DutchAuction",
  "abi": [
    {
      "constant": true,
      "inputs": [],
      "name": "endTime",
      "outputs": [
        {
          "name": "",
          "type": "uint256"
        }
      ],
      "payable": false,
      "stateMutability": "view",
      "type": "function",
      "signature": "0x3197cbb6"
    },
    {
      "constant": true,
      "inputs": [],
      "name": "startBlock",
      "outputs": [
        {
          "name": "",
          "type": "uint256"
        }
      ],
      "payable": false,
      "stateMutability": "view",
      "type": "function",
      "signature": "0x48cd4cb1"
    },
    {
      "constant": true,
      "inputs": [],
      "name": "wallet",
      "outputs": [
        {
          "name": "",
          "type": "address"
        }
      ],
      "payable": false,
      "stateMutability": "view",
      "type": "function",
      "signature": "0x521eb273"
    },
    {
      "constant": true,
      "inputs": [],
      "name": "ambix",
      "outputs": [
        {
          "name": "",
          "type": "address"
        }
      ],
      "payable": false,
      "stateMutability": "view",
      "type": "function",
      "signature": "0x5a5132be"
    },
    {
      "constant": true,
      "inputs": [
        {
          "name": "",
          "type": "address"
        }
      ],
      "name": "bids",
      "outputs": [
        {
          "name": "",
          "type": "uint256"
        }
      ],
      "payable": false,
      "stateMutability": "view",
      "type": "function",
      "signature": "0x62ea82db"
    },
    {
      "constant": true,
      "inputs": [],
      "name": "WAITING_PERIOD",
      "outputs": [
        {
          "name": "",
          "type": "uint256"
        }
      ],
      "payable": false,
      "stateMutability": "view",
      "type": "function",
      "signature": "0x6f85c7e4"
    },
    {
      "constant": false,
      "inputs": [],
      "name": "renounceOwnership",
      "outputs": [],
      "payable": false,
      "stateMutability": "nonpayable",
      "type": "function",
      "signature": "0x715018a6"
    },
    {
      "constant": true,
      "inputs": [],
      "name": "ceiling",
      "outputs": [
        {
          "name": "",
          "type": "uint256"
        }
      ],
      "payable": false,
      "stateMutability": "view",
      "type": "function",
      "signature": "0x753ed1bd"
    },
    {
      "constant": true,
      "inputs": [
        {
          "name": "account",
          "type": "address"
        }
      ],
      "name": "isSigner",
      "outputs": [
        {
          "name": "",
          "type": "bool"
        }
      ],
      "payable": false,
      "stateMutability": "view",
      "type": "function",
      "signature": "0x7df73e27"
    },
    {
      "constant": true,
      "inputs": [],
      "name": "owner",
      "outputs": [
        {
          "name": "",
          "type": "address"
        }
      ],
      "payable": false,
      "stateMutability": "view",
      "type": "function",
      "signature": "0x8da5cb5b"
    },
    {
      "constant": true,
      "inputs": [],
      "name": "isOwner",
      "outputs": [
        {
          "name": "",
          "type": "bool"
        }
      ],
      "payable": false,
      "stateMutability": "view",
      "type": "function",
      "signature": "0x8f32d59b"
    },
    {
      "constant": true,
      "inputs": [],
      "name": "totalReceived",
      "outputs": [
        {
          "name": "",
          "type": "uint256"
        }
      ],
      "payable": false,
      "stateMutability": "view",
      "type": "function",
      "signature": "0xa3c2c462"
    },
    {
      "constant": true,
      "inputs": [],
      "name": "finalPrice",
      "outputs": [
        {
          "name": "",
          "type": "uint256"
        }
      ],
      "payable": false,
      "stateMutability": "view",
      "type": "function",
      "signature": "0xa6b513ee"
    },
    {
      "constant": true,
      "inputs": [],
      "name": "stage",
      "outputs": [
        {
          "name": "",
          "type": "uint8"
        }
      ],
      "payable": false,
      "stateMutability": "view",
      "type": "function",
      "signature": "0xc040e6b8"
    },
    {
      "constant": true,
      "inputs": [],
      "name": "maxTokenSold",
      "outputs": [
        {
          "name": "",
          "type": "uint256"
        }
      ],
      "payable": false,
      "stateMutability": "view",
      "type": "function",
      "signature": "0xda8e0b78"
    },
    {
      "constant": true,
      "inputs": [],
      "name": "priceFactor",
      "outputs": [
        {
          "name": "",
          "type": "uint256"
        }
      ],
      "payable": false,
      "stateMutability": "view",
      "type": "function",
      "signature": "0xdfb2866d"
    },
    {
      "constant": false,
      "inputs": [],
      "name": "renounceSigner",
      "outputs": [],
      "payable": false,
      "stateMutability": "nonpayable",
      "type": "function",
      "signature": "0xe5c8b03d"
    },
    {
      "constant": false,
      "inputs": [
        {
          "name": "account",
          "type": "address"
        }
      ],
      "name": "addSigner",
      "outputs": [],
      "payable": false,
      "stateMutability": "nonpayable",
      "type": "function",
      "signature": "0xeb12d61e"
    },
    {
      "constant": false,
      "inputs": [
        {
          "name": "newOwner",
          "type": "address"
        }
      ],
      "name": "transferOwnership",
      "outputs": [],
      "payable": false,
      "stateMutability": "nonpayable",
      "type": "function",
      "signature": "0xf2fde38b"
    },
    {
      "constant": true,
      "inputs": [],
      "name": "token",
      "outputs": [
        {
          "name": "",
          "type": "address"
        }
      ],
      "payable": false,
      "stateMutability": "view",
      "type": "function",
      "signature": "0xfc0c546a"
    },
    {
      "inputs": [
        {
          "name": "_wallet",
          "type": "address"
        },
        {
          "name": "_maxTokenSold",
          "type": "uint256"
        },
        {
          "name": "_ceiling",
          "type": "uint256"
        },
        {
          "name": "_priceFactor",
          "type": "uint256"
        }
      ],
      "payable": false,
      "stateMutability": "nonpayable",
      "type": "constructor",
      "signature": "constructor"
    },
    {
      "anonymous": false,
      "inputs": [
        {
          "indexed": true,
          "name": "sender",
          "type": "address"
        },
        {
          "indexed": false,
          "name": "amount",
          "type": "uint256"
        }
      ],
      "name": "BidSubmission",
      "type": "event",
      "signature": "0x9c89e828e6cee6374b68147c9e753e41746aad98ba255a527a4fc0ac1868bff9"
    },
    {
      "anonymous": false,
      "inputs": [
        {
          "indexed": true,
          "name": "previousOwner",
          "type": "address"
        },
        {
          "indexed": true,
          "name": "newOwner",
          "type": "address"
        }
      ],
      "name": "OwnershipTransferred",
      "type": "event",
      "signature": "0x8be0079c531659141344cd1fd0a4f28419497f9722a3daafe3b4186f6b6457e0"
    },
    {
      "anonymous": false,
      "inputs": [
        {
          "indexed": true,
          "name": "account",
          "type": "address"
        }
      ],
      "name": "SignerAdded",
      "type": "event",
      "signature": "0x47d1c22a25bb3a5d4e481b9b1e6944c2eade3181a0a20b495ed61d35b5323f24"
    },
    {
      "anonymous": false,
      "inputs": [
        {
          "indexed": true,
          "name": "account",
          "type": "address"
        }
      ],
      "name": "SignerRemoved",
      "type": "event",
      "signature": "0x3525e22824a8a7df2c9a6029941c824cf95b6447f1e13d5128fd3826d35afe8b"
    },
    {
      "constant": false,
      "inputs": [
        {
          "name": "_token",
          "type": "address"
        },
        {
          "name": "_ambix",
          "type": "address"
        }
      ],
      "name": "setup",
      "outputs": [],
      "payable": false,
      "stateMutability": "nonpayable",
      "type": "function",
      "signature": "0x2d34ba79"
    },
    {
      "constant": false,
      "inputs": [],
      "name": "startAuction",
      "outputs": [],
      "payable": false,
      "stateMutability": "nonpayable",
      "type": "function",
      "signature": "0x6b64c769"
    },
    {
      "constant": false,
      "inputs": [],
      "name": "calcCurrentTokenPrice",
      "outputs": [
        {
          "name": "",
          "type": "uint256"
        }
      ],
      "payable": false,
      "stateMutability": "nonpayable",
      "type": "function",
      "signature": "0xd9f8a4e2"
    },
    {
      "constant": false,
      "inputs": [],
      "name": "updateStage",
      "outputs": [
        {
          "name": "",
          "type": "uint8"
        }
      ],
      "payable": false,
      "stateMutability": "nonpayable",
      "type": "function",
      "signature": "0xc062f578"
    },
    {
      "constant": false,
      "inputs": [
        {
          "name": "signature",
          "type": "bytes"
        }
      ],
      "name": "bid",
      "outputs": [
        {
          "name": "amount",
          "type": "uint256"
        }
      ],
      "payable": true,
      "stateMutability": "payable",
      "type": "function",
      "signature": "0x31e37530"
    },
    {
      "constant": false,
      "inputs": [],
      "name": "claimTokens",
      "outputs": [],
      "payable": false,
      "stateMutability": "nonpayable",
      "type": "function",
      "signature": "0x48c54b9d"
    },
    {
      "constant": true,
      "inputs": [],
      "name": "calcStopPrice",
      "outputs": [
        {
          "name": "",
          "type": "uint256"
        }
      ],
      "payable": false,
      "stateMutability": "view",
      "type": "function",
      "signature": "0xdd9dd688"
    },
    {
      "constant": true,
      "inputs": [],
      "name": "calcTokenPrice",
      "outputs": [
        {
          "name": "",
          "type": "uint256"
        }
      ],
      "payable": false,
      "stateMutability": "view",
      "type": "function",
      "signature": "0x39f64b52"
    }
  ],
  "bytecode": "0x60806040523480156200001157600080fd5b506040516080806200141e833981018060405260808110156200003357600080fd5b50805160208083015160408401516060909401519293909290916200005e90339062000117811b901c565b600180546001600160a01b0319163317908190556040516001600160a01b0391909116906000907f8be0079c531659141344cd1fd0a4f28419497f9722a3daafe3b4186f6b6457e0908290a36001600160a01b03841615801590620000c35750600082115b8015620000d05750600081115b620000da57600080fd5b600480546001600160a01b0319166001600160a01b039590951694909417909355600591909155600655600755600d805460ff19169055620001f5565b620001328160006200016960201b6200107f1790919060201c565b6040516001600160a01b038216907f47d1c22a25bb3a5d4e481b9b1e6944c2eade3181a0a20b495ed61d35b5323f2490600090a250565b6001600160a01b0381166200017d57600080fd5b6200018f8282620001bf60201b60201c565b156200019a57600080fd5b6001600160a01b0316600090815260209190915260409020805460ff19166001179055565b60006001600160a01b038216620001d557600080fd5b506001600160a01b03166000908152602091909152604090205460ff1690565b61121980620002056000396000f3fe6080604052600436106101b75760003560e01c80638da5cb5b116100ec578063da8e0b781161008a578063e5c8b03d11610064578063e5c8b03d146104d9578063eb12d61e146104ee578063f2fde38b14610521578063fc0c546a14610554576101b7565b8063da8e0b781461049a578063dd9dd688146104af578063dfb2866d146104c4576101b7565b8063a6b513ee116100c6578063a6b513ee14610422578063c040e6b814610437578063c062f57814610470578063d9f8a4e214610485576101b7565b80638da5cb5b146103e35780638f32d59b146103f8578063a3c2c4621461040d576101b7565b80635a5132be116101595780636f85c7e4116101335780636f85c7e41461035d578063715018a614610372578063753ed1bd146103875780637df73e271461039c576101b7565b80635a5132be1461030057806362ea82db146103155780636b64c76914610348576101b7565b806339f64b521161019557806339f64b521461029057806348c54b9d146102a557806348cd4cb1146102ba578063521eb273146102cf576101b7565b80632d34ba79146101bc5780633197cbb6146101f957806331e3753014610220575b600080fd5b3480156101c857600080fd5b506101f7600480360360408110156101df57600080fd5b506001600160a01b0381358116916020013516610569565b005b34801561020557600080fd5b5061020e610680565b60408051918252519081900360200190f35b61020e6004803603602081101561023657600080fd5b81019060208101813564010000000081111561025157600080fd5b82018360208201111561026357600080fd5b8035906020019184600183028401116401000000008311171561028557600080fd5b509092509050610686565b34801561029c57600080fd5b5061020e6108e3565b3480156102b157600080fd5b506101f761090c565b3480156102c657600080fd5b5061020e610a0f565b3480156102db57600080fd5b506102e4610a15565b604080516001600160a01b039092168252519081900360200190f35b34801561030c57600080fd5b506102e4610a24565b34801561032157600080fd5b5061020e6004803603602081101561033857600080fd5b50356001600160a01b0316610a33565b34801561035457600080fd5b506101f7610a45565b34801561036957600080fd5b5061020e610a88565b34801561037e57600080fd5b506101f7610a8d565b34801561039357600080fd5b5061020e610ae8565b3480156103a857600080fd5b506103cf600480360360208110156103bf57600080fd5b50356001600160a01b0316610aee565b604080519115158252519081900360200190f35b3480156103ef57600080fd5b506102e4610b06565b34801561040457600080fd5b506103cf610b15565b34801561041957600080fd5b5061020e610b26565b34801561042e57600080fd5b5061020e610b2c565b34801561044357600080fd5b5061044c610b32565b6040518082600481111561045c57fe5b60ff16815260200191505060405180910390f35b34801561047c57600080fd5b5061044c610b3b565b34801561049157600080fd5b5061020e610bb6565b3480156104a657600080fd5b5061020e610c71565b3480156104bb57600080fd5b5061020e610c77565b3480156104d057600080fd5b5061020e610c8c565b3480156104e557600080fd5b506101f7610c92565b3480156104fa57600080fd5b506101f76004803603602081101561051157600080fd5b50356001600160a01b0316610c9d565b34801561052d57600080fd5b506101f76004803603602081101561054457600080fd5b50356001600160a01b0316610cbb565b34801561056057600080fd5b506102e4610cd5565b610571610b15565b61057a57600080fd5b600080600d5460ff16600481111561058e57fe5b1461059857600080fd5b6001600160a01b038316158015906105b857506001600160a01b03821615155b6105c157600080fd5b600280546001600160a01b038086166001600160a01b031992831617928390556003805486831693169290921790915560055460408051600160e01b6370a0823102815230600482015290519193909216916370a08231916024808301926020929190829003018186803b15801561063857600080fd5b505afa15801561064c573d6000803e3d6000fd5b505050506040513d602081101561066257600080fd5b50511461066e57600080fd5b5050600d805460ff1916600117905550565b60095481565b60006004361480610697575060a436145b6106a057600080fd5b6002600d5460ff1660048111156106b357fe5b1480156106ce57506106c3610c77565b6106cb6108e3565b11155b156106db576106db610ce4565b6003600d5460ff1660048111156106ee57fe5b1480156106fc575060095442115b1561070f57600d805460ff191660041790555b600280600d5460ff16600481111561072357fe5b1461072d57600080fd5b83838080601f0160208091040260200160405190810160405280939291908181526020018383808284376000920191909152506107709250339150839050610ddc565b61077957600080fd5b6000341161078657600080fd5b600a543493503390600090633b9aca0061079e6108e3565b60055402816107a957fe5b040390506000600a54600654039050818110156107c4578091505b8186111561080c57819550826001600160a01b03166108fc8734039081150290604051600060405180830381858888f1935050505015801561080a573d6000803e3d6000fd5b505b6004546040516000916001600160a01b03169088908381818185875af1925050503d8060008114610859576040519150601f19603f3d011682016040523d82523d6000602084013e61085e565b606091505b505090508061086c57600080fd5b6001600160a01b0384166000818152600c602090815260409182902080548b019055600a80548b01905581518a815291517f9c89e828e6cee6374b68147c9e753e41746aad98ba255a527a4fc0ac1868bff99281900390910190a2828714156108d7576108d7610ce4565b50505050505092915050565b60006008544303611d4c01600754670de0b6b3a7640000028161090257fe5b0460010190505b90565b600436148061091b575060a436145b61092457600080fd5b6002600d5460ff16600481111561093757fe5b1480156109525750610947610c77565b61094f6108e3565b11155b1561095f5761095f610ce4565b6003600d5460ff16600481111561097257fe5b148015610980575060095442115b1561099357600d805460ff191660041790555b600480600d5460ff1660048111156109a757fe5b146109b157600080fd5b600b54336000818152600c602052604081205491929091633b9aca0002816109d557fe5b6001600160a01b038085166000908152600c6020526040812055600254929091049250610a0a9116838363ffffffff610e2c16565b505050565b60085481565b6004546001600160a01b031681565b6003546001600160a01b031681565b600c6020526000908152604090205481565b610a4d610b15565b610a5657600080fd5b600180600d5460ff166004811115610a6a57fe5b14610a7457600080fd5b50600d805460ff1916600217905543600855565b600081565b610a95610b15565b610a9e57600080fd5b6001546040516000916001600160a01b0316907f8be0079c531659141344cd1fd0a4f28419497f9722a3daafe3b4186f6b6457e0908390a3600180546001600160a01b0319169055565b60065481565b6000610b00818363ffffffff610ec116565b92915050565b6001546001600160a01b031690565b6001546001600160a01b0316331490565b600a5481565b600b5481565b600d5460ff1681565b60006002600d5460ff166004811115610b5057fe5b148015610b6b5750610b60610c77565b610b686108e3565b11155b15610b7857610b78610ce4565b6003600d5460ff166004811115610b8b57fe5b148015610b99575060095442115b15610bac57600d805460ff191660041790555b50600d5460ff1690565b60006002600d5460ff166004811115610bcb57fe5b148015610be65750610bdb610c77565b610be36108e3565b11155b15610bf357610bf3610ce4565b6003600d5460ff166004811115610c0657fe5b148015610c14575060095442115b15610c2757600d805460ff191660041790555b6003600d5460ff166004811115610c3a57fe5b1480610c5657506004600d5460ff166004811115610c5457fe5b145b15610c645750600b54610909565b610c6c6108e3565b905090565b60055481565b6000600554600a54633b9aca00028161090257fe5b60075481565b610c9b33610ef6565b565b610ca633610aee565b610caf57600080fd5b610cb881610f3e565b50565b610cc3610b15565b610ccc57600080fd5b610cb881610f86565b6002546001600160a01b031681565b600d805460ff19166003179055600654600a5414610d0957610d04610c77565b610d11565b610d116108e3565b600b819055600a5460009190633b9aca000281610d2a57fe5b049050600654600a541415610d6857600354600554600254610d63926001600160a01b039182169291169084900363ffffffff610e2c16565b610dd5565b60025460055460408051600160e31b630852cd8d028152918490036004830152516001600160a01b03909216916342966c689160248082019260009290919082900301818387803b158015610dbc57600080fd5b505af1158015610dd0573d6000803e3d6000fd5b505050505b5042600955565b6040805130606090811b6020808401919091526001600160a01b03861690911b60348301528251602881840301815260489092019092528051910120600090610e259083610ff5565b9392505050565b826001600160a01b031663a9059cbb83836040518363ffffffff1660e01b815260040180836001600160a01b03166001600160a01b0316815260200182815260200192505050602060405180830381600087803b158015610e8c57600080fd5b505af1158015610ea0573d6000803e3d6000fd5b505050506040513d6020811015610eb657600080fd5b5051610a0a57600080fd5b60006001600160a01b038216610ed657600080fd5b506001600160a01b03166000908152602091909152604090205460ff1690565b610f0760008263ffffffff61103716565b6040516001600160a01b038216907f3525e22824a8a7df2c9a6029941c824cf95b6447f1e13d5128fd3826d35afe8b90600090a250565b610f4f60008263ffffffff61107f16565b6040516001600160a01b038216907f47d1c22a25bb3a5d4e481b9b1e6944c2eade3181a0a20b495ed61d35b5323f2490600090a250565b6001600160a01b038116610f9957600080fd5b6001546040516001600160a01b038084169216907f8be0079c531659141344cd1fd0a4f28419497f9722a3daafe3b4186f6b6457e090600090a3600180546001600160a01b0319166001600160a01b0392909216919091179055565b60008061101183611005866110cb565b9063ffffffff61111c16565b90506001600160a01b0381161580159061102f575061102f81610aee565b949350505050565b6001600160a01b03811661104a57600080fd5b6110548282610ec1565b61105d57600080fd5b6001600160a01b0316600090815260209190915260409020805460ff19169055565b6001600160a01b03811661109257600080fd5b61109c8282610ec1565b156110a657600080fd5b6001600160a01b0316600090815260209190915260409020805460ff19166001179055565b604080517f19457468657265756d205369676e6564204d6573736167653a0a333200000000602080830191909152603c8083019490945282518083039094018452605c909101909152815191012090565b60008060008084516041146111375760009350505050610b00565b50505060208201516040830151606084015160001a601b81101561115957601b015b8060ff16601b1415801561117157508060ff16601c14155b156111825760009350505050610b00565b6040805160008152602080820180845289905260ff8416828401526060820186905260808201859052915160019260a0808401939192601f1981019281900390910190855afa1580156111d9573d6000803e3d6000fd5b505050602060405103519350505050610b0056fea165627a7a723058201c1a1636619d9772d082f250802bdd093a98de0f378a7bf5219a1abb929004490029",
  "source": "pragma solidity ^0.5.0;\n\nimport 'openzeppelin-solidity/contracts/drafts/SignatureBouncer.sol';\nimport 'openzeppelin-solidity/contracts/token/ERC20/ERC20Burnable.sol';\nimport 'openzeppelin-solidity/contracts/token/ERC20/SafeERC20.sol';\nimport 'openzeppelin-solidity/contracts/ownership/Ownable.sol';\n\n\n/// @title Dutch auction contract - distribution of XRT tokens using an auction.\n/// @author Stefan George - <stefan.george@consensys.net>\n/// @author Airalab - <research@aira.life> \ncontract DutchAuction is SignatureBouncer, Ownable {\n    using SafeERC20 for ERC20Burnable;\n\n    /*\n     *  Events\n     */\n    event BidSubmission(address indexed sender, uint256 amount);\n\n    /*\n     *  Constants\n     */\n    uint constant public WAITING_PERIOD = 0; // 1 days;\n\n    /*\n     *  Storage\n     */\n    ERC20Burnable public token;\n    address public ambix;\n    address payable public wallet;\n    uint public maxTokenSold;\n    uint public ceiling;\n    uint public priceFactor;\n    uint public startBlock;\n    uint public endTime;\n    uint public totalReceived;\n    uint public finalPrice;\n    mapping (address => uint) public bids;\n    Stages public stage;\n\n    /*\n     *  Enums\n     */\n    enum Stages {\n        AuctionDeployed,\n        AuctionSetUp,\n        AuctionStarted,\n        AuctionEnded,\n        TradingStarted\n    }\n\n    /*\n     *  Modifiers\n     */\n    modifier atStage(Stages _stage) {\n        // Contract on stage\n        require(stage == _stage);\n        _;\n    }\n\n    modifier isValidPayload() {\n        require(msg.data.length == 4 || msg.data.length == 164);\n        _;\n    }\n\n    modifier timedTransitions() {\n        if (stage == Stages.AuctionStarted && calcTokenPrice() <= calcStopPrice())\n            finalizeAuction();\n        if (stage == Stages.AuctionEnded && now > endTime + WAITING_PERIOD)\n            stage = Stages.TradingStarted;\n        _;\n    }\n\n    /*\n     *  Public functions\n     */\n    /// @dev Contract constructor function sets owner.\n    /// @param _wallet Multisig wallet.\n    /// @param _maxTokenSold Auction token balance.\n    /// @param _ceiling Auction ceiling.\n    /// @param _priceFactor Auction price factor.\n    constructor(address payable _wallet, uint _maxTokenSold, uint _ceiling, uint _priceFactor)\n        public\n    {\n        require(_wallet != address(0) && _ceiling > 0 && _priceFactor > 0);\n\n        wallet = _wallet;\n        maxTokenSold = _maxTokenSold;\n        ceiling = _ceiling;\n        priceFactor = _priceFactor;\n        stage = Stages.AuctionDeployed;\n    }\n\n    /// @dev Setup function sets external contracts' addresses.\n    /// @param _token Token address.\n    /// @param _ambix Distillation cube address.\n    function setup(ERC20Burnable _token, address _ambix)\n        public\n        onlyOwner\n        atStage(Stages.AuctionDeployed)\n    {\n        // Validate argument\n        require(_token != ERC20Burnable(0) && _ambix != address(0));\n\n        token = _token;\n        ambix = _ambix;\n\n        // Validate token balance\n        require(token.balanceOf(address(this)) == maxTokenSold);\n\n        stage = Stages.AuctionSetUp;\n    }\n\n    /// @dev Starts auction and sets startBlock.\n    function startAuction()\n        public\n        onlyOwner\n        atStage(Stages.AuctionSetUp)\n    {\n        stage = Stages.AuctionStarted;\n        startBlock = block.number;\n    }\n\n    /// @dev Calculates current token price.\n    /// @return Returns token price.\n    function calcCurrentTokenPrice()\n        public\n        timedTransitions\n        returns (uint)\n    {\n        if (stage == Stages.AuctionEnded || stage == Stages.TradingStarted)\n            return finalPrice;\n        return calcTokenPrice();\n    }\n\n    /// @dev Returns correct stage, even if a function with timedTransitions modifier has not yet been called yet.\n    /// @return Returns current auction stage.\n    function updateStage()\n        public\n        timedTransitions\n        returns (Stages)\n    {\n        return stage;\n    }\n\n    /// @dev Allows to send a bid to the auction.\n    /// @param signature KYC approvement\n    function bid(bytes calldata signature)\n        external\n        payable\n        isValidPayload\n        timedTransitions\n        atStage(Stages.AuctionStarted)\n        onlyValidSignature(signature)\n        returns (uint amount)\n    {\n        require(msg.value > 0);\n        amount = msg.value;\n\n        address payable receiver = msg.sender;\n\n        // Prevent that more than 90% of tokens are sold. Only relevant if cap not reached.\n        uint maxWei = maxTokenSold * calcTokenPrice() / 10**9 - totalReceived;\n        uint maxWeiBasedOnTotalReceived = ceiling - totalReceived;\n        if (maxWeiBasedOnTotalReceived < maxWei)\n            maxWei = maxWeiBasedOnTotalReceived;\n\n        // Only invest maximum possible amount.\n        if (amount > maxWei) {\n            amount = maxWei;\n            // Send change back to receiver address.\n            receiver.transfer(msg.value - amount);\n        }\n\n        // Forward funding to ether wallet\n        (bool success,) = wallet.call.value(amount)(\"\");\n        require(success);\n\n        bids[receiver] += amount;\n        totalReceived += amount;\n        emit BidSubmission(receiver, amount);\n\n        // Finalize auction when maxWei reached\n        if (amount == maxWei)\n            finalizeAuction();\n    }\n\n    /// @dev Claims tokens for bidder after auction.\n    function claimTokens()\n        public\n        isValidPayload\n        timedTransitions\n        atStage(Stages.TradingStarted)\n    {\n        address receiver = msg.sender;\n        uint tokenCount = bids[receiver] * 10**9 / finalPrice;\n        bids[receiver] = 0;\n        token.safeTransfer(receiver, tokenCount);\n    }\n\n    /// @dev Calculates stop price.\n    /// @return Returns stop price.\n    function calcStopPrice()\n        view\n        public\n        returns (uint)\n    {\n        return totalReceived * 10**9 / maxTokenSold + 1;\n    }\n\n    /// @dev Calculates token price.\n    /// @return Returns token price.\n    function calcTokenPrice()\n        view\n        public\n        returns (uint)\n    {\n        return priceFactor * 10**18 / (block.number - startBlock + 7500) + 1;\n    }\n\n    /*\n     *  Private functions\n     */\n    function finalizeAuction()\n        private\n    {\n        stage = Stages.AuctionEnded;\n        finalPrice = totalReceived == ceiling ? calcTokenPrice() : calcStopPrice();\n        uint soldTokens = totalReceived * 10**9 / finalPrice;\n\n        if (totalReceived == ceiling) {\n            // Auction contract transfers all unsold tokens to Ambix contract\n            token.safeTransfer(ambix, maxTokenSold - soldTokens);\n        } else {\n            // Auction contract burn all unsold tokens\n            token.burn(maxTokenSold - soldTokens);\n        }\n\n        endTime = now;\n    }\n}\n",
  "sourcePath": "/home/akru/devel/robonomics_contracts/contracts/misc/DutchAuction.sol",
  "compiler": {
    "name": "solc",
    "version": "0.5.7+commit.6da8b019.Emscripten.clang"
  },
  "schemaVersion": "3.0.2",
  "updatedAt": "2019-04-17T09:48:26.651Z",
  "devdoc": {
    "author": "Stefan George - <stefan.george@consensys.net>Airalab - <research@aira.life> ",
    "methods": {
      "bid(bytes)": {
        "details": "Allows to send a bid to the auction.",
        "params": {
          "signature": "KYC approvement"
        }
      },
      "calcCurrentTokenPrice()": {
        "details": "Calculates current token price.",
        "return": "Returns token price."
      },
      "calcStopPrice()": {
        "details": "Calculates stop price.",
        "return": "Returns stop price."
      },
      "calcTokenPrice()": {
        "details": "Calculates token price.",
        "return": "Returns token price."
      },
      "claimTokens()": {
        "details": "Claims tokens for bidder after auction."
      },
      "constructor": {
        "details": "Contract constructor function sets owner.",
        "params": {
          "_ceiling": "Auction ceiling.",
          "_maxTokenSold": "Auction token balance.",
          "_priceFactor": "Auction price factor.",
          "_wallet": "Multisig wallet."
        }
      },
      "isOwner()": {
        "return": "true if `msg.sender` is the owner of the contract."
      },
      "owner()": {
        "return": "the address of the owner."
      },
      "renounceOwnership()": {
        "details": "Allows the current owner to relinquish control of the contract."
      },
      "setup(address,address)": {
        "details": "Setup function sets external contracts' addresses.",
        "params": {
          "_ambix": "Distillation cube address.",
          "_token": "Token address."
        }
      },
      "startAuction()": {
        "details": "Starts auction and sets startBlock."
      },
      "transferOwnership(address)": {
        "details": "Allows the current owner to transfer control of the contract to a newOwner.",
        "params": {
          "newOwner": "The address to transfer ownership to."
        }
      },
      "updateStage()": {
        "details": "Returns correct stage, even if a function with timedTransitions modifier has not yet been called yet.",
        "return": "Returns current auction stage."
      }
    },
    "title": "Dutch auction contract - distribution of XRT tokens using an auction."
  },
  "userdoc": {
    "methods": {
      "renounceOwnership()": {
        "notice": "Renouncing to ownership will leave the contract without an owner. It will not be possible to call the functions with the `onlyOwner` modifier anymore."
      }
    }
  }
}