{
  "contractName": "DutchAuction",
  "abi": [
    {
      "constant": true,
      "inputs": [],
      "name": "endTime",
      "outputs": [
        {
          "name": "",
          "type": "uint256"
        }
      ],
      "payable": false,
      "stateMutability": "view",
      "type": "function",
      "signature": "0x3197cbb6"
    },
    {
      "constant": true,
      "inputs": [],
      "name": "startBlock",
      "outputs": [
        {
          "name": "",
          "type": "uint256"
        }
      ],
      "payable": false,
      "stateMutability": "view",
      "type": "function",
      "signature": "0x48cd4cb1"
    },
    {
      "constant": true,
      "inputs": [],
      "name": "wallet",
      "outputs": [
        {
          "name": "",
          "type": "address"
        }
      ],
      "payable": false,
      "stateMutability": "view",
      "type": "function",
      "signature": "0x521eb273"
    },
    {
      "constant": true,
      "inputs": [],
      "name": "ambix",
      "outputs": [
        {
          "name": "",
          "type": "address"
        }
      ],
      "payable": false,
      "stateMutability": "view",
      "type": "function",
      "signature": "0x5a5132be"
    },
    {
      "constant": true,
      "inputs": [
        {
          "name": "",
          "type": "address"
        }
      ],
      "name": "bids",
      "outputs": [
        {
          "name": "",
          "type": "uint256"
        }
      ],
      "payable": false,
      "stateMutability": "view",
      "type": "function",
      "signature": "0x62ea82db"
    },
    {
      "constant": true,
      "inputs": [],
      "name": "WAITING_PERIOD",
      "outputs": [
        {
          "name": "",
          "type": "uint256"
        }
      ],
      "payable": false,
      "stateMutability": "view",
      "type": "function",
      "signature": "0x6f85c7e4"
    },
    {
      "constant": false,
      "inputs": [],
      "name": "renounceOwnership",
      "outputs": [],
      "payable": false,
      "stateMutability": "nonpayable",
      "type": "function",
      "signature": "0x715018a6"
    },
    {
      "constant": true,
      "inputs": [],
      "name": "ceiling",
      "outputs": [
        {
          "name": "",
          "type": "uint256"
        }
      ],
      "payable": false,
      "stateMutability": "view",
      "type": "function",
      "signature": "0x753ed1bd"
    },
    {
      "constant": true,
      "inputs": [
        {
          "name": "account",
          "type": "address"
        }
      ],
      "name": "isSigner",
      "outputs": [
        {
          "name": "",
          "type": "bool"
        }
      ],
      "payable": false,
      "stateMutability": "view",
      "type": "function",
      "signature": "0x7df73e27"
    },
    {
      "constant": true,
      "inputs": [],
      "name": "owner",
      "outputs": [
        {
          "name": "",
          "type": "address"
        }
      ],
      "payable": false,
      "stateMutability": "view",
      "type": "function",
      "signature": "0x8da5cb5b"
    },
    {
      "constant": true,
      "inputs": [],
      "name": "isOwner",
      "outputs": [
        {
          "name": "",
          "type": "bool"
        }
      ],
      "payable": false,
      "stateMutability": "view",
      "type": "function",
      "signature": "0x8f32d59b"
    },
    {
      "constant": true,
      "inputs": [],
      "name": "totalReceived",
      "outputs": [
        {
          "name": "",
          "type": "uint256"
        }
      ],
      "payable": false,
      "stateMutability": "view",
      "type": "function",
      "signature": "0xa3c2c462"
    },
    {
      "constant": true,
      "inputs": [],
      "name": "finalPrice",
      "outputs": [
        {
          "name": "",
          "type": "uint256"
        }
      ],
      "payable": false,
      "stateMutability": "view",
      "type": "function",
      "signature": "0xa6b513ee"
    },
    {
      "constant": true,
      "inputs": [],
      "name": "stage",
      "outputs": [
        {
          "name": "",
          "type": "uint8"
        }
      ],
      "payable": false,
      "stateMutability": "view",
      "type": "function",
      "signature": "0xc040e6b8"
    },
    {
      "constant": true,
      "inputs": [],
      "name": "maxTokenSold",
      "outputs": [
        {
          "name": "",
          "type": "uint256"
        }
      ],
      "payable": false,
      "stateMutability": "view",
      "type": "function",
      "signature": "0xda8e0b78"
    },
    {
      "constant": true,
      "inputs": [],
      "name": "priceFactor",
      "outputs": [
        {
          "name": "",
          "type": "uint256"
        }
      ],
      "payable": false,
      "stateMutability": "view",
      "type": "function",
      "signature": "0xdfb2866d"
    },
    {
      "constant": false,
      "inputs": [],
      "name": "renounceSigner",
      "outputs": [],
      "payable": false,
      "stateMutability": "nonpayable",
      "type": "function",
      "signature": "0xe5c8b03d"
    },
    {
      "constant": false,
      "inputs": [
        {
          "name": "account",
          "type": "address"
        }
      ],
      "name": "addSigner",
      "outputs": [],
      "payable": false,
      "stateMutability": "nonpayable",
      "type": "function",
      "signature": "0xeb12d61e"
    },
    {
      "constant": false,
      "inputs": [
        {
          "name": "newOwner",
          "type": "address"
        }
      ],
      "name": "transferOwnership",
      "outputs": [],
      "payable": false,
      "stateMutability": "nonpayable",
      "type": "function",
      "signature": "0xf2fde38b"
    },
    {
      "constant": true,
      "inputs": [],
      "name": "token",
      "outputs": [
        {
          "name": "",
          "type": "address"
        }
      ],
      "payable": false,
      "stateMutability": "view",
      "type": "function",
      "signature": "0xfc0c546a"
    },
    {
      "inputs": [
        {
          "name": "_wallet",
          "type": "address"
        },
        {
          "name": "_maxTokenSold",
          "type": "uint256"
        },
        {
          "name": "_ceiling",
          "type": "uint256"
        },
        {
          "name": "_priceFactor",
          "type": "uint256"
        }
      ],
      "payable": false,
      "stateMutability": "nonpayable",
      "type": "constructor",
      "signature": "constructor"
    },
    {
      "anonymous": false,
      "inputs": [
        {
          "indexed": true,
          "name": "sender",
          "type": "address"
        },
        {
          "indexed": false,
          "name": "amount",
          "type": "uint256"
        }
      ],
      "name": "BidSubmission",
      "type": "event",
      "signature": "0x9c89e828e6cee6374b68147c9e753e41746aad98ba255a527a4fc0ac1868bff9"
    },
    {
      "anonymous": false,
      "inputs": [
        {
          "indexed": true,
          "name": "previousOwner",
          "type": "address"
        },
        {
          "indexed": true,
          "name": "newOwner",
          "type": "address"
        }
      ],
      "name": "OwnershipTransferred",
      "type": "event",
      "signature": "0x8be0079c531659141344cd1fd0a4f28419497f9722a3daafe3b4186f6b6457e0"
    },
    {
      "anonymous": false,
      "inputs": [
        {
          "indexed": true,
          "name": "account",
          "type": "address"
        }
      ],
      "name": "SignerAdded",
      "type": "event",
      "signature": "0x47d1c22a25bb3a5d4e481b9b1e6944c2eade3181a0a20b495ed61d35b5323f24"
    },
    {
      "anonymous": false,
      "inputs": [
        {
          "indexed": true,
          "name": "account",
          "type": "address"
        }
      ],
      "name": "SignerRemoved",
      "type": "event",
      "signature": "0x3525e22824a8a7df2c9a6029941c824cf95b6447f1e13d5128fd3826d35afe8b"
    },
    {
      "constant": false,
      "inputs": [
        {
          "name": "_token",
          "type": "address"
        },
        {
          "name": "_ambix",
          "type": "address"
        }
      ],
      "name": "setup",
      "outputs": [],
      "payable": false,
      "stateMutability": "nonpayable",
      "type": "function",
      "signature": "0x2d34ba79"
    },
    {
      "constant": false,
      "inputs": [],
      "name": "startAuction",
      "outputs": [],
      "payable": false,
      "stateMutability": "nonpayable",
      "type": "function",
      "signature": "0x6b64c769"
    },
    {
      "constant": false,
      "inputs": [],
      "name": "calcCurrentTokenPrice",
      "outputs": [
        {
          "name": "",
          "type": "uint256"
        }
      ],
      "payable": false,
      "stateMutability": "nonpayable",
      "type": "function",
      "signature": "0xd9f8a4e2"
    },
    {
      "constant": false,
      "inputs": [],
      "name": "updateStage",
      "outputs": [
        {
          "name": "",
          "type": "uint8"
        }
      ],
      "payable": false,
      "stateMutability": "nonpayable",
      "type": "function",
      "signature": "0xc062f578"
    },
    {
      "constant": false,
      "inputs": [
        {
          "name": "signature",
          "type": "bytes"
        }
      ],
      "name": "bid",
      "outputs": [
        {
          "name": "amount",
          "type": "uint256"
        }
      ],
      "payable": true,
      "stateMutability": "payable",
      "type": "function",
      "signature": "0x31e37530"
    },
    {
      "constant": false,
      "inputs": [],
      "name": "claimTokens",
      "outputs": [],
      "payable": false,
      "stateMutability": "nonpayable",
      "type": "function",
      "signature": "0x48c54b9d"
    },
    {
      "constant": true,
      "inputs": [],
      "name": "calcStopPrice",
      "outputs": [
        {
          "name": "",
          "type": "uint256"
        }
      ],
      "payable": false,
      "stateMutability": "view",
      "type": "function",
      "signature": "0xdd9dd688"
    },
    {
      "constant": true,
      "inputs": [],
      "name": "calcTokenPrice",
      "outputs": [
        {
          "name": "",
          "type": "uint256"
        }
      ],
      "payable": false,
      "stateMutability": "view",
      "type": "function",
      "signature": "0x39f64b52"
    }
  ],
  "bytecode": "0x60806040523480156200001157600080fd5b50604051608080620014b8833981018060405260808110156200003357600080fd5b50805160208201516040830151606090930151919290916200005e3364010000000062000117810204565b60018054600160a060020a031916331790819055604051600160a060020a0391909116906000907f8be0079c531659141344cd1fd0a4f28419497f9722a3daafe3b4186f6b6457e0908290a3600160a060020a03841615801590620000c35750600082115b8015620000d05750600081115b620000da57600080fd5b60048054600160a060020a031916600160a060020a039590951694909417909355600591909155600655600755600d805460ff19169055620001f8565b62000132600082640100000000620011166200016982021704565b604051600160a060020a038216907f47d1c22a25bb3a5d4e481b9b1e6944c2eade3181a0a20b495ed61d35b5323f2490600090a250565b600160a060020a0381166200017d57600080fd5b620001928282640100000000620001c2810204565b156200019d57600080fd5b600160a060020a0316600090815260209190915260409020805460ff19166001179055565b6000600160a060020a038216620001d857600080fd5b50600160a060020a03166000908152602091909152604090205460ff1690565b6112b080620002086000396000f3fe6080604052600436106101d4576000357c0100000000000000000000000000000000000000000000000000000000900480638da5cb5b11610109578063da8e0b78116100a7578063e5c8b03d11610081578063e5c8b03d146104f6578063eb12d61e1461050b578063f2fde38b1461053e578063fc0c546a14610571576101d4565b8063da8e0b78146104b7578063dd9dd688146104cc578063dfb2866d146104e1576101d4565b8063a6b513ee116100e3578063a6b513ee1461043f578063c040e6b814610454578063c062f5781461048d578063d9f8a4e2146104a2576101d4565b80638da5cb5b146104005780638f32d59b14610415578063a3c2c4621461042a576101d4565b80635a5132be116101765780636f85c7e4116101505780636f85c7e41461037a578063715018a61461038f578063753ed1bd146103a45780637df73e27146103b9576101d4565b80635a5132be1461031d57806362ea82db146103325780636b64c76914610365576101d4565b806339f64b52116101b257806339f64b52146102ad57806348c54b9d146102c257806348cd4cb1146102d7578063521eb273146102ec576101d4565b80632d34ba79146101d95780633197cbb61461021657806331e375301461023d575b600080fd5b3480156101e557600080fd5b50610214600480360360408110156101fc57600080fd5b50600160a060020a0381358116916020013516610586565b005b34801561022257600080fd5b5061022b6106c0565b60408051918252519081900360200190f35b61022b6004803603602081101561025357600080fd5b81019060208101813564010000000081111561026e57600080fd5b82018360208201111561028057600080fd5b803590602001918460018302840111640100000000831117156102a257600080fd5b5090925090506106c6565b3480156102b957600080fd5b5061022b610923565b3480156102ce57600080fd5b5061021461094c565b3480156102e357600080fd5b5061022b610a4f565b3480156102f857600080fd5b50610301610a55565b60408051600160a060020a039092168252519081900360200190f35b34801561032957600080fd5b50610301610a64565b34801561033e57600080fd5b5061022b6004803603602081101561035557600080fd5b5035600160a060020a0316610a73565b34801561037157600080fd5b50610214610a85565b34801561038657600080fd5b5061022b610ac8565b34801561039b57600080fd5b50610214610acd565b3480156103b057600080fd5b5061022b610b35565b3480156103c557600080fd5b506103ec600480360360208110156103dc57600080fd5b5035600160a060020a0316610b3b565b604080519115158252519081900360200190f35b34801561040c57600080fd5b50610301610b53565b34801561042157600080fd5b506103ec610b62565b34801561043657600080fd5b5061022b610b73565b34801561044b57600080fd5b5061022b610b79565b34801561046057600080fd5b50610469610b7f565b6040518082600481111561047957fe5b60ff16815260200191505060405180910390f35b34801561049957600080fd5b50610469610b88565b3480156104ae57600080fd5b5061022b610c03565b3480156104c357600080fd5b5061022b610cbe565b3480156104d857600080fd5b5061022b610cc4565b3480156104ed57600080fd5b5061022b610cd9565b34801561050257600080fd5b50610214610cdf565b34801561051757600080fd5b506102146004803603602081101561052e57600080fd5b5035600160a060020a0316610cea565b34801561054a57600080fd5b506102146004803603602081101561056157600080fd5b5035600160a060020a0316610d08565b34801561057d57600080fd5b50610301610d22565b61058e610b62565b61059757600080fd5b600080600d5460ff1660048111156105ab57fe5b146105b557600080fd5b600160a060020a038316158015906105d55750600160a060020a03821615155b6105de57600080fd5b60028054600160a060020a0380861673ffffffffffffffffffffffffffffffffffffffff19928316179283905560038054868316931692909217909155600554604080517f70a0823100000000000000000000000000000000000000000000000000000000815230600482015290519193909216916370a08231916024808301926020929190829003018186803b15801561067857600080fd5b505afa15801561068c573d6000803e3d6000fd5b505050506040513d60208110156106a257600080fd5b5051146106ae57600080fd5b5050600d805460ff1916600117905550565b60095481565b600060043614806106d7575060a436145b6106e057600080fd5b6002600d5460ff1660048111156106f357fe5b14801561070e5750610703610cc4565b61070b610923565b11155b1561071b5761071b610d31565b6003600d5460ff16600481111561072e57fe5b14801561073c575060095442115b1561074f57600d805460ff191660041790555b600280600d5460ff16600481111561076357fe5b1461076d57600080fd5b83838080601f0160208091040260200160405190810160405280939291908181526020018383808284376000920191909152506107b09250339150839050610e3f565b6107b957600080fd5b600034116107c657600080fd5b600a543493503390600090633b9aca006107de610923565b60055402816107e957fe5b040390506000600a5460065403905081811015610804578091505b8186111561084c5781955082600160a060020a03166108fc8734039081150290604051600060405180830381858888f1935050505015801561084a573d6000803e3d6000fd5b505b600454604051600091600160a060020a03169088908381818185875af1925050503d8060008114610899576040519150601f19603f3d011682016040523d82523d6000602084013e61089e565b606091505b50509050806108ac57600080fd5b600160a060020a0384166000818152600c602090815260409182902080548b019055600a80548b01905581518a815291517f9c89e828e6cee6374b68147c9e753e41746aad98ba255a527a4fc0ac1868bff99281900390910190a28287141561091757610917610d31565b50505050505092915050565b60006008544303611d4c01600754670de0b6b3a7640000028161094257fe5b0460010190505b90565b600436148061095b575060a436145b61096457600080fd5b6002600d5460ff16600481111561097757fe5b1480156109925750610987610cc4565b61098f610923565b11155b1561099f5761099f610d31565b6003600d5460ff1660048111156109b257fe5b1480156109c0575060095442115b156109d357600d805460ff191660041790555b600480600d5460ff1660048111156109e757fe5b146109f157600080fd5b600b54336000818152600c602052604081205491929091633b9aca000281610a1557fe5b600160a060020a038085166000908152600c6020526040812055600254929091049250610a4a9116838363ffffffff610e9a16565b505050565b60085481565b600454600160a060020a031681565b600354600160a060020a031681565b600c6020526000908152604090205481565b610a8d610b62565b610a9657600080fd5b600180600d5460ff166004811115610aaa57fe5b14610ab457600080fd5b50600d805460ff1916600217905543600855565b600081565b610ad5610b62565b610ade57600080fd5b600154604051600091600160a060020a0316907f8be0079c531659141344cd1fd0a4f28419497f9722a3daafe3b4186f6b6457e0908390a36001805473ffffffffffffffffffffffffffffffffffffffff19169055565b60065481565b6000610b4d818363ffffffff610f4b16565b92915050565b600154600160a060020a031690565b600154600160a060020a0316331490565b600a5481565b600b5481565b600d5460ff1681565b60006002600d5460ff166004811115610b9d57fe5b148015610bb85750610bad610cc4565b610bb5610923565b11155b15610bc557610bc5610d31565b6003600d5460ff166004811115610bd857fe5b148015610be6575060095442115b15610bf957600d805460ff191660041790555b50600d5460ff1690565b60006002600d5460ff166004811115610c1857fe5b148015610c335750610c28610cc4565b610c30610923565b11155b15610c4057610c40610d31565b6003600d5460ff166004811115610c5357fe5b148015610c61575060095442115b15610c7457600d805460ff191660041790555b6003600d5460ff166004811115610c8757fe5b1480610ca357506004600d5460ff166004811115610ca157fe5b145b15610cb15750600b54610949565b610cb9610923565b905090565b60055481565b6000600554600a54633b9aca00028161094257fe5b60075481565b610ce833610f80565b565b610cf333610b3b565b610cfc57600080fd5b610d0581610fc8565b50565b610d10610b62565b610d1957600080fd5b610d0581611010565b600254600160a060020a031681565b600d805460ff19166003179055600654600a5414610d5657610d51610cc4565b610d5e565b610d5e610923565b600b819055600a5460009190633b9aca000281610d7757fe5b049050600654600a541415610db557600354600554600254610db092600160a060020a039182169291169084900363ffffffff610e9a16565b610e38565b600254600554604080517f42966c6800000000000000000000000000000000000000000000000000000000815291849003600483015251600160a060020a03909216916342966c689160248082019260009290919082900301818387803b158015610e1f57600080fd5b505af1158015610e33573d6000803e3d6000fd5b505050505b5042600955565b604080516c01000000000000000000000000308102602080840191909152600160a060020a03861690910260348301528251602881840301815260489092019092528051910120600090610e93908361108c565b9392505050565b82600160a060020a031663a9059cbb83836040518363ffffffff167c01000000000000000000000000000000000000000000000000000000000281526004018083600160a060020a0316600160a060020a0316815260200182815260200192505050602060405180830381600087803b158015610f1657600080fd5b505af1158015610f2a573d6000803e3d6000fd5b505050506040513d6020811015610f4057600080fd5b5051610a4a57600080fd5b6000600160a060020a038216610f6057600080fd5b50600160a060020a03166000908152602091909152604090205460ff1690565b610f9160008263ffffffff6110ce16565b604051600160a060020a038216907f3525e22824a8a7df2c9a6029941c824cf95b6447f1e13d5128fd3826d35afe8b90600090a250565b610fd960008263ffffffff61111616565b604051600160a060020a038216907f47d1c22a25bb3a5d4e481b9b1e6944c2eade3181a0a20b495ed61d35b5323f2490600090a250565b600160a060020a03811661102357600080fd5b600154604051600160a060020a038084169216907f8be0079c531659141344cd1fd0a4f28419497f9722a3daafe3b4186f6b6457e090600090a36001805473ffffffffffffffffffffffffffffffffffffffff1916600160a060020a0392909216919091179055565b6000806110a88361109c86611162565b9063ffffffff6111b316565b9050600160a060020a038116158015906110c657506110c681610b3b565b949350505050565b600160a060020a0381166110e157600080fd5b6110eb8282610f4b565b6110f457600080fd5b600160a060020a0316600090815260209190915260409020805460ff19169055565b600160a060020a03811661112957600080fd5b6111338282610f4b565b1561113d57600080fd5b600160a060020a0316600090815260209190915260409020805460ff19166001179055565b604080517f19457468657265756d205369676e6564204d6573736167653a0a333200000000602080830191909152603c8083019490945282518083039094018452605c909101909152815191012090565b60008060008084516041146111ce5760009350505050610b4d565b50505060208201516040830151606084015160001a601b8110156111f057601b015b8060ff16601b1415801561120857508060ff16601c14155b156112195760009350505050610b4d565b6040805160008152602080820180845289905260ff8416828401526060820186905260808201859052915160019260a0808401939192601f1981019281900390910190855afa158015611270573d6000803e3d6000fd5b505050602060405103519350505050610b4d56fea165627a7a72305820191c4252d65e1eda961160fd6cb17d92608ba4a0a3d61223b03b2596da7ab1730029",
  "source": "pragma solidity ^0.5.0;\n\nimport 'openzeppelin-solidity/contracts/drafts/SignatureBouncer.sol';\nimport 'openzeppelin-solidity/contracts/token/ERC20/ERC20Burnable.sol';\nimport 'openzeppelin-solidity/contracts/token/ERC20/SafeERC20.sol';\nimport 'openzeppelin-solidity/contracts/ownership/Ownable.sol';\n\n\n/// @title Dutch auction contract - distribution of XRT tokens using an auction.\n/// @author Stefan George - <stefan.george@consensys.net>\n/// @author Airalab - <research@aira.life> \ncontract DutchAuction is SignatureBouncer, Ownable {\n    using SafeERC20 for ERC20Burnable;\n\n    /*\n     *  Events\n     */\n    event BidSubmission(address indexed sender, uint256 amount);\n\n    /*\n     *  Constants\n     */\n    uint constant public WAITING_PERIOD = 0; // 1 days;\n\n    /*\n     *  Storage\n     */\n    ERC20Burnable public token;\n    address public ambix;\n    address payable public wallet;\n    uint public maxTokenSold;\n    uint public ceiling;\n    uint public priceFactor;\n    uint public startBlock;\n    uint public endTime;\n    uint public totalReceived;\n    uint public finalPrice;\n    mapping (address => uint) public bids;\n    Stages public stage;\n\n    /*\n     *  Enums\n     */\n    enum Stages {\n        AuctionDeployed,\n        AuctionSetUp,\n        AuctionStarted,\n        AuctionEnded,\n        TradingStarted\n    }\n\n    /*\n     *  Modifiers\n     */\n    modifier atStage(Stages _stage) {\n        // Contract on stage\n        require(stage == _stage);\n        _;\n    }\n\n    modifier isValidPayload() {\n        require(msg.data.length == 4 || msg.data.length == 164);\n        _;\n    }\n\n    modifier timedTransitions() {\n        if (stage == Stages.AuctionStarted && calcTokenPrice() <= calcStopPrice())\n            finalizeAuction();\n        if (stage == Stages.AuctionEnded && now > endTime + WAITING_PERIOD)\n            stage = Stages.TradingStarted;\n        _;\n    }\n\n    /*\n     *  Public functions\n     */\n    /// @dev Contract constructor function sets owner.\n    /// @param _wallet Multisig wallet.\n    /// @param _maxTokenSold Auction token balance.\n    /// @param _ceiling Auction ceiling.\n    /// @param _priceFactor Auction price factor.\n    constructor(address payable _wallet, uint _maxTokenSold, uint _ceiling, uint _priceFactor)\n        public\n    {\n        require(_wallet != address(0) && _ceiling > 0 && _priceFactor > 0);\n\n        wallet = _wallet;\n        maxTokenSold = _maxTokenSold;\n        ceiling = _ceiling;\n        priceFactor = _priceFactor;\n        stage = Stages.AuctionDeployed;\n    }\n\n    /// @dev Setup function sets external contracts' addresses.\n    /// @param _token Token address.\n    /// @param _ambix Distillation cube address.\n    function setup(ERC20Burnable _token, address _ambix)\n        public\n        onlyOwner\n        atStage(Stages.AuctionDeployed)\n    {\n        // Validate argument\n        require(_token != ERC20Burnable(0) && _ambix != address(0));\n\n        token = _token;\n        ambix = _ambix;\n\n        // Validate token balance\n        require(token.balanceOf(address(this)) == maxTokenSold);\n\n        stage = Stages.AuctionSetUp;\n    }\n\n    /// @dev Starts auction and sets startBlock.\n    function startAuction()\n        public\n        onlyOwner\n        atStage(Stages.AuctionSetUp)\n    {\n        stage = Stages.AuctionStarted;\n        startBlock = block.number;\n    }\n\n    /// @dev Calculates current token price.\n    /// @return Returns token price.\n    function calcCurrentTokenPrice()\n        public\n        timedTransitions\n        returns (uint)\n    {\n        if (stage == Stages.AuctionEnded || stage == Stages.TradingStarted)\n            return finalPrice;\n        return calcTokenPrice();\n    }\n\n    /// @dev Returns correct stage, even if a function with timedTransitions modifier has not yet been called yet.\n    /// @return Returns current auction stage.\n    function updateStage()\n        public\n        timedTransitions\n        returns (Stages)\n    {\n        return stage;\n    }\n\n    /// @dev Allows to send a bid to the auction.\n    /// @param signature KYC approvement\n    function bid(bytes calldata signature)\n        external\n        payable\n        isValidPayload\n        timedTransitions\n        atStage(Stages.AuctionStarted)\n        onlyValidSignature(signature)\n        returns (uint amount)\n    {\n        require(msg.value > 0);\n        amount = msg.value;\n\n        address payable receiver = msg.sender;\n\n        // Prevent that more than 90% of tokens are sold. Only relevant if cap not reached.\n        uint maxWei = maxTokenSold * calcTokenPrice() / 10**9 - totalReceived;\n        uint maxWeiBasedOnTotalReceived = ceiling - totalReceived;\n        if (maxWeiBasedOnTotalReceived < maxWei)\n            maxWei = maxWeiBasedOnTotalReceived;\n\n        // Only invest maximum possible amount.\n        if (amount > maxWei) {\n            amount = maxWei;\n            // Send change back to receiver address.\n            receiver.transfer(msg.value - amount);\n        }\n\n        // Forward funding to ether wallet\n        (bool success,) = wallet.call.value(amount)(\"\");\n        require(success);\n\n        bids[receiver] += amount;\n        totalReceived += amount;\n        emit BidSubmission(receiver, amount);\n\n        // Finalize auction when maxWei reached\n        if (amount == maxWei)\n            finalizeAuction();\n    }\n\n    /// @dev Claims tokens for bidder after auction.\n    function claimTokens()\n        public\n        isValidPayload\n        timedTransitions\n        atStage(Stages.TradingStarted)\n    {\n        address receiver = msg.sender;\n        uint tokenCount = bids[receiver] * 10**9 / finalPrice;\n        bids[receiver] = 0;\n        token.safeTransfer(receiver, tokenCount);\n    }\n\n    /// @dev Calculates stop price.\n    /// @return Returns stop price.\n    function calcStopPrice()\n        view\n        public\n        returns (uint)\n    {\n        return totalReceived * 10**9 / maxTokenSold + 1;\n    }\n\n    /// @dev Calculates token price.\n    /// @return Returns token price.\n    function calcTokenPrice()\n        view\n        public\n        returns (uint)\n    {\n        return priceFactor * 10**18 / (block.number - startBlock + 7500) + 1;\n    }\n\n    /*\n     *  Private functions\n     */\n    function finalizeAuction()\n        private\n    {\n        stage = Stages.AuctionEnded;\n        finalPrice = totalReceived == ceiling ? calcTokenPrice() : calcStopPrice();\n        uint soldTokens = totalReceived * 10**9 / finalPrice;\n\n        if (totalReceived == ceiling) {\n            // Auction contract transfers all unsold tokens to Ambix contract\n            token.safeTransfer(ambix, maxTokenSold - soldTokens);\n        } else {\n            // Auction contract burn all unsold tokens\n            token.burn(maxTokenSold - soldTokens);\n        }\n\n        endTime = now;\n    }\n}\n",
  "sourcePath": "/home/akru/devel/robonomics_contracts/contracts/misc/DutchAuction.sol",
  "compiler": {
    "name": "solc",
    "version": "0.5.7+commit.6da8b019.Emscripten.clang"
  },
  "schemaVersion": "3.0.2",
  "updatedAt": "2019-04-12T13:28:42.915Z",
  "devdoc": {
    "author": "Stefan George - <stefan.george@consensys.net>Airalab - <research@aira.life> ",
    "methods": {
      "bid(bytes)": {
        "details": "Allows to send a bid to the auction.",
        "params": {
          "signature": "KYC approvement"
        }
      },
      "calcCurrentTokenPrice()": {
        "details": "Calculates current token price.",
        "return": "Returns token price."
      },
      "calcStopPrice()": {
        "details": "Calculates stop price.",
        "return": "Returns stop price."
      },
      "calcTokenPrice()": {
        "details": "Calculates token price.",
        "return": "Returns token price."
      },
      "claimTokens()": {
        "details": "Claims tokens for bidder after auction."
      },
      "constructor": {
        "details": "Contract constructor function sets owner.",
        "params": {
          "_ceiling": "Auction ceiling.",
          "_maxTokenSold": "Auction token balance.",
          "_priceFactor": "Auction price factor.",
          "_wallet": "Multisig wallet."
        }
      },
      "isOwner()": {
        "return": "true if `msg.sender` is the owner of the contract."
      },
      "owner()": {
        "return": "the address of the owner."
      },
      "renounceOwnership()": {
        "details": "Allows the current owner to relinquish control of the contract."
      },
      "setup(address,address)": {
        "details": "Setup function sets external contracts' addresses.",
        "params": {
          "_ambix": "Distillation cube address.",
          "_token": "Token address."
        }
      },
      "startAuction()": {
        "details": "Starts auction and sets startBlock."
      },
      "transferOwnership(address)": {
        "details": "Allows the current owner to transfer control of the contract to a newOwner.",
        "params": {
          "newOwner": "The address to transfer ownership to."
        }
      },
      "updateStage()": {
        "details": "Returns correct stage, even if a function with timedTransitions modifier has not yet been called yet.",
        "return": "Returns current auction stage."
      }
    },
    "title": "Dutch auction contract - distribution of XRT tokens using an auction."
  },
  "userdoc": {
    "methods": {
      "renounceOwnership()": {
        "notice": "Renouncing to ownership will leave the contract without an owner. It will not be possible to call the functions with the `onlyOwner` modifier anymore."
      }
    }
  }
}