{
  "contractName": "ENS",
  "abi": [
    {
      "inputs": [],
      "payable": false,
      "stateMutability": "nonpayable",
      "type": "constructor"
    },
    {
      "anonymous": false,
      "inputs": [
        {
          "indexed": true,
          "name": "node",
          "type": "bytes32"
        },
        {
          "indexed": true,
          "name": "label",
          "type": "bytes32"
        },
        {
          "indexed": false,
          "name": "owner",
          "type": "address"
        }
      ],
      "name": "NewOwner",
      "type": "event",
      "signature": "0xce0457fe73731f824cc272376169235128c118b49d344817417c6d108d155e82"
    },
    {
      "anonymous": false,
      "inputs": [
        {
          "indexed": true,
          "name": "node",
          "type": "bytes32"
        },
        {
          "indexed": false,
          "name": "owner",
          "type": "address"
        }
      ],
      "name": "Transfer",
      "type": "event",
      "signature": "0xd4735d920b0f87494915f556dd9b54c8f309026070caea5c737245152564d266"
    },
    {
      "anonymous": false,
      "inputs": [
        {
          "indexed": true,
          "name": "node",
          "type": "bytes32"
        },
        {
          "indexed": false,
          "name": "resolver",
          "type": "address"
        }
      ],
      "name": "NewResolver",
      "type": "event",
      "signature": "0x335721b01866dc23fbee8b6b2c7b1e14d6f05c28cd35a2c934239f94095602a0"
    },
    {
      "anonymous": false,
      "inputs": [
        {
          "indexed": true,
          "name": "node",
          "type": "bytes32"
        },
        {
          "indexed": false,
          "name": "ttl",
          "type": "uint64"
        }
      ],
      "name": "NewTTL",
      "type": "event",
      "signature": "0x1d4f9bbfc9cab89d66e1a1562f2233ccbf1308cb4f63de2ead5787adddb8fa68"
    },
    {
      "constant": true,
      "inputs": [
        {
          "name": "_node",
          "type": "bytes32"
        }
      ],
      "name": "owner",
      "outputs": [
        {
          "name": "",
          "type": "address"
        }
      ],
      "payable": false,
      "stateMutability": "view",
      "type": "function",
      "signature": "0x02571be3"
    },
    {
      "constant": true,
      "inputs": [
        {
          "name": "_node",
          "type": "bytes32"
        }
      ],
      "name": "resolver",
      "outputs": [
        {
          "name": "",
          "type": "address"
        }
      ],
      "payable": false,
      "stateMutability": "view",
      "type": "function",
      "signature": "0x0178b8bf"
    },
    {
      "constant": true,
      "inputs": [
        {
          "name": "_node",
          "type": "bytes32"
        }
      ],
      "name": "ttl",
      "outputs": [
        {
          "name": "",
          "type": "uint64"
        }
      ],
      "payable": false,
      "stateMutability": "view",
      "type": "function",
      "signature": "0x16a25cbd"
    },
    {
      "constant": false,
      "inputs": [
        {
          "name": "_node",
          "type": "bytes32"
        },
        {
          "name": "_owner",
          "type": "address"
        }
      ],
      "name": "setOwner",
      "outputs": [],
      "payable": false,
      "stateMutability": "nonpayable",
      "type": "function",
      "signature": "0x5b0fc9c3"
    },
    {
      "constant": false,
      "inputs": [
        {
          "name": "_node",
          "type": "bytes32"
        },
        {
          "name": "_label",
          "type": "bytes32"
        },
        {
          "name": "_owner",
          "type": "address"
        }
      ],
      "name": "setSubnodeOwner",
      "outputs": [],
      "payable": false,
      "stateMutability": "nonpayable",
      "type": "function",
      "signature": "0x06ab5923"
    },
    {
      "constant": false,
      "inputs": [
        {
          "name": "_node",
          "type": "bytes32"
        },
        {
          "name": "_resolver",
          "type": "address"
        }
      ],
      "name": "setResolver",
      "outputs": [],
      "payable": false,
      "stateMutability": "nonpayable",
      "type": "function",
      "signature": "0x1896f70a"
    },
    {
      "constant": false,
      "inputs": [
        {
          "name": "_node",
          "type": "bytes32"
        },
        {
          "name": "_ttl",
          "type": "uint64"
        }
      ],
      "name": "setTTL",
      "outputs": [],
      "payable": false,
      "stateMutability": "nonpayable",
      "type": "function",
      "signature": "0x14ab9038"
    }
  ],
  "bytecode": "0x608060405234801561001057600080fd5b5060008080526020527fad3228b676f7d3cd4284a5443f17f1962b36e491b30a40b2405849e597ba5fb580546001600160a01b031916331790556104f4806100596000396000f3fe608060405234801561001057600080fd5b506004361061007d5760003560e01c806314ab90381161005b57806314ab90381461010c57806316a25cbd146101395780631896f70a146101735780635b0fc9c31461019f5761007d565b80630178b8bf1461008257806302571be3146100bb57806306ab5923146100d8575b600080fd5b61009f6004803603602081101561009857600080fd5b50356101cb565b604080516001600160a01b039092168252519081900360200190f35b61009f600480360360208110156100d157600080fd5b50356101e9565b61010a600480360360608110156100ee57600080fd5b50803590602081013590604001356001600160a01b0316610204565b005b61010a6004803603604081101561012257600080fd5b508035906020013567ffffffffffffffff166102c1565b6101566004803603602081101561014f57600080fd5b5035610379565b6040805167ffffffffffffffff9092168252519081900360200190f35b61010a6004803603604081101561018957600080fd5b50803590602001356001600160a01b031661039f565b61010a600480360360408110156101b557600080fd5b50803590602001356001600160a01b0316610435565b6000908152602081905260409020600101546001600160a01b031690565b6000908152602081905260409020546001600160a01b031690565b60008381526020819052604090205483906001600160a01b0316331461022957600080fd5b60408051602080820187905281830186905282518083038401815260608301808552815191909201206001600160a01b0386169091529151859187917fce0457fe73731f824cc272376169235128c118b49d344817417c6d108d155e829181900360800190a3600090815260208190526040902080546001600160a01b0319166001600160a01b039390931692909217909155505050565b60008281526020819052604090205482906001600160a01b031633146102e657600080fd5b6040805167ffffffffffffffff84168152905184917f1d4f9bbfc9cab89d66e1a1562f2233ccbf1308cb4f63de2ead5787adddb8fa68919081900360200190a250600091825260208290526040909120600101805467ffffffffffffffff909216600160a01b027fffffffff0000000000000000ffffffffffffffffffffffffffffffffffffffff909216919091179055565b600090815260208190526040902060010154600160a01b900467ffffffffffffffff1690565b60008281526020819052604090205482906001600160a01b031633146103c457600080fd5b604080516001600160a01b0384168152905184917f335721b01866dc23fbee8b6b2c7b1e14d6f05c28cd35a2c934239f94095602a0919081900360200190a25060009182526020829052604090912060010180546001600160a01b0319166001600160a01b03909216919091179055565b60008281526020819052604090205482906001600160a01b0316331461045a57600080fd5b604080516001600160a01b0384168152905184917fd4735d920b0f87494915f556dd9b54c8f309026070caea5c737245152564d266919081900360200190a25060009182526020829052604090912080546001600160a01b0319166001600160a01b0390921691909117905556fea165627a7a723058203564a504ff80eb866d427f254cde2ffa4e09bdfe30a756588a4751de4daa176c0029",
  "source": "pragma solidity ^0.5.0;\n\nimport './AbstractENS.sol';\n\n/**\n * The ENS registry contract.\n */\ncontract ENS is AbstractENS {\n    struct Record {\n        address owner;\n        address resolver;\n        uint64 ttl;\n    }\n\n    mapping(bytes32=>Record) records;\n\n    // Permits modifications only by the owner of the specified node.\n    modifier only_owner(bytes32 _node) {\n        require(records[_node].owner == msg.sender);\n        _;\n    }\n\n    /**\n     * Constructs a new ENS registrar.\n     */\n    constructor() public {\n        records[bytes32(0)].owner = msg.sender;\n    }\n\n    /**\n     * Returns the address that owns the specified node.\n     */\n    function owner(bytes32 _node) public view returns (address) {\n        return records[_node].owner;\n    }\n\n    /**\n     * Returns the address of the resolver for the specified node.\n     */\n    function resolver(bytes32 _node) public view returns (address) {\n        return records[_node].resolver;\n    }\n\n    /**\n     * Returns the TTL of a node, and any records associated with it.\n     */\n    function ttl(bytes32 _node) public view returns (uint64) {\n        return records[_node].ttl;\n    }\n\n    /**\n     * Transfers ownership of a node to a new address. May only be called by the current\n     * owner of the node.\n     * @param _node The node to transfer ownership of.\n     * @param _owner The address of the new owner.\n     */\n    function setOwner(bytes32 _node, address _owner) public only_owner(_node) {\n        emit Transfer(_node, _owner);\n        records[_node].owner = _owner;\n    }\n\n    /**\n     * Transfers ownership of a subnode sha3(node, label) to a new address. May only be\n     * called by the owner of the parent node.\n     * @param _node The parent node.\n     * @param _label The hash of the label specifying the subnode.\n     * @param _owner The address of the new owner.\n     */\n    function setSubnodeOwner(bytes32 _node, bytes32 _label, address _owner) public only_owner(_node) {\n        bytes32 subnode = keccak256(abi.encodePacked(_node, _label));\n        emit NewOwner(_node, _label, _owner);\n        records[subnode].owner = _owner;\n    }\n\n    /**\n     * Sets the resolver address for the specified node.\n     * @param _node The node to update.\n     * @param _resolver The address of the resolver.\n     */\n    function setResolver(bytes32 _node, address _resolver) public only_owner(_node) {\n        emit NewResolver(_node, _resolver);\n        records[_node].resolver = _resolver;\n    }\n\n    /**\n     * Sets the TTL for the specified node.\n     * @param _node The node to update.\n     * @param _ttl The TTL in seconds.\n     */\n    function setTTL(bytes32 _node, uint64 _ttl) public only_owner(_node) {\n        emit NewTTL(_node, _ttl);\n        records[_node].ttl = _ttl;\n    }\n}\n",
  "sourcePath": "/home/akru/devel/robonomics_contracts/contracts/ens/ENS.sol",
  "compiler": {
    "name": "solc",
    "version": "0.5.7+commit.6da8b019.Emscripten.clang"
  },
  "schemaVersion": "3.0.2",
  "updatedAt": "2019-04-17T09:48:27.528Z",
  "devdoc": {
    "methods": {
      "setOwner(bytes32,address)": {
        "params": {
          "_node": "The node to transfer ownership of.",
          "_owner": "The address of the new owner."
        }
      },
      "setResolver(bytes32,address)": {
        "params": {
          "_node": "The node to update.",
          "_resolver": "The address of the resolver."
        }
      },
      "setSubnodeOwner(bytes32,bytes32,address)": {
        "params": {
          "_label": "The hash of the label specifying the subnode.",
          "_node": "The parent node.",
          "_owner": "The address of the new owner."
        }
      },
      "setTTL(bytes32,uint64)": {
        "params": {
          "_node": "The node to update.",
          "_ttl": "The TTL in seconds."
        }
      }
    }
  },
  "userdoc": {
    "methods": {
      "constructor": "Constructs a new ENS registrar.",
      "owner(bytes32)": {
        "notice": "Returns the address that owns the specified node."
      },
      "resolver(bytes32)": {
        "notice": "Returns the address of the resolver for the specified node."
      },
      "setOwner(bytes32,address)": {
        "notice": "Transfers ownership of a node to a new address. May only be called by the current owner of the node."
      },
      "setResolver(bytes32,address)": {
        "notice": "Sets the resolver address for the specified node."
      },
      "setSubnodeOwner(bytes32,bytes32,address)": {
        "notice": "Transfers ownership of a subnode sha3(node, label) to a new address. May only be called by the owner of the parent node."
      },
      "setTTL(bytes32,uint64)": {
        "notice": "Sets the TTL for the specified node."
      },
      "ttl(bytes32)": {
        "notice": "Returns the TTL of a node, and any records associated with it."
      }
    },
    "notice": "The ENS registry contract."
  }
}