{
  "contractName": "Factory",
  "abi": [
    {
      "constant": true,
      "inputs": [],
      "name": "gasEpoch",
      "outputs": [
        {
          "name": "",
          "type": "uint256"
        }
      ],
      "payable": false,
      "stateMutability": "view",
      "type": "function"
    },
    {
      "constant": true,
      "inputs": [],
      "name": "xrt",
      "outputs": [
        {
          "name": "",
          "type": "address"
        }
      ],
      "payable": false,
      "stateMutability": "view",
      "type": "function"
    },
    {
      "constant": true,
      "inputs": [],
      "name": "ens",
      "outputs": [
        {
          "name": "",
          "type": "address"
        }
      ],
      "payable": false,
      "stateMutability": "view",
      "type": "function"
    },
    {
      "constant": true,
      "inputs": [],
      "name": "liabilityCode",
      "outputs": [
        {
          "name": "",
          "type": "address"
        }
      ],
      "payable": false,
      "stateMutability": "view",
      "type": "function"
    },
    {
      "constant": true,
      "inputs": [],
      "name": "lighthouseCode",
      "outputs": [
        {
          "name": "",
          "type": "address"
        }
      ],
      "payable": false,
      "stateMutability": "view",
      "type": "function"
    },
    {
      "constant": true,
      "inputs": [],
      "name": "auction",
      "outputs": [
        {
          "name": "",
          "type": "address"
        }
      ],
      "payable": false,
      "stateMutability": "view",
      "type": "function"
    },
    {
      "constant": true,
      "inputs": [
        {
          "name": "",
          "type": "address"
        }
      ],
      "name": "gasConsumedOf",
      "outputs": [
        {
          "name": "",
          "type": "uint256"
        }
      ],
      "payable": false,
      "stateMutability": "view",
      "type": "function"
    },
    {
      "constant": true,
      "inputs": [
        {
          "name": "",
          "type": "address"
        }
      ],
      "name": "isLighthouse",
      "outputs": [
        {
          "name": "",
          "type": "bool"
        }
      ],
      "payable": false,
      "stateMutability": "view",
      "type": "function"
    },
    {
      "constant": true,
      "inputs": [],
      "name": "totalGasConsumed",
      "outputs": [
        {
          "name": "",
          "type": "uint256"
        }
      ],
      "payable": false,
      "stateMutability": "view",
      "type": "function"
    },
    {
      "constant": true,
      "inputs": [
        {
          "name": "",
          "type": "address"
        }
      ],
      "name": "nonceOf",
      "outputs": [
        {
          "name": "",
          "type": "uint256"
        }
      ],
      "payable": false,
      "stateMutability": "view",
      "type": "function"
    },
    {
      "constant": true,
      "inputs": [
        {
          "name": "",
          "type": "bytes32"
        }
      ],
      "name": "isHashConsumed",
      "outputs": [
        {
          "name": "",
          "type": "bool"
        }
      ],
      "payable": false,
      "stateMutability": "view",
      "type": "function"
    },
    {
      "constant": true,
      "inputs": [],
      "name": "gasPrice",
      "outputs": [
        {
          "name": "",
          "type": "uint256"
        }
      ],
      "payable": false,
      "stateMutability": "view",
      "type": "function"
    },
    {
      "inputs": [
        {
          "name": "_liability",
          "type": "address"
        },
        {
          "name": "_lighthouse",
          "type": "address"
        },
        {
          "name": "_auction",
          "type": "address"
        },
        {
          "name": "_ens",
          "type": "address"
        },
        {
          "name": "_xrt",
          "type": "address"
        }
      ],
      "payable": false,
      "stateMutability": "nonpayable",
      "type": "constructor"
    },
    {
      "anonymous": false,
      "inputs": [
        {
          "indexed": true,
          "name": "hash",
          "type": "bytes32"
        }
      ],
      "name": "HashConsumed",
      "type": "event"
    },
    {
      "anonymous": false,
      "inputs": [
        {
          "indexed": true,
          "name": "liability",
          "type": "address"
        }
      ],
      "name": "NewLiability",
      "type": "event"
    },
    {
      "anonymous": false,
      "inputs": [
        {
          "indexed": true,
          "name": "lighthouse",
          "type": "address"
        },
        {
          "indexed": false,
          "name": "name",
          "type": "string"
        }
      ],
      "name": "NewLighthouse",
      "type": "event"
    },
    {
      "constant": true,
      "inputs": [
        {
          "name": "_gas",
          "type": "uint256"
        }
      ],
      "name": "wnFromGas",
      "outputs": [
        {
          "name": "",
          "type": "uint256"
        }
      ],
      "payable": false,
      "stateMutability": "view",
      "type": "function"
    },
    {
      "constant": false,
      "inputs": [
        {
          "name": "_minimalStake",
          "type": "uint256"
        },
        {
          "name": "_timeoutInBlocks",
          "type": "uint256"
        },
        {
          "name": "_name",
          "type": "string"
        }
      ],
      "name": "createLighthouse",
      "outputs": [
        {
          "name": "lighthouse",
          "type": "address"
        }
      ],
      "payable": false,
      "stateMutability": "nonpayable",
      "type": "function"
    },
    {
      "constant": false,
      "inputs": [
        {
          "name": "_demand",
          "type": "bytes"
        },
        {
          "name": "_offer",
          "type": "bytes"
        }
      ],
      "name": "createLiability",
      "outputs": [
        {
          "name": "liability",
          "type": "address"
        }
      ],
      "payable": false,
      "stateMutability": "nonpayable",
      "type": "function"
    },
    {
      "constant": false,
      "inputs": [
        {
          "name": "_liability",
          "type": "address"
        },
        {
          "name": "_gas",
          "type": "uint256"
        }
      ],
      "name": "liabilityCreated",
      "outputs": [
        {
          "name": "",
          "type": "bool"
        }
      ],
      "payable": false,
      "stateMutability": "nonpayable",
      "type": "function"
    },
    {
      "constant": false,
      "inputs": [
        {
          "name": "_liability",
          "type": "address"
        },
        {
          "name": "_gas",
          "type": "uint256"
        }
      ],
      "name": "liabilityFinalized",
      "outputs": [
        {
          "name": "",
          "type": "bool"
        }
      ],
      "payable": false,
      "stateMutability": "nonpayable",
      "type": "function"
    }
  ],
  "bytecode": "0x608060405260006002556402540be40060045534801561001e57600080fd5b5060405160a080611968833981018060405260a081101561003e57600080fd5b50805160208201516040830151606084015160809094015160068054600160a060020a0319908116600160a060020a0396871617909155600780548216948616949094179093556008805484169285169290921790915560098054831694841694909417909355600a8054909116919092161790556118a6806100c26000396000f3fe608060405234801561001057600080fd5b506004361061010f5760003560e060020a90048063a51daf26116100a6578063d8fe925011610075578063d8fe925014610359578063ed2a2d6414610361578063fa3260de14610387578063fe173b97146103a4578063feb67918146103ac5761010f565b8063a51daf2614610214578063bbb6630f14610254578063d2b962f21461027a578063d64d136d1461033c5761010f565b80635afa47c2116100e25780635afa47c2146101d6578063773fb7fd146101de5780637d9f6db5146101e657806399d5bae1146101ee5761010f565b8063284fd42f14610114578063330f95881461012e5780633f15457f146101525780634d5b85f11461015a575b600080fd5b61011c6103d8565b60408051918252519081900360200190f35b6101366103e2565b60408051600160a060020a039092168252519081900360200190f35b6101366103f1565b6101366004803603606081101561017057600080fd5b81359160208101359181019060608101604082013564010000000081111561019757600080fd5b8201836020820111156101a957600080fd5b803590602001918460018302840111640100000000831117156101cb57600080fd5b509092509050610400565b610136610887565b610136610896565b6101366108a5565b61011c6004803603602081101561020457600080fd5b5035600160a060020a03166108b4565b6102406004803603604081101561022a57600080fd5b50600160a060020a0381351690602001356108c6565b604080519115158252519081900360200190f35b6102406004803603602081101561026a57600080fd5b5035600160a060020a03166109c7565b6101366004803603604081101561029057600080fd5b8101906020810181356401000000008111156102ab57600080fd5b8201836020820111156102bd57600080fd5b803590602001918460018302840111640100000000831117156102df57600080fd5b9193909290916020810190356401000000008111156102fd57600080fd5b82018360208201111561030f57600080fd5b8035906020019184600183028401116401000000008311171561033157600080fd5b5090925090506109dc565b61011c6004803603602081101561035257600080fd5b50356114b4565b61011c611629565b61011c6004803603602081101561037757600080fd5b5035600160a060020a031661162f565b6102406004803603602081101561039d57600080fd5b5035611641565b61011c611656565b610240600480360360408110156103c257600080fd5b50600160a060020a03813516906020013561165c565b650327ec1e0c0081565b600a54600160a060020a031681565b600954600160a060020a031681565b6000807f8d6c004b56cbe83bbfd9dcbd8f45d1f76398267bbb130a4629d822abc1994b96600102905060008484604051808383808284376040805193909101839003832060208085018a9052848301829052825180860384018152606086018085528151918301919091206009547f0178b8bf0000000000000000000000000000000000000000000000000000000090925260648701819052935192995092975060009650600160a060020a03929092169450630178b8bf936084808201945090829003018186803b1580156104d557600080fd5b505afa1580156104e9573d6000803e3d6000fd5b505050506040513d60208110156104ff57600080fd5b5051600160a060020a03161461051457600080fd5b60075461052990600160a060020a03166116b8565b600a54604080517f64f6f7b9000000000000000000000000000000000000000000000000000000008152600160a060020a039283166004820152602481018c9052604481018b90529051929650908616916364f6f7b9916064808201926020929091908290030181600087803b1580156105a257600080fd5b505af11580156105b6573d6000803e3d6000fd5b505050506040513d60208110156105cc57600080fd5b505115156105d957600080fd5b83600160a060020a03167ffea5f888ffd98cd2299e704fb235c2166cb5a9d9d8e9debcc08160626b8019a4878760405180806020018281038252848482818152602001925080828437600083820152604051601f909101601f19169092018290039550909350505050a2600160a060020a03808516600090815260208190526040808220805460ff1916600117905560095481517f06ab5923000000000000000000000000000000000000000000000000000000008152600481018890526024810187905230604482015291519316926306ab59239260648084019391929182900301818387803b1580156106cd57600080fd5b505af11580156106e1573d6000803e3d6000fd5b5050600954604080517f0178b8bf00000000000000000000000000000000000000000000000000000000815260048101889052905160009450600160a060020a039092169250630178b8bf916024808301926020929190829003018186803b15801561074c57600080fd5b505afa158015610760573d6000803e3d6000fd5b505050506040513d602081101561077657600080fd5b5051600954604080517f1896f70a00000000000000000000000000000000000000000000000000000000815260048101869052600160a060020a0380851660248301529151939450911691631896f70a9160448082019260009290919082900301818387803b1580156107e857600080fd5b505af11580156107fc573d6000803e3d6000fd5b5050505080600160a060020a031663d5fa2b0083876040518363ffffffff1660e060020a0281526004018083815260200182600160a060020a0316600160a060020a0316815260200192505050600060405180830381600087803b15801561086357600080fd5b505af1158015610877573d6000803e3d6000fd5b5050505050505050949350505050565b600654600160a060020a031681565b600754600160a060020a031681565b600854600160a060020a031681565b60036020526000908152604090205481565b3360009081526020819052604081205460ff1615156108e457600080fd5b6108f06004543a61175b565b6004556002805483019055600160a060020a0380841660009081526003602052604090208054840190819055600a54859216906340c10f19903290610934906114b4565b6040518363ffffffff1660e060020a0281526004018083600160a060020a0316600160a060020a0316815260200182815260200192505050602060405180830381600087803b15801561098657600080fd5b505af115801561099a573d6000803e3d6000fd5b505050506040513d60208110156109b057600080fd5b505115156109bd57600080fd5b5060019392505050565b60006020819052908152604090205460ff1681565b3360009081526020819052604081205460ff1615156109fa57600080fd5b600654610a0f90600160a060020a03166116b8565b600a54604080517f66d38203000000000000000000000000000000000000000000000000000000008152600160a060020a0392831660048201529051929350908316916366d38203916024808201926020929091908290030181600087803b158015610a7a57600080fd5b505af1158015610a8e573d6000803e3d6000fd5b505050506040513d6020811015610aa457600080fd5b50511515610ab157600080fd5b604051600160a060020a038216907ff0f0e2354315aae25080baa26761b4ef52d621c91208fb0edde9e3f3fade321990600090a26040517f48a984e40000000000000000000000000000000000000000000000000000000060208201818152600092606092600160a060020a0386169290918a918a916024018383808284378083019250505093505050506040516020818303038152906040526040518082805190602001908083835b60208310610b7a5780518252601f199092019160209182019101610b5b565b6001836020036101000a0380198251168184511680821785525050505050509050019150506000604051808303816000865af19150503d8060008114610bdc576040519150601f19603f3d011682016040523d82523d6000602084013e610be1565b606091505b5091509150811515610bf257600080fd5b610c6283600160a060020a031663f0476bc56040518163ffffffff1660e060020a02815260040160206040518083038186803b158015610c3157600080fd5b505afa158015610c45573d6000803e3d6000fd5b505050506040513d6020811015610c5b57600080fd5b505161176a565b600180600085600160a060020a031663474ce8726040518163ffffffff1660e060020a02815260040160206040518083038186803b158015610ca357600080fd5b505afa158015610cb7573d6000803e3d6000fd5b505050506040513d6020811015610ccd57600080fd5b5051600160a060020a03908116825260208281019390935260409182016000208054909401909355517f413781d2000000000000000000000000000000000000000000000000000000009181018281529286169288918891906024018383808284378083019250505093505050506040516020818303038152906040526040518082805190602001908083835b60208310610d795780518252601f199092019160209182019101610d5a565b6001836020036101000a0380198251168184511680821785525050505050509050019150506000604051808303816000865af19150503d8060008114610ddb576040519150601f19603f3d011682016040523d82523d6000602084013e610de0565b606091505b509092509050811515610df257600080fd5b610e3183600160a060020a031663699373ca6040518163ffffffff1660e060020a02815260040160206040518083038186803b158015610c3157600080fd5b600180600085600160a060020a031663c2d8de546040518163ffffffff1660e060020a02815260040160206040518083038186803b158015610e7257600080fd5b505afa158015610e86573d6000803e3d6000fd5b505050506040513d6020811015610e9c57600080fd5b5051600160a060020a03908116825260208281019390935260409182016000908120805490950190945581517f6301fd630000000000000000000000000000000000000000000000000000000081529151849391881692636301fd63926004808301939192829003018186803b158015610f1557600080fd5b505afa158015610f29573d6000803e3d6000fd5b505050506040513d6020811015610f3f57600080fd5b5051600160a060020a0316815260208101919091526040016000205460ff161515610f6957600080fd5b600083600160a060020a031663051064c66040518163ffffffff1660e060020a02815260040160206040518083038186803b158015610fa757600080fd5b505afa158015610fbb573d6000803e3d6000fd5b505050506040513d6020811015610fd157600080fd5b505111156110e6576110e683600160a060020a031663c2d8de546040518163ffffffff1660e060020a02815260040160206040518083038186803b15801561101857600080fd5b505afa15801561102c573d6000803e3d6000fd5b505050506040513d602081101561104257600080fd5b5051604080517f051064c600000000000000000000000000000000000000000000000000000000815290513291600160a060020a0388169163051064c691600480820192602092909190829003018186803b1580156110a057600080fd5b505afa1580156110b4573d6000803e3d6000fd5b505050506040513d60208110156110ca57600080fd5b5051600a54600160a060020a031692919063ffffffff6117c916565b600083600160a060020a031663fc0c546a6040518163ffffffff1660e060020a02815260040160206040518083038186803b15801561112457600080fd5b505afa158015611138573d6000803e3d6000fd5b505050506040513d602081101561114e57600080fd5b5051604080517f13faede60000000000000000000000000000000000000000000000000000000081529051919250600091600160a060020a038716916313faede6916004808301926020929190829003018186803b1580156111af57600080fd5b505afa1580156111c3573d6000803e3d6000fd5b505050506040513d60208110156111d957600080fd5b505111156112ec576112ec84600160a060020a031663474ce8726040518163ffffffff1660e060020a02815260040160206040518083038186803b15801561122057600080fd5b505afa158015611234573d6000803e3d6000fd5b505050506040513d602081101561124a57600080fd5b5051604080517f13faede600000000000000000000000000000000000000000000000000000000815290518791600160a060020a038316916313faede691600480820192602092909190829003018186803b1580156112a857600080fd5b505afa1580156112bc573d6000803e3d6000fd5b505050506040513d60208110156112d257600080fd5b5051600160a060020a03851692919063ffffffff6117c916565b6000600160a060020a031684600160a060020a0316633a5381b56040518163ffffffff1660e060020a02815260040160206040518083038186803b15801561133357600080fd5b505afa158015611347573d6000803e3d6000fd5b505050506040513d602081101561135d57600080fd5b5051600160a060020a0316148015906113dd5750600084600160a060020a0316633f6d82566040518163ffffffff1660e060020a02815260040160206040518083038186803b1580156113af57600080fd5b505afa1580156113c3573d6000803e3d6000fd5b505050506040513d60208110156113d957600080fd5b5051115b156114a9576114a984600160a060020a031663474ce8726040518163ffffffff1660e060020a02815260040160206040518083038186803b15801561142157600080fd5b505afa158015611435573d6000803e3d6000fd5b505050506040513d602081101561144b57600080fd5b5051604080517f3f6d825600000000000000000000000000000000000000000000000000000000815290518791600160a060020a03831691633f6d825691600480820192602092909190829003018186803b1580156110a057600080fd5b505050949350505050565b600854604080517fa6b513ee0000000000000000000000000000000000000000000000000000000081529051600092600160a060020a03169163a6b513ee916004808301926020929190829003018186803b15801561151257600080fd5b505afa158015611526573d6000803e3d6000fd5b505050506040513d602081101561153c57600080fd5b5051151561154b575080611624565b600254600854604080517fa6b513ee0000000000000000000000000000000000000000000000000000000081529051650327ec1e0c0090930492600092600160a060020a03169163a6b513ee916004808301926020929190829003018186803b1580156115b757600080fd5b505afa1580156115cb573d6000803e3d6000fd5b505050506040513d60208110156115e157600080fd5b5051600454600384900a908602600285900a02633b9aca000281151561160357fe5b0481151561160d57fe5b04905083811061161d578061161f565b835b925050505b919050565b60025481565b60016020526000908152604090205481565b60056020526000908152604090205460ff1681565b60045481565b3360009081526020819052604081205460ff16151561167a57600080fd5b6116866004543a61175b565b600455506002805482019055600160a060020a0382166000908152600360205260409020805482019055600192915050565b604080517f603160008181600b9039f36000808080803680928037730000000000000000006020808301919091526c01000000000000000000000000600160a060020a0385160260378301527f5af43d828181803e808314603057f35bfd000000000000000000000000000000604b8301528251603c81840381018252605c9093019093526000929190820183f09150813b151561175557600080fd5b50919050565b6103e86103e792909202010490565b60008181526005602052604090205460ff161561178657600080fd5b600081815260056020526040808220805460ff191660011790555182917fff8bad61d8f2eaa50a98cc8d31de285608e5a904d330f193043d6c9854e2586d91a250565b604080517f23b872dd000000000000000000000000000000000000000000000000000000008152600160a060020a0385811660048301528481166024830152604482018490529151918616916323b872dd916064808201926020929091908290030181600087803b15801561183d57600080fd5b505af1158015611851573d6000803e3d6000fd5b505050506040513d602081101561186757600080fd5b5051151561187457600080fd5b5050505056fea165627a7a723058200632e7564c95419ff20480001efeff29d2edb17f6cce46cfb9cd56ea7e0db6af0029",
  "source": "pragma solidity ^0.5.0;\n\nimport 'openzeppelin-solidity/contracts/token/ERC20/SafeERC20.sol';\n\nimport '../ens/AbstractENS.sol';\nimport '../ens/AbstractResolver.sol';\nimport '../misc/SingletonHash.sol';\nimport '../misc/DutchAuction.sol';\nimport '../misc/SharedCode.sol';\n\nimport './interface/IFactory.sol';\n\nimport './Lighthouse.sol';\nimport './Liability.sol';\nimport './XRT.sol';\n\ncontract Factory is IFactory, SingletonHash {\n    constructor(\n        address _liability,\n        address _lighthouse,\n        DutchAuction _auction,\n        AbstractENS _ens,\n        XRT _xrt\n    ) public {\n        liabilityCode = _liability;\n        lighthouseCode = _lighthouse;\n        auction = _auction;\n        ens = _ens;\n        xrt = _xrt;\n    }\n\n    address public liabilityCode;\n    address public lighthouseCode;\n\n    using SafeERC20 for XRT;\n    using SafeERC20 for ERC20;\n    using SharedCode for address;\n\n    /**\n     * @dev Robonomics dutch auction contract\n     */\n    DutchAuction public auction;\n\n    /**\n     * @dev Ethereum name system\n     */\n    AbstractENS public ens;\n\n    /**\n     * @dev Robonomics network protocol token\n     */\n    XRT public xrt;\n\n    /**\n     * @dev SMMA filter with function: SMMA(i) = (SMMA(i-1)*(n-1) + PRICE(i)) / n\n     * @param _prePrice PRICE[n-1]\n     * @param _price PRICE[n]\n     * @return filtered price\n     */\n    function smma(uint256 _prePrice, uint256 _price) internal pure returns (uint256) {\n        return (_prePrice * (smmaPeriod - 1) + _price) / smmaPeriod;\n    }\n\n    /**\n     * @dev SMMA filter period\n     */\n    uint256 private constant smmaPeriod = 1000;\n\n    /**\n     * @dev XRT emission value for utilized gas\n     */\n    function wnFromGas(uint256 _gas) public view returns (uint256) {\n        // Just return wn=gas when auction isn't finish\n        if (auction.finalPrice() == 0)\n            return _gas;\n\n        // Current gas utilization epoch\n        uint256 epoch = totalGasConsumed / gasEpoch;\n\n        // XRT emission with addition coefficient by gas utilzation epoch\n        uint256 wn = _gas * 10**9 * gasPrice * 2**epoch / 3**epoch / auction.finalPrice();\n\n        // Check to not permit emission decrease below wn=gas\n        return wn < _gas ? _gas : wn;\n    }\n\n    modifier onlyLighthouse {\n        require(isLighthouse[msg.sender]);\n\n        _;\n    }\n\n    modifier gasPriceEstimate {\n        gasPrice = smma(gasPrice, tx.gasprice);\n\n        _;\n    }\n\n    function createLighthouse(\n        uint256 _minimalStake,\n        uint256 _timeoutInBlocks,\n        string  calldata _name\n    )\n        external\n        returns (ILighthouse lighthouse)\n    {\n        bytes32 LIGHTHOUSE_NODE\n            // lighthouse.5.robonomics.eth\n            = 0x8d6c004b56cbe83bbfd9dcbd8f45d1f76398267bbb130a4629d822abc1994b96;\n        bytes32 hname = keccak256(bytes(_name));\n\n        // Name reservation check\n        bytes32 subnode = keccak256(abi.encodePacked(LIGHTHOUSE_NODE, hname));\n        require(ens.resolver(subnode) == address(0));\n\n        // Create lighthouse\n        lighthouse = ILighthouse(lighthouseCode.proxy());\n        require(Lighthouse(address(lighthouse)).setup(xrt, _minimalStake, _timeoutInBlocks));\n\n        emit NewLighthouse(address(lighthouse), _name);\n        isLighthouse[address(lighthouse)] = true;\n\n        // Register subnode\n        ens.setSubnodeOwner(LIGHTHOUSE_NODE, hname, address(this));\n\n        // Register lighthouse address\n        AbstractResolver resolver = AbstractResolver(ens.resolver(LIGHTHOUSE_NODE));\n        ens.setResolver(subnode, address(resolver));\n        resolver.setAddr(subnode, address(lighthouse));\n    }\n\n    function createLiability(\n        bytes calldata _demand,\n        bytes calldata _offer\n    )\n        external\n        onlyLighthouse\n        returns (ILiability liability)\n    {\n        // Create liability\n        liability = ILiability(liabilityCode.proxy());\n        require(Liability(address(liability)).setup(xrt));\n\n        emit NewLiability(address(liability));\n\n        // Parse messages\n        (bool success, bytes memory returnData)\n            = address(liability).call(abi.encodePacked(bytes4(0x48a984e4), _demand)); // liability.demand(...)\n        require(success);\n        singletonHash(liability.demandHash());\n        nonceOf[liability.promisee()] += 1;\n\n        (success, returnData)\n            = address(liability).call(abi.encodePacked(bytes4(0x413781d2), _offer)); // liability.offer(...)\n        require(success);\n        singletonHash(liability.offerHash());\n        nonceOf[liability.promisor()] += 1;\n\n        // Check lighthouse\n        require(isLighthouse[liability.lighthouse()]);\n\n        // Transfer lighthouse fee to lighthouse worker directly\n        if (liability.lighthouseFee() > 0)\n            xrt.safeTransferFrom(liability.promisor(),\n                                 tx.origin,\n                                 liability.lighthouseFee());\n\n        // Transfer liability security and hold on contract\n        ERC20 token = ERC20(liability.token());\n        if (liability.cost() > 0)\n            token.safeTransferFrom(liability.promisee(),\n                                   address(liability),\n                                   liability.cost());\n\n        // Transfer validator fee and hold on contract\n        if (liability.validator() != address(0) && liability.validatorFee() > 0)\n            xrt.safeTransferFrom(liability.promisee(),\n                                 address(liability),\n                                 liability.validatorFee());\n     }\n\n    function liabilityCreated(\n        ILiability _liability,\n        uint256 _gas\n    )\n        external\n        onlyLighthouse\n        gasPriceEstimate\n        returns (bool)\n    {\n        address liability = address(_liability);\n        totalGasConsumed         += _gas;\n        gasConsumedOf[liability] += _gas;\n        return true;\n    }\n\n    function liabilityFinalized(\n        ILiability _liability,\n        uint256 _gas\n    )\n        external\n        onlyLighthouse\n        gasPriceEstimate\n        returns (bool)\n    {\n        address liability = address(_liability);\n        totalGasConsumed         += _gas;\n        gasConsumedOf[liability] += _gas;\n        require(xrt.mint(tx.origin, wnFromGas(gasConsumedOf[liability])));\n        return true;\n    }\n}\n",
  "sourcePath": "/home/akru/devel/robonomics_contracts/contracts/robonomics/Factory.sol",
  "compiler": {
    "name": "solc",
    "version": "0.5.4+commit.9549d8ff.Emscripten.clang"
  },
  "schemaVersion": "3.0.2",
  "updatedAt": "2019-04-09T11:23:30.270Z",
  "devdoc": {
    "methods": {
      "wnFromGas(uint256)": {
        "details": "XRT emission value for utilized gas"
      }
    }
  },
  "userdoc": {
    "methods": {}
  }
}