{
  "contractName": "KycAmbix",
  "abi": [
    {
      "constant": false,
      "inputs": [
        {
          "name": "_b",
          "type": "address[]"
        },
        {
          "name": "_m",
          "type": "uint256[]"
        }
      ],
      "name": "setSink",
      "outputs": [],
      "payable": false,
      "stateMutability": "nonpayable",
      "type": "function"
    },
    {
      "constant": false,
      "inputs": [
        {
          "name": "_a",
          "type": "address[]"
        },
        {
          "name": "_n",
          "type": "uint256[]"
        }
      ],
      "name": "appendSource",
      "outputs": [],
      "payable": false,
      "stateMutability": "nonpayable",
      "type": "function"
    },
    {
      "constant": false,
      "inputs": [],
      "name": "renounceOwnership",
      "outputs": [],
      "payable": false,
      "stateMutability": "nonpayable",
      "type": "function"
    },
    {
      "constant": true,
      "inputs": [
        {
          "name": "account",
          "type": "address"
        }
      ],
      "name": "isSigner",
      "outputs": [
        {
          "name": "",
          "type": "bool"
        }
      ],
      "payable": false,
      "stateMutability": "view",
      "type": "function"
    },
    {
      "constant": true,
      "inputs": [
        {
          "name": "",
          "type": "uint256"
        },
        {
          "name": "",
          "type": "uint256"
        }
      ],
      "name": "A",
      "outputs": [
        {
          "name": "",
          "type": "address"
        }
      ],
      "payable": false,
      "stateMutability": "view",
      "type": "function"
    },
    {
      "constant": true,
      "inputs": [],
      "name": "owner",
      "outputs": [
        {
          "name": "",
          "type": "address"
        }
      ],
      "payable": false,
      "stateMutability": "view",
      "type": "function"
    },
    {
      "constant": true,
      "inputs": [],
      "name": "isOwner",
      "outputs": [
        {
          "name": "",
          "type": "bool"
        }
      ],
      "payable": false,
      "stateMutability": "view",
      "type": "function"
    },
    {
      "constant": true,
      "inputs": [
        {
          "name": "",
          "type": "uint256"
        }
      ],
      "name": "M",
      "outputs": [
        {
          "name": "",
          "type": "uint256"
        }
      ],
      "payable": false,
      "stateMutability": "view",
      "type": "function"
    },
    {
      "constant": true,
      "inputs": [
        {
          "name": "",
          "type": "uint256"
        }
      ],
      "name": "B",
      "outputs": [
        {
          "name": "",
          "type": "address"
        }
      ],
      "payable": false,
      "stateMutability": "view",
      "type": "function"
    },
    {
      "constant": false,
      "inputs": [],
      "name": "renounceSigner",
      "outputs": [],
      "payable": false,
      "stateMutability": "nonpayable",
      "type": "function"
    },
    {
      "constant": false,
      "inputs": [
        {
          "name": "account",
          "type": "address"
        }
      ],
      "name": "addSigner",
      "outputs": [],
      "payable": false,
      "stateMutability": "nonpayable",
      "type": "function"
    },
    {
      "constant": false,
      "inputs": [
        {
          "name": "newOwner",
          "type": "address"
        }
      ],
      "name": "transferOwnership",
      "outputs": [],
      "payable": false,
      "stateMutability": "nonpayable",
      "type": "function"
    },
    {
      "constant": true,
      "inputs": [
        {
          "name": "",
          "type": "uint256"
        },
        {
          "name": "",
          "type": "uint256"
        }
      ],
      "name": "N",
      "outputs": [
        {
          "name": "",
          "type": "uint256"
        }
      ],
      "payable": false,
      "stateMutability": "view",
      "type": "function"
    },
    {
      "anonymous": false,
      "inputs": [
        {
          "indexed": true,
          "name": "account",
          "type": "address"
        }
      ],
      "name": "SignerAdded",
      "type": "event"
    },
    {
      "anonymous": false,
      "inputs": [
        {
          "indexed": true,
          "name": "account",
          "type": "address"
        }
      ],
      "name": "SignerRemoved",
      "type": "event"
    },
    {
      "anonymous": false,
      "inputs": [
        {
          "indexed": true,
          "name": "previousOwner",
          "type": "address"
        },
        {
          "indexed": true,
          "name": "newOwner",
          "type": "address"
        }
      ],
      "name": "OwnershipTransferred",
      "type": "event"
    },
    {
      "constant": false,
      "inputs": [
        {
          "name": "_ix",
          "type": "uint256"
        },
        {
          "name": "_signature",
          "type": "bytes"
        }
      ],
      "name": "run",
      "outputs": [],
      "payable": false,
      "stateMutability": "nonpayable",
      "type": "function"
    }
  ],
  "bytecode": "0x6080604081905260008054600160a060020a0319163317808255600160a060020a0316917f8be0079c531659141344cd1fd0a4f28419497f9722a3daafe3b4186f6b6457e0908290a361005a3364010000000061005f810204565b61013c565b6100776005826401000000006110eb6100ae82021704565b604051600160a060020a038216907f47d1c22a25bb3a5d4e481b9b1e6944c2eade3181a0a20b495ed61d35b5323f2490600090a250565b600160a060020a03811615156100c357600080fd5b6100d68282640100000000610105810204565b156100e057600080fd5b600160a060020a0316600090815260209190915260409020805460ff19166001179055565b6000600160a060020a038216151561011c57600080fd5b50600160a060020a03166000908152602091909152604090205460ff1690565b61138e8061014b6000396000f3fe608060405234801561001057600080fd5b50600436106100ee5760003560e060020a900480638f32d59b11610090578063e5c8b03d1161006a578063e5c8b03d146103cd578063eb12d61e146103d5578063f2fde38b146103fb578063fdbacf5a14610421576100ee565b80638f32d59b14610379578063d6c8552914610381578063dac0eb07146103b0576100ee565b8063715018a6116100cc578063715018a6146102f05780637df73e27146102f857806383f86eb2146103325780638da5cb5b14610371576100ee565b8063220eb9b6146100f35780634898722d1461016c57806355c0a5f41461022e575b600080fd5b61016a6004803603604081101561010957600080fd5b8135919081019060408101602082013564010000000081111561012b57600080fd5b82018360208201111561013d57600080fd5b8035906020019184600183028401116401000000008311171561015f57600080fd5b509092509050610444565b005b61016a6004803603604081101561018257600080fd5b81019060208101813564010000000081111561019d57600080fd5b8201836020820111156101af57600080fd5b803590602001918460208302840111640100000000831117156101d157600080fd5b9193909290916020810190356401000000008111156101ef57600080fd5b82018360208201111561020157600080fd5b8035906020019184602083028401116401000000008311171561022357600080fd5b5090925090506104a1565b61016a6004803603604081101561024457600080fd5b81019060208101813564010000000081111561025f57600080fd5b82018360208201111561027157600080fd5b8035906020019184602083028401116401000000008311171561029357600080fd5b9193909290916020810190356401000000008111156102b157600080fd5b8201836020820111156102c357600080fd5b803590602001918460208302840111640100000000831117156102e557600080fd5b509092509050610528565b61016a610696565b61031e6004803603602081101561030e57600080fd5b5035600160a060020a0316610700565b604080519115158252519081900360200190f35b6103556004803603604081101561034857600080fd5b5080359060200135610719565b60408051600160a060020a039092168252519081900360200190f35b61035561075a565b61031e61076a565b61039e6004803603602081101561039757600080fd5b503561077b565b60408051918252519081900360200190f35b610355600480360360208110156103c657600080fd5b503561079a565b61016a6107c2565b61016a600480360360208110156103eb57600080fd5b5035600160a060020a03166107cd565b61016a6004803603602081101561041157600080fd5b5035600160a060020a03166107ed565b61039e6004803603604081101561043757600080fd5b5080359060200135610809565b81818080601f0160208091040260200160405190810160405280939291908181526020018383808284376000920191909152506104879250339150839050610843565b151561049257600080fd5b61049b8461089e565b50505050565b6104a961076a565b15156104b457600080fd5b8281146104c057600080fd5b60005b838110156105075760008585838181106104d957fe5b90506020020135600160a060020a0316600160a060020a0316141515156104ff57600080fd5b6001016104c3565b5061051460038585611260565b50610521600483836112d0565b5050505050565b61053061076a565b151561053b57600080fd5b6000838214801561054c5750600084115b151561055757600080fd5b5060005b8381101561059f57600085858381811061057157fe5b90506020020135600160a060020a0316600160a060020a03161415151561059757600080fd5b60010161055b565b6001821480156105c25750828260008181106105b757fe5b905060200201356000145b156105db576003546001146105d657600080fd5b610610565b5060005b818110156106105760008383838181106105f557fe5b9050602002013511151561060857600080fd5b6001016105df565b6001805480820180835560009290925261064d907fb10e2d527612073b26eecdfd717e6a320cf44b4afac2b0732d9fcbe2b7fa0cf6018787611260565b5050600280546001810180835560009290925261068d907f405787fa12a823e0f2b7631cc41b3ba8828b3321ca811111fa75cd3aa3bb5ace0185856112d0565b50505050505050565b61069e61076a565b15156106a957600080fd5b60008054604051600160a060020a03909116907f8be0079c531659141344cd1fd0a4f28419497f9722a3daafe3b4186f6b6457e0908390a36000805473ffffffffffffffffffffffffffffffffffffffff19169055565b600061071360058363ffffffff610e7a16565b92915050565b600180548390811061072757fe5b906000526020600020018181548110151561073e57fe5b600091825260209091200154600160a060020a03169150829050565b600054600160a060020a03165b90565b600054600160a060020a0316331490565b600480548290811061078957fe5b600091825260209091200154905081565b60038054829081106107a857fe5b600091825260209091200154600160a060020a0316905081565b6107cb33610eb1565b565b6107d633610700565b15156107e157600080fd5b6107ea81610ef9565b50565b6107f561076a565b151561080057600080fd5b6107ea81610f41565b600280548390811061081757fe5b906000526020600020018181548110151561082e57fe5b90600052602060002001600091509150505481565b604080516c01000000000000000000000000308102602080840191909152600160a060020a038616909102603483015282516028818403018152604890920190925280519101206000906108979083610fbe565b9392505050565b60015481106108ac57600080fd5b6000806002838154811015156108be57fe5b9060005260206000200160008154811015156108d657fe5b90600052602060002001541115610b6b5760006002838154811015156108f857fe5b90600052602060002001600081548110151561091057fe5b906000526020600020015460018481548110151561092a57fe5b90600052602060002001600081548110151561094257fe5b60009182526020918290200154604080517fdd62ed3e0000000000000000000000000000000000000000000000000000000081523360048201523060248201529051600160a060020a039092169263dd62ed3e92604480840193829003018186803b1580156109b057600080fd5b505afa1580156109c4573d6000803e3d6000fd5b505050506040513d60208110156109da57600080fd5b50518115156109e557fe5b049050600081116109f557600080fd5b600091505b6001805484908110610a0857fe5b600091825260209091200154821015610afa576001805484908110610a2957fe5b9060005260206000200182815481101515610a4057fe5b60009182526020909120015460028054600160a060020a03909216916379cc679091339187908110610a6e57fe5b9060005260206000200185815481101515610a8557fe5b60009182526020822001546040805160e060020a63ffffffff8716028152600160a060020a03909416600485015290860260248401525160448084019382900301818387803b158015610ad757600080fd5b505af1158015610aeb573d6000803e3d6000fd5b505050508160010191506109fa565b600091505b600354821015610b6557610b5a3382600485815481101515610b1d57fe5b906000526020600020015402600385815481101515610b3857fe5b600091825260209091200154600160a060020a0316919063ffffffff61100016565b816001019150610aff565b50610e76565b6001805483908110610b7957fe5b6000918252602090912001546001148015610b9657506003546001145b1515610ba157600080fd5b6000600183815481101515610bb257fe5b906000526020600020016000815481101515610bca57fe5b600091825260208220015460038054600160a060020a0390921693509082908110610bf157fe5b9060005260206000200160009054906101000a9004600160a060020a03169050600082600160a060020a03166318160ddd6040518163ffffffff1660e060020a02815260040160206040518083038186803b158015610c4f57600080fd5b505afa158015610c63573d6000803e3d6000fd5b505050506040513d6020811015610c7957600080fd5b5051604080517f70a082310000000000000000000000000000000000000000000000000000000081523060048201529051600160a060020a038516916370a08231916024808301926020929190829003018186803b158015610cda57600080fd5b505afa158015610cee573d6000803e3d6000fd5b505050506040513d6020811015610d0457600080fd5b5051670de0b6b3a764000002811515610d1957fe5b604080517fdd62ed3e0000000000000000000000000000000000000000000000000000000081523360048201523060248201529051929091049250600091600160a060020a0386169163dd62ed3e916044808301926020929190829003018186803b158015610d8757600080fd5b505afa158015610d9b573d6000803e3d6000fd5b505050506040513d6020811015610db157600080fd5b5051905060008111610dc257600080fd5b604080517f79cc6790000000000000000000000000000000000000000000000000000000008152336004820152602481018390529051600160a060020a038616916379cc679091604480830192600092919082900301818387803b158015610e2957600080fd5b505af1158015610e3d573d6000803e3d6000fd5b5050670de0b6b3a76400008385020491505060008111610e5c57600080fd5b61068d600160a060020a038516338363ffffffff61100016565b5050565b6000600160a060020a0382161515610e9157600080fd5b50600160a060020a03166000908152602091909152604090205460ff1690565b610ec260058263ffffffff61109f16565b604051600160a060020a038216907f3525e22824a8a7df2c9a6029941c824cf95b6447f1e13d5128fd3826d35afe8b90600090a250565b610f0a60058263ffffffff6110eb16565b604051600160a060020a038216907f47d1c22a25bb3a5d4e481b9b1e6944c2eade3181a0a20b495ed61d35b5323f2490600090a250565b600160a060020a0381161515610f5657600080fd5b60008054604051600160a060020a03808516939216917f8be0079c531659141344cd1fd0a4f28419497f9722a3daafe3b4186f6b6457e091a36000805473ffffffffffffffffffffffffffffffffffffffff1916600160a060020a0392909216919091179055565b600080610fda83610fce86611139565b9063ffffffff61118a16565b9050600160a060020a03811615801590610ff85750610ff881610700565b949350505050565b82600160a060020a031663a9059cbb83836040518363ffffffff1660e060020a0281526004018083600160a060020a0316600160a060020a0316815260200182815260200192505050602060405180830381600087803b15801561106357600080fd5b505af1158015611077573d6000803e3d6000fd5b505050506040513d602081101561108d57600080fd5b5051151561109a57600080fd5b505050565b600160a060020a03811615156110b457600080fd5b6110be8282610e7a565b15156110c957600080fd5b600160a060020a0316600090815260209190915260409020805460ff19169055565b600160a060020a038116151561110057600080fd5b61110a8282610e7a565b1561111457600080fd5b600160a060020a0316600090815260209190915260409020805460ff19166001179055565b604080517f19457468657265756d205369676e6564204d6573736167653a0a333200000000602080830191909152603c8083019490945282518083039094018452605c909101909152815191012090565b600080600080845160411415156111a75760009350505050610713565b50505060208201516040830151606084015160001a601b60ff821610156111cc57601b015b8060ff16601b141580156111e457508060ff16601c14155b156111f55760009350505050610713565b6040805160008152602080820180845289905260ff8416828401526060820186905260808201859052915160019260a0808401939192601f1981019281900390910190855afa15801561124c573d6000803e3d6000fd5b505050602060405103519350505050610713565b8280548282559060005260206000209081019282156112c0579160200282015b828111156112c057815473ffffffffffffffffffffffffffffffffffffffff1916600160a060020a03843516178255602090920191600190910190611280565b506112cc929150611317565b5090565b82805482825590600052602060002090810192821561130b579160200282015b8281111561130b5782358255916020019190600101906112f0565b506112cc929150611348565b61076791905b808211156112cc57805473ffffffffffffffffffffffffffffffffffffffff1916815560010161131d565b61076791905b808211156112cc576000815560010161134e56fea165627a7a723058204e6d72195dce3bb0b11e55175dcab72417b688c2b4f4d3a9eecd3dd1a268dea20029",
  "source": "pragma solidity ^0.5.0;\n\nimport 'openzeppelin-solidity/contracts/drafts/SignatureBouncer.sol';\n\nimport './AbstractAmbix.sol';\n\ncontract KycAmbix is AbstractAmbix, SignatureBouncer {\n    /**\n     * @dev Run distillation process\n     * @param _ix Source alternative index\n     * @param _signature KYC indulgence (KYC signature of concatenated sender and contract address)\n     */\n    function run(uint256 _ix, bytes calldata _signature) external onlyValidSignature(_signature)\n    { _run(_ix); }\n}\n",
  "sourcePath": "/home/akru/devel/robonomics_contracts/contracts/misc/KycAmbix.sol",
  "compiler": {
    "name": "solc",
    "version": "0.5.4+commit.9549d8ff.Emscripten.clang"
  },
  "schemaVersion": "3.0.2",
  "updatedAt": "2019-04-01T11:43:52.994Z",
  "devdoc": {
    "methods": {
      "appendSource(address[],uint256[])": {
        "details": "Append token recipe source alternative",
        "params": {
          "_a": "Token recipe source token addresses",
          "_n": "Token recipe source token counts*"
        }
      },
      "isOwner()": {
        "return": "true if `msg.sender` is the owner of the contract."
      },
      "owner()": {
        "return": "the address of the owner."
      },
      "renounceOwnership()": {
        "details": "Allows the current owner to relinquish control of the contract."
      },
      "run(uint256,bytes)": {
        "details": "Run distillation process",
        "params": {
          "_ix": "Source alternative index",
          "_signature": "KYC indulgence (KYC signature of concatenated sender and contract address)"
        }
      },
      "setSink(address[],uint256[])": {
        "details": "Set sink of token recipe",
        "params": {
          "_b": "Token recipe sink token list",
          "_m": "Token recipe sink token counts"
        }
      },
      "transferOwnership(address)": {
        "details": "Allows the current owner to transfer control of the contract to a newOwner.",
        "params": {
          "newOwner": "The address to transfer ownership to."
        }
      }
    }
  },
  "userdoc": {
    "methods": {
      "renounceOwnership()": {
        "notice": "Renouncing to ownership will leave the contract without an owner. It will not be possible to call the functions with the `onlyOwner` modifier anymore."
      }
    }
  }
}