{
  "contractName": "KycAmbix",
  "abi": [
    {
      "constant": false,
      "inputs": [
        {
          "name": "_b",
          "type": "address[]"
        },
        {
          "name": "_m",
          "type": "uint256[]"
        }
      ],
      "name": "setSink",
      "outputs": [],
      "payable": false,
      "stateMutability": "nonpayable",
      "type": "function"
    },
    {
      "constant": false,
      "inputs": [
        {
          "name": "_a",
          "type": "address[]"
        },
        {
          "name": "_n",
          "type": "uint256[]"
        }
      ],
      "name": "appendSource",
      "outputs": [],
      "payable": false,
      "stateMutability": "nonpayable",
      "type": "function"
    },
    {
      "constant": false,
      "inputs": [],
      "name": "renounceOwnership",
      "outputs": [],
      "payable": false,
      "stateMutability": "nonpayable",
      "type": "function"
    },
    {
      "constant": true,
      "inputs": [
        {
          "name": "account",
          "type": "address"
        }
      ],
      "name": "isSigner",
      "outputs": [
        {
          "name": "",
          "type": "bool"
        }
      ],
      "payable": false,
      "stateMutability": "view",
      "type": "function"
    },
    {
      "constant": true,
      "inputs": [
        {
          "name": "",
          "type": "uint256"
        },
        {
          "name": "",
          "type": "uint256"
        }
      ],
      "name": "A",
      "outputs": [
        {
          "name": "",
          "type": "address"
        }
      ],
      "payable": false,
      "stateMutability": "view",
      "type": "function"
    },
    {
      "constant": true,
      "inputs": [],
      "name": "owner",
      "outputs": [
        {
          "name": "",
          "type": "address"
        }
      ],
      "payable": false,
      "stateMutability": "view",
      "type": "function"
    },
    {
      "constant": true,
      "inputs": [],
      "name": "isOwner",
      "outputs": [
        {
          "name": "",
          "type": "bool"
        }
      ],
      "payable": false,
      "stateMutability": "view",
      "type": "function"
    },
    {
      "constant": true,
      "inputs": [
        {
          "name": "",
          "type": "uint256"
        }
      ],
      "name": "M",
      "outputs": [
        {
          "name": "",
          "type": "uint256"
        }
      ],
      "payable": false,
      "stateMutability": "view",
      "type": "function"
    },
    {
      "constant": true,
      "inputs": [
        {
          "name": "",
          "type": "uint256"
        }
      ],
      "name": "B",
      "outputs": [
        {
          "name": "",
          "type": "address"
        }
      ],
      "payable": false,
      "stateMutability": "view",
      "type": "function"
    },
    {
      "constant": false,
      "inputs": [],
      "name": "renounceSigner",
      "outputs": [],
      "payable": false,
      "stateMutability": "nonpayable",
      "type": "function"
    },
    {
      "constant": false,
      "inputs": [
        {
          "name": "account",
          "type": "address"
        }
      ],
      "name": "addSigner",
      "outputs": [],
      "payable": false,
      "stateMutability": "nonpayable",
      "type": "function"
    },
    {
      "constant": false,
      "inputs": [
        {
          "name": "newOwner",
          "type": "address"
        }
      ],
      "name": "transferOwnership",
      "outputs": [],
      "payable": false,
      "stateMutability": "nonpayable",
      "type": "function"
    },
    {
      "constant": true,
      "inputs": [
        {
          "name": "",
          "type": "uint256"
        },
        {
          "name": "",
          "type": "uint256"
        }
      ],
      "name": "N",
      "outputs": [
        {
          "name": "",
          "type": "uint256"
        }
      ],
      "payable": false,
      "stateMutability": "view",
      "type": "function"
    },
    {
      "anonymous": false,
      "inputs": [
        {
          "indexed": true,
          "name": "account",
          "type": "address"
        }
      ],
      "name": "SignerAdded",
      "type": "event"
    },
    {
      "anonymous": false,
      "inputs": [
        {
          "indexed": true,
          "name": "account",
          "type": "address"
        }
      ],
      "name": "SignerRemoved",
      "type": "event"
    },
    {
      "anonymous": false,
      "inputs": [
        {
          "indexed": true,
          "name": "previousOwner",
          "type": "address"
        },
        {
          "indexed": true,
          "name": "newOwner",
          "type": "address"
        }
      ],
      "name": "OwnershipTransferred",
      "type": "event"
    },
    {
      "constant": false,
      "inputs": [
        {
          "name": "_ix",
          "type": "uint256"
        },
        {
          "name": "_signature",
          "type": "bytes"
        }
      ],
      "name": "run",
      "outputs": [],
      "payable": false,
      "stateMutability": "nonpayable",
      "type": "function"
    }
  ],
  "bytecode": "0x60806040819052600080546001600160a01b03191633178082556001600160a01b0316917f8be0079c531659141344cd1fd0a4f28419497f9722a3daafe3b4186f6b6457e0908290a36100573361005c60201b60201c565b610132565b6100748160056100ab60201b6110141790919060201c565b6040516001600160a01b038216907f47d1c22a25bb3a5d4e481b9b1e6944c2eade3181a0a20b495ed61d35b5323f2490600090a250565b6001600160a01b0381166100be57600080fd5b6100ce82826100fd60201b60201c565b156100d857600080fd5b6001600160a01b0316600090815260209190915260409020805460ff19166001179055565b60006001600160a01b03821661011257600080fd5b506001600160a01b03166000908152602091909152604090205460ff1690565b611296806101416000396000f3fe608060405234801561001057600080fd5b50600436106100ea5760003560e01c80638f32d59b1161008c578063e5c8b03d11610066578063e5c8b03d146103bf578063eb12d61e146103c7578063f2fde38b146103ed578063fdbacf5a14610413576100ea565b80638f32d59b1461036b578063d6c8552914610373578063dac0eb07146103a2576100ea565b8063715018a6116100c8578063715018a6146102e25780637df73e27146102ea57806383f86eb2146103245780638da5cb5b14610363576100ea565b8063220eb9b6146100ef5780634898722d1461016657806355c0a5f414610224575b600080fd5b6101646004803603604081101561010557600080fd5b81359190810190604081016020820135600160201b81111561012657600080fd5b82018360208201111561013857600080fd5b803590602001918460018302840111600160201b8311171561015957600080fd5b509092509050610436565b005b6101646004803603604081101561017c57600080fd5b810190602081018135600160201b81111561019657600080fd5b8201836020820111156101a857600080fd5b803590602001918460208302840111600160201b831117156101c957600080fd5b919390929091602081019035600160201b8111156101e657600080fd5b8201836020820111156101f857600080fd5b803590602001918460208302840111600160201b8311171561021957600080fd5b509092509050610491565b6101646004803603604081101561023a57600080fd5b810190602081018135600160201b81111561025457600080fd5b82018360208201111561026657600080fd5b803590602001918460208302840111600160201b8311171561028757600080fd5b919390929091602081019035600160201b8111156102a457600080fd5b8201836020820111156102b657600080fd5b803590602001918460208302840111600160201b831117156102d757600080fd5b509092509050610514565b610164610679565b6103106004803603602081101561030057600080fd5b50356001600160a01b03166106d4565b604080519115158252519081900360200190f35b6103476004803603604081101561033a57600080fd5b50803590602001356106ed565b604080516001600160a01b039092168252519081900360200190f35b61034761072b565b61031061073b565b6103906004803603602081101561038957600080fd5b503561074c565b60408051918252519081900360200190f35b610347600480360360208110156103b857600080fd5b503561076a565b610164610791565b610164600480360360208110156103dd57600080fd5b50356001600160a01b031661079c565b6101646004803603602081101561040357600080fd5b50356001600160a01b03166107ba565b6103906004803603604081101561042957600080fd5b50803590602001356107d4565b81818080601f016020809104026020016040519081016040528093929190818152602001838380828437600092019190915250610479925033915083905061080b565b61048257600080fd5b61048b8461085b565b50505050565b61049961073b565b6104a257600080fd5b8281146104ae57600080fd5b60005b838110156104f35760008585838181106104c757fe5b905060200201356001600160a01b03166001600160a01b031614156104eb57600080fd5b6001016104b1565b5061050060038585611182565b5061050d600483836111e5565b5050505050565b61051c61073b565b61052557600080fd5b6000838214801561053557508315155b61053e57600080fd5b5060005b8381101561058457600085858381811061055857fe5b905060200201356001600160a01b03166001600160a01b0316141561057c57600080fd5b600101610542565b6001821480156105a757508282600081811061059c57fe5b905060200201356000145b156105c0576003546001146105bb57600080fd5b6105f3565b5060005b818110156105f35760008383838181106105da57fe5b90506020020135116105eb57600080fd5b6001016105c4565b60018054808201808355600092909252610630907fb10e2d527612073b26eecdfd717e6a320cf44b4afac2b0732d9fcbe2b7fa0cf6018787611182565b50506002805460018101808355600092909252610670907f405787fa12a823e0f2b7631cc41b3ba8828b3321ca811111fa75cd3aa3bb5ace0185856111e5565b50505050505050565b61068161073b565b61068a57600080fd5b600080546040516001600160a01b03909116907f8be0079c531659141344cd1fd0a4f28419497f9722a3daafe3b4186f6b6457e0908390a3600080546001600160a01b0319169055565b60006106e760058363ffffffff610dbd16565b92915050565b600182815481106106fa57fe5b90600052602060002001818154811061070f57fe5b6000918252602090912001546001600160a01b03169150829050565b6000546001600160a01b03165b90565b6000546001600160a01b0316331490565b6004818154811061075957fe5b600091825260209091200154905081565b6003818154811061077757fe5b6000918252602090912001546001600160a01b0316905081565b61079a33610df2565b565b6107a5336106d4565b6107ae57600080fd5b6107b781610e3a565b50565b6107c261073b565b6107cb57600080fd5b6107b781610e82565b600282815481106107e157fe5b9060005260206000200181815481106107f657fe5b90600052602060002001600091509150505481565b6040805130606090811b6020808401919091526001600160a01b03861690911b603483015282516028818403018152604890920190925280519101206000906108549083610ef0565b9392505050565b600154811061086957600080fd5b6000806002838154811061087957fe5b9060005260206000200160008154811061088f57fe5b90600052602060002001541115610af7576000600283815481106108af57fe5b906000526020600020016000815481106108c557fe5b9060005260206000200154600184815481106108dd57fe5b906000526020600020016000815481106108f357fe5b6000918252602091829020015460408051600160e11b636eb1769f02815233600482015230602482015290516001600160a01b039092169263dd62ed3e92604480840193829003018186803b15801561094b57600080fd5b505afa15801561095f573d6000803e3d6000fd5b505050506040513d602081101561097557600080fd5b50518161097e57fe5b0490506000811161098e57600080fd5b600091505b600183815481106109a057fe5b600091825260209091200154821015610a8a57600183815481106109c057fe5b9060005260206000200182815481106109d557fe5b600091825260209091200154600280546001600160a01b03909216916379cc679091339187908110610a0357fe5b906000526020600020018581548110610a1857fe5b60009182526020822001546040805163ffffffff861660e01b81526001600160a01b03909416600485015290860260248401525160448084019382900301818387803b158015610a6757600080fd5b505af1158015610a7b573d6000803e3d6000fd5b50505050816001019150610993565b600091505b600354821015610af157610ae6338260048581548110610aab57fe5b90600052602060002001540260038581548110610ac457fe5b6000918252602090912001546001600160a01b0316919063ffffffff610f3216565b816001019150610a8f565b50610db9565b60018281548110610b0457fe5b6000918252602090912001546001148015610b2157506003546001145b610b2a57600080fd5b600060018381548110610b3957fe5b90600052602060002001600081548110610b4f57fe5b6000918252602082200154600380546001600160a01b039092169350908290610b7457fe5b9060005260206000200160009054906101000a90046001600160a01b031690506000826001600160a01b03166318160ddd6040518163ffffffff1660e01b815260040160206040518083038186803b158015610bcf57600080fd5b505afa158015610be3573d6000803e3d6000fd5b505050506040513d6020811015610bf957600080fd5b505160408051600160e01b6370a0823102815230600482015290516001600160a01b038516916370a08231916024808301926020929190829003018186803b158015610c4457600080fd5b505afa158015610c58573d6000803e3d6000fd5b505050506040513d6020811015610c6e57600080fd5b5051670de0b6b3a76400000281610c8157fe5b60408051600160e11b636eb1769f02815233600482015230602482015290519290910492506000916001600160a01b0386169163dd62ed3e916044808301926020929190829003018186803b158015610cd957600080fd5b505afa158015610ced573d6000803e3d6000fd5b505050506040513d6020811015610d0357600080fd5b5051905080610d1157600080fd5b60408051600160e41b63079cc6790281523360048201526024810183905290516001600160a01b038616916379cc679091604480830192600092919082900301818387803b158015610d6257600080fd5b505af1158015610d76573d6000803e3d6000fd5b505050506000670de0b6b3a764000082840281610d8f57fe5b04905060008111610d9f57600080fd5b6106706001600160a01b038516338363ffffffff610f3216565b5050565b60006001600160a01b038216610dd257600080fd5b506001600160a01b03166000908152602091909152604090205460ff1690565b610e0360058263ffffffff610fcc16565b6040516001600160a01b038216907f3525e22824a8a7df2c9a6029941c824cf95b6447f1e13d5128fd3826d35afe8b90600090a250565b610e4b60058263ffffffff61101416565b6040516001600160a01b038216907f47d1c22a25bb3a5d4e481b9b1e6944c2eade3181a0a20b495ed61d35b5323f2490600090a250565b6001600160a01b038116610e9557600080fd5b600080546040516001600160a01b03808516939216917f8be0079c531659141344cd1fd0a4f28419497f9722a3daafe3b4186f6b6457e091a3600080546001600160a01b0319166001600160a01b0392909216919091179055565b600080610f0c83610f0086611060565b9063ffffffff6110b116565b90506001600160a01b03811615801590610f2a5750610f2a816106d4565b949350505050565b826001600160a01b031663a9059cbb83836040518363ffffffff1660e01b815260040180836001600160a01b03166001600160a01b0316815260200182815260200192505050602060405180830381600087803b158015610f9257600080fd5b505af1158015610fa6573d6000803e3d6000fd5b505050506040513d6020811015610fbc57600080fd5b5051610fc757600080fd5b505050565b6001600160a01b038116610fdf57600080fd5b610fe98282610dbd565b610ff257600080fd5b6001600160a01b0316600090815260209190915260409020805460ff19169055565b6001600160a01b03811661102757600080fd5b6110318282610dbd565b1561103b57600080fd5b6001600160a01b0316600090815260209190915260409020805460ff19166001179055565b604080517f19457468657265756d205369676e6564204d6573736167653a0a333200000000602080830191909152603c8083019490945282518083039094018452605c909101909152815191012090565b60008060008084516041146110cc57600093505050506106e7565b50505060208201516040830151606084015160001a601b8110156110ee57601b015b8060ff16601b1415801561110657508060ff16601c14155b1561111757600093505050506106e7565b6040805160008152602080820180845289905260ff8416828401526060820186905260808201859052915160019260a0808401939192601f1981019281900390910190855afa15801561116e573d6000803e3d6000fd5b5050506020604051035193505050506106e7565b8280548282559060005260206000209081019282156111d5579160200282015b828111156111d55781546001600160a01b0319166001600160a01b038435161782556020909201916001909101906111a2565b506111e192915061122c565b5090565b828054828255906000526020600020908101928215611220579160200282015b82811115611220578235825591602001919060010190611205565b506111e1929150611250565b61073891905b808211156111e15780546001600160a01b0319168155600101611232565b61073891905b808211156111e1576000815560010161125656fea165627a7a723058205800e2e5257aa6cc6140102e7b6dbf51ce8c288e3cb334b260bbdc7a9c6de7560029",
  "source": "pragma solidity ^0.5.0;\n\nimport 'openzeppelin-solidity/contracts/drafts/SignatureBouncer.sol';\n\nimport './AbstractAmbix.sol';\n\ncontract KycAmbix is AbstractAmbix, SignatureBouncer {\n    /**\n     * @dev Run distillation process\n     * @param _ix Source alternative index\n     * @param _signature KYC indulgence (KYC signature of concatenated sender and contract address)\n     */\n    function run(uint256 _ix, bytes calldata _signature) external onlyValidSignature(_signature)\n    { _run(_ix); }\n}\n",
  "sourcePath": "/home/akru/devel/robonomics_contracts/contracts/misc/KycAmbix.sol",
  "compiler": {
    "name": "solc",
    "version": "0.5.7+commit.6da8b019.Emscripten.clang"
  },
  "schemaVersion": "3.0.2",
  "updatedAt": "2019-04-17T08:53:51.185Z",
  "devdoc": {
    "methods": {
      "appendSource(address[],uint256[])": {
        "details": "Append token recipe source alternative",
        "params": {
          "_a": "Token recipe source token addresses",
          "_n": "Token recipe source token counts*"
        }
      },
      "isOwner()": {
        "return": "true if `msg.sender` is the owner of the contract."
      },
      "owner()": {
        "return": "the address of the owner."
      },
      "renounceOwnership()": {
        "details": "Allows the current owner to relinquish control of the contract."
      },
      "run(uint256,bytes)": {
        "details": "Run distillation process",
        "params": {
          "_ix": "Source alternative index",
          "_signature": "KYC indulgence (KYC signature of concatenated sender and contract address)"
        }
      },
      "setSink(address[],uint256[])": {
        "details": "Set sink of token recipe",
        "params": {
          "_b": "Token recipe sink token list",
          "_m": "Token recipe sink token counts"
        }
      },
      "transferOwnership(address)": {
        "details": "Allows the current owner to transfer control of the contract to a newOwner.",
        "params": {
          "newOwner": "The address to transfer ownership to."
        }
      }
    }
  },
  "userdoc": {
    "methods": {
      "renounceOwnership()": {
        "notice": "Renouncing to ownership will leave the contract without an owner. It will not be possible to call the functions with the `onlyOwner` modifier anymore."
      }
    }
  }
}