{
  "contractName": "Liability",
  "abi": [
    {
      "constant": true,
      "inputs": [],
      "name": "lighthouseFee",
      "outputs": [
        {
          "name": "",
          "type": "uint256"
        }
      ],
      "payable": false,
      "stateMutability": "view",
      "type": "function",
      "signature": "0x051064c6"
    },
    {
      "constant": true,
      "inputs": [],
      "name": "model",
      "outputs": [
        {
          "name": "",
          "type": "bytes"
        }
      ],
      "payable": false,
      "stateMutability": "view",
      "type": "function",
      "signature": "0x0ad9d052"
    },
    {
      "constant": true,
      "inputs": [],
      "name": "isSuccess",
      "outputs": [
        {
          "name": "",
          "type": "bool"
        }
      ],
      "payable": false,
      "stateMutability": "view",
      "type": "function",
      "signature": "0x0b6c754b"
    },
    {
      "constant": true,
      "inputs": [],
      "name": "cost",
      "outputs": [
        {
          "name": "",
          "type": "uint256"
        }
      ],
      "payable": false,
      "stateMutability": "view",
      "type": "function",
      "signature": "0x13faede6"
    },
    {
      "constant": true,
      "inputs": [],
      "name": "objective",
      "outputs": [
        {
          "name": "",
          "type": "bytes"
        }
      ],
      "payable": false,
      "stateMutability": "view",
      "type": "function",
      "signature": "0x14f1586a"
    },
    {
      "constant": true,
      "inputs": [],
      "name": "xrt",
      "outputs": [
        {
          "name": "",
          "type": "address"
        }
      ],
      "payable": false,
      "stateMutability": "view",
      "type": "function",
      "signature": "0x330f9588"
    },
    {
      "constant": true,
      "inputs": [],
      "name": "validator",
      "outputs": [
        {
          "name": "",
          "type": "address"
        }
      ],
      "payable": false,
      "stateMutability": "view",
      "type": "function",
      "signature": "0x3a5381b5"
    },
    {
      "constant": true,
      "inputs": [],
      "name": "validatorFee",
      "outputs": [
        {
          "name": "",
          "type": "uint256"
        }
      ],
      "payable": false,
      "stateMutability": "view",
      "type": "function",
      "signature": "0x3f6d8256"
    },
    {
      "constant": true,
      "inputs": [],
      "name": "promisee",
      "outputs": [
        {
          "name": "",
          "type": "address"
        }
      ],
      "payable": false,
      "stateMutability": "view",
      "type": "function",
      "signature": "0x474ce872"
    },
    {
      "constant": true,
      "inputs": [],
      "name": "lighthouse",
      "outputs": [
        {
          "name": "",
          "type": "address"
        }
      ],
      "payable": false,
      "stateMutability": "view",
      "type": "function",
      "signature": "0x6301fd63"
    },
    {
      "constant": true,
      "inputs": [],
      "name": "result",
      "outputs": [
        {
          "name": "",
          "type": "bytes"
        }
      ],
      "payable": false,
      "stateMutability": "view",
      "type": "function",
      "signature": "0x65372147"
    },
    {
      "constant": true,
      "inputs": [],
      "name": "offerHash",
      "outputs": [
        {
          "name": "",
          "type": "bytes32"
        }
      ],
      "payable": false,
      "stateMutability": "view",
      "type": "function",
      "signature": "0x699373ca"
    },
    {
      "constant": true,
      "inputs": [],
      "name": "isFinalized",
      "outputs": [
        {
          "name": "",
          "type": "bool"
        }
      ],
      "payable": false,
      "stateMutability": "view",
      "type": "function",
      "signature": "0x8d4e4083"
    },
    {
      "constant": true,
      "inputs": [],
      "name": "promisor",
      "outputs": [
        {
          "name": "",
          "type": "address"
        }
      ],
      "payable": false,
      "stateMutability": "view",
      "type": "function",
      "signature": "0xc2d8de54"
    },
    {
      "constant": true,
      "inputs": [],
      "name": "factory",
      "outputs": [
        {
          "name": "",
          "type": "address"
        }
      ],
      "payable": false,
      "stateMutability": "view",
      "type": "function",
      "signature": "0xc45a0155"
    },
    {
      "constant": true,
      "inputs": [],
      "name": "demandHash",
      "outputs": [
        {
          "name": "",
          "type": "bytes32"
        }
      ],
      "payable": false,
      "stateMutability": "view",
      "type": "function",
      "signature": "0xf0476bc5"
    },
    {
      "constant": true,
      "inputs": [],
      "name": "token",
      "outputs": [
        {
          "name": "",
          "type": "address"
        }
      ],
      "payable": false,
      "stateMutability": "view",
      "type": "function",
      "signature": "0xfc0c546a"
    },
    {
      "anonymous": false,
      "inputs": [
        {
          "indexed": true,
          "name": "success",
          "type": "bool"
        },
        {
          "indexed": false,
          "name": "result",
          "type": "bytes"
        }
      ],
      "name": "Finalized",
      "type": "event",
      "signature": "0x7d5242f52c478159b4963f0898012c593d0786bfa3bce2e9bb2f073b068caee0"
    },
    {
      "constant": false,
      "inputs": [
        {
          "name": "_xrt",
          "type": "address"
        }
      ],
      "name": "setup",
      "outputs": [
        {
          "name": "",
          "type": "bool"
        }
      ],
      "payable": false,
      "stateMutability": "nonpayable",
      "type": "function",
      "signature": "0x66d38203"
    },
    {
      "constant": false,
      "inputs": [
        {
          "name": "_model",
          "type": "bytes"
        },
        {
          "name": "_objective",
          "type": "bytes"
        },
        {
          "name": "_token",
          "type": "address"
        },
        {
          "name": "_cost",
          "type": "uint256"
        },
        {
          "name": "_lighthouse",
          "type": "address"
        },
        {
          "name": "_validator",
          "type": "address"
        },
        {
          "name": "_validator_fee",
          "type": "uint256"
        },
        {
          "name": "_deadline",
          "type": "uint256"
        },
        {
          "name": "_sender",
          "type": "address"
        },
        {
          "name": "_signature",
          "type": "bytes"
        }
      ],
      "name": "demand",
      "outputs": [
        {
          "name": "",
          "type": "bool"
        }
      ],
      "payable": false,
      "stateMutability": "nonpayable",
      "type": "function",
      "signature": "0x48a984e4"
    },
    {
      "constant": false,
      "inputs": [
        {
          "name": "_model",
          "type": "bytes"
        },
        {
          "name": "_objective",
          "type": "bytes"
        },
        {
          "name": "_token",
          "type": "address"
        },
        {
          "name": "_cost",
          "type": "uint256"
        },
        {
          "name": "_validator",
          "type": "address"
        },
        {
          "name": "_lighthouse",
          "type": "address"
        },
        {
          "name": "_lighthouse_fee",
          "type": "uint256"
        },
        {
          "name": "_deadline",
          "type": "uint256"
        },
        {
          "name": "_sender",
          "type": "address"
        },
        {
          "name": "_signature",
          "type": "bytes"
        }
      ],
      "name": "offer",
      "outputs": [
        {
          "name": "",
          "type": "bool"
        }
      ],
      "payable": false,
      "stateMutability": "nonpayable",
      "type": "function",
      "signature": "0x413781d2"
    },
    {
      "constant": false,
      "inputs": [
        {
          "name": "_result",
          "type": "bytes"
        },
        {
          "name": "_success",
          "type": "bool"
        },
        {
          "name": "_signature",
          "type": "bytes"
        }
      ],
      "name": "finalize",
      "outputs": [
        {
          "name": "",
          "type": "bool"
        }
      ],
      "payable": false,
      "stateMutability": "nonpayable",
      "type": "function",
      "signature": "0x4fe6365e"
    }
  ],
  "bytecode": "0x608060405234801561001057600080fd5b50611398806100206000396000f3fe608060405234801561001057600080fd5b50600436106101375760003560e01c806348a984e4116100b8578063699373ca1161007c578063699373ca146105c95780638d4e4083146105d1578063c2d8de54146105d9578063c45a0155146105e1578063f0476bc5146105e9578063fc0c546a146105f157610137565b806348a984e4146103855780634fe6365e146104cf5780636301fd6314610593578063653721471461059b57806366d38203146105a357610137565b8063330f9588116100ff578063330f9588146101ff5780633a5381b5146102235780633f6d82561461022b578063413781d214610233578063474ce8721461037d57610137565b8063051064c61461013c5780630ad9d052146101565780630b6c754b146101d357806313faede6146101ef57806314f1586a146101f7575b600080fd5b6101446105f9565b60408051918252519081900360200190f35b61015e6105ff565b6040805160208082528351818301528351919283929083019185019080838360005b83811015610198578181015183820152602001610180565b50505050905090810190601f1680156101c55780820380516001836020036101000a031916815260200191505b509250505060405180910390f35b6101db61068d565b604080519115158252519081900360200190f35b61014461069d565b61015e6106a3565b6102076106fd565b604080516001600160a01b039092168252519081900360200190f35b61020761070c565b61014461071b565b6101db600480360361014081101561024a57600080fd5b810190602081018135600160201b81111561026457600080fd5b82018360208201111561027657600080fd5b803590602001918460018302840111600160201b8311171561029757600080fd5b919390929091602081019035600160201b8111156102b457600080fd5b8201836020820111156102c657600080fd5b803590602001918460018302840111600160201b831117156102e757600080fd5b919390926001600160a01b0383358116936020810135936040820135831693606083013584169360808401359360a08101359360c0820135909216929061010081019060e00135600160201b81111561033f57600080fd5b82018360208201111561035157600080fd5b803590602001918460018302840111600160201b8311171561037257600080fd5b509092509050610721565b610207610a8e565b6101db600480360361014081101561039c57600080fd5b810190602081018135600160201b8111156103b657600080fd5b8201836020820111156103c857600080fd5b803590602001918460018302840111600160201b831117156103e957600080fd5b919390929091602081019035600160201b81111561040657600080fd5b82018360208201111561041857600080fd5b803590602001918460018302840111600160201b8311171561043957600080fd5b919390926001600160a01b0383358116936020810135936040820135831693606083013584169360808401359360a08101359360c0820135909216929061010081019060e00135600160201b81111561049157600080fd5b8201836020820111156104a357600080fd5b803590602001918460018302840111600160201b831117156104c457600080fd5b509092509050610a9d565b6101db600480360360608110156104e557600080fd5b810190602081018135600160201b8111156104ff57600080fd5b82018360208201111561051157600080fd5b803590602001918460018302840111600160201b8311171561053257600080fd5b919390928235151592604081019060200135600160201b81111561055557600080fd5b82018360208201111561056757600080fd5b803590602001918460018302840111600160201b8311171561058857600080fd5b509092509050610cfe565b610207611017565b61015e611026565b6101db600480360360208110156105b957600080fd5b50356001600160a01b031661107e565b6101446110ca565b6101db6110d0565b6102076110e0565b6102076110ef565b6101446110fe565b610207611104565b60055481565b6000805460408051602060026001851615610100026000190190941693909304601f810184900484028201840190925281815292918301828280156106855780601f1061065a57610100808354040283529160200191610685565b820191906000526020600020905b81548152906001019060200180831161066857829003601f168201915b505050505081565b600c54600160a01b900460ff1681565b60045481565b60018054604080516020600284861615610100026000190190941693909304601f810184900484028201840190925281815292918301828280156106855780601f1061065a57610100808354040283529160200191610685565b600e546001600160a01b031681565b600c546001600160a01b031681565b60065481565b600d546000906001600160a01b0316331461073b57600080fd5b84431061074757600080fd5b8d8d6040518083838082843780830192505050925050506040518091039020600060405180828054600181600116156101000203166002900480156107c35780601f106107a15761010080835404028352918201916107c3565b820191906000526020600020905b8154815290600101906020018083116107af575b50509150506040518091039020146107da57600080fd5b8b8b6040518083838082843780830192505050925050506040518091039020600160405180828054600181600116156101000203166002900480156108565780601f10610834576101008083540402835291820191610856565b820191906000526020600020905b815481529060010190602001808311610842575b505091505060405180910390201461086d57600080fd5b6003546001600160a01b038b811691161461088757600080fd5b600454891461089557600080fd5b600b546001600160a01b038881169116146108af57600080fd5b600c546001600160a01b038981169116146108c957600080fd5b856005819055508d8d8d8d8d8d8d8d8d8d600d60009054906101000a90046001600160a01b03166001600160a01b031663ed2a2d648f6040518263ffffffff1660e01b815260040180826001600160a01b03166001600160a01b0316815260200191505060206040518083038186803b15801561094557600080fd5b505afa158015610959573d6000803e3d6000fd5b505050506040513d602081101561096f57600080fd5b50516040518f90602001808d8d808284379190910190508b8b808284376001600160a01b039b8c16606090811b93909101928352601483019a909a5250968916881b603488015250938716861b6048860152605c850192909252607c840152609c830152909216901b60bc8201526040805160b081840301815260d08301808352815160209283012060085560f0601f8b0183900490920284018201909252888252610a4d965090945088935087925082910183828082843760009201919091525050600854610a4192509050611113565b9063ffffffff61116416565b600980546001600160a01b0319166001600160a01b039283161790819055858216911614610a7a57600080fd5b5060019d9c50505050505050505050505050565b600a546001600160a01b031681565b600d546000906001600160a01b03163314610ab757600080fd5b844310610ac357600080fd5b610acf60008f8f6112d1565b50610adc60018d8d6112d1565b5089600360006101000a8154816001600160a01b0302191690836001600160a01b031602179055508860048190555087600b60006101000a8154816001600160a01b0302191690836001600160a01b0316021790555086600c60006101000a8154816001600160a01b0302191690836001600160a01b03160217905550856006819055508d8d8d8d8d8d8d8d8d8d600d60009054906101000a90046001600160a01b03166001600160a01b031663ed2a2d648f6040518263ffffffff1660e01b815260040180826001600160a01b03166001600160a01b0316815260200191505060206040518083038186803b158015610bd557600080fd5b505afa158015610be9573d6000803e3d6000fd5b505050506040513d6020811015610bff57600080fd5b50516040518f90602001808d8d808284379190910190508b8b808284376001600160a01b039b8c16606090811b93909101928352601483019a909a5250968916881b603488015250938716861b6048860152605c850192909252607c840152609c830152909216901b60bc8201526040805160b081840301815260d08301808352815160209283012060075560f0601f8b0183900490920284018201909252888252610cd1965090945088935087925082910183828082843760009201919091525050600754610a4192509050611113565b600a80546001600160a01b0319166001600160a01b039283161790819055858216911614610a7a57600080fd5b600b546000906001600160a01b03163314610d1857600080fd5b600c54600160a81b900460ff1615610d2f57600080fd5b600c8054600160a81b60ff021916600160a81b179055610d51600287876112d1565b50600c805474ff00000000000000000000000000000000000000001916600160a01b86151502179055604080516020601f8501819004810282018101909252838152600091610e0f919086908690819084018382808284376000920191909152505060405130606081901b60208301908152610a4194509092508c918c918c9160340184848082843780830192505050821515151560f81b815260010194505050505060405160208183030381529060405280519060200120611113565b600c549091506001600160a01b0316610e41576009546001600160a01b03828116911614610e3c57600080fd5b610ef7565b600c5460408051600160e01b63facd743b0281526001600160a01b0384811660048301529151919092169163facd743b9160248083019260209291908290030181600087803b158015610e9357600080fd5b505af1158015610ea7573d6000803e3d6000fd5b505050506040513d6020811015610ebd57600080fd5b5051610ec857600080fd5b60065415610ef757600c54600654600e54610ef7926001600160a01b039182169291169063ffffffff61123716565b60045415610f4e57600c54610f4e90600160a01b900460ff16610f2557600a546001600160a01b0316610f32565b6009546001600160a01b03165b6004546003546001600160a01b0316919063ffffffff61123716565b600c54604080516020808252600280546101006001821615026000190116819004918301829052600160a01b90940460ff161515937f7d5242f52c478159b4963f0898012c593d0786bfa3bce2e9bb2f073b068caee093909291829182019084908015610ffc5780601f10610fd157610100808354040283529160200191610ffc565b820191906000526020600020905b815481529060010190602001808311610fdf57829003601f168201915b50509250505060405180910390a25060019695505050505050565b600b546001600160a01b031681565b6002805460408051602060018416156101000260001901909316849004601f810184900484028201840190925281815292918301828280156106855780601f1061065a57610100808354040283529160200191610685565b600d546000906001600160a01b03161561109757600080fd5b50600d80546001600160a01b03199081163317909155600e80546001600160a01b03841692169190911790556001919050565b60085481565b600c54600160a81b900460ff1681565b6009546001600160a01b031681565b600d546001600160a01b031681565b60075481565b6003546001600160a01b031681565b604080517f19457468657265756d205369676e6564204d6573736167653a0a333200000000602080830191909152603c8083019490945282518083039094018452605c909101909152815191012090565b600080600080845160411461117f5760009350505050611231565b50505060208201516040830151606084015160001a601b8110156111a157601b015b8060ff16601b141580156111b957508060ff16601c14155b156111ca5760009350505050611231565b6040805160008152602080820180845289905260ff8416828401526060820186905260808201859052915160019260a0808401939192601f1981019281900390910190855afa158015611221573d6000803e3d6000fd5b5050506020604051035193505050505b92915050565b826001600160a01b031663a9059cbb83836040518363ffffffff1660e01b815260040180836001600160a01b03166001600160a01b0316815260200182815260200192505050602060405180830381600087803b15801561129757600080fd5b505af11580156112ab573d6000803e3d6000fd5b505050506040513d60208110156112c157600080fd5b50516112cc57600080fd5b505050565b828054600181600116156101000203166002900490600052602060002090601f016020900481019282601f106113125782800160ff1982351617855561133f565b8280016001018555821561133f579182015b8281111561133f578235825591602001919060010190611324565b5061134b92915061134f565b5090565b61136991905b8082111561134b5760008155600101611355565b9056fea165627a7a7230582001a2c1adcec8964291bcdd5724b716925cfd6002d0833ab127332361d27ee2250029",
  "source": "pragma solidity ^0.5.0;\n\nimport 'openzeppelin-solidity/contracts/cryptography/ECDSA.sol';\nimport 'openzeppelin-solidity/contracts/token/ERC20/SafeERC20.sol';\n\nimport './interface/ILiability.sol';\nimport './interface/IValidator.sol';\nimport './interface/IFactory.sol';\nimport './XRT.sol';\n\ncontract Liability is ILiability {\n    using ECDSA for bytes32;\n    using SafeERC20 for XRT;\n    using SafeERC20 for ERC20;\n\n    address public factory;\n    XRT     public xrt;\n\n    function setup(XRT _xrt) external returns (bool) {\n        require(factory == address(0));\n\n        factory = msg.sender;\n        xrt     = _xrt;\n\n        return true;\n    }\n\n    function demand(\n        bytes   calldata _model,\n        bytes   calldata _objective,\n\n        address _token,\n        uint256 _cost,\n\n        address _lighthouse,\n\n        address _validator,\n        uint256 _validator_fee,\n\n        uint256 _deadline,\n        address _sender,\n        bytes   calldata _signature\n    )\n        external\n        returns (bool)\n    {\n        require(msg.sender == factory);\n        require(block.number < _deadline);\n\n        model        = _model;\n        objective    = _objective;\n        token        = _token;\n        cost         = _cost;\n        lighthouse   = _lighthouse;\n        validator    = _validator;\n        validatorFee = _validator_fee;\n\n        demandHash = keccak256(abi.encodePacked(\n            _model\n          , _objective\n          , _token\n          , _cost\n          , _lighthouse\n          , _validator\n          , _validator_fee\n          , _deadline\n          , IFactory(factory).nonceOf(_sender)\n          , _sender\n        ));\n\n        promisee = demandHash\n            .toEthSignedMessageHash()\n            .recover(_signature);\n        require(promisee == _sender);\n        return true;\n    }\n\n    function offer(\n        bytes   calldata _model,\n        bytes   calldata _objective,\n        \n        address _token,\n        uint256 _cost,\n\n        address _validator,\n\n        address _lighthouse,\n        uint256 _lighthouse_fee,\n\n        uint256 _deadline,\n        address _sender,\n        bytes   calldata _signature\n    )\n        external\n        returns (bool)\n    {\n        require(msg.sender == factory);\n        require(block.number < _deadline);\n        require(keccak256(model) == keccak256(_model));\n        require(keccak256(objective) == keccak256(_objective));\n        require(_token == token);\n        require(_cost == cost);\n        require(_lighthouse == lighthouse);\n        require(_validator == validator);\n\n        lighthouseFee = _lighthouse_fee;\n\n        offerHash = keccak256(abi.encodePacked(\n            _model\n          , _objective\n          , _token\n          , _cost\n          , _validator\n          , _lighthouse\n          , _lighthouse_fee\n          , _deadline\n          , IFactory(factory).nonceOf(_sender)\n          , _sender\n        ));\n\n        promisor = offerHash\n            .toEthSignedMessageHash()\n            .recover(_signature);\n        require(promisor == _sender);\n        return true;\n    }\n\n    function finalize(\n        bytes calldata _result,\n        bool  _success,\n        bytes calldata _signature\n    )\n        external\n        returns (bool)\n    {\n        require(msg.sender == lighthouse);\n        require(!isFinalized);\n\n        isFinalized = true;\n        result      = _result;\n        isSuccess   = _success;\n\n        address resultSender = keccak256(abi.encodePacked(this, _result, _success))\n            .toEthSignedMessageHash()\n            .recover(_signature);\n\n        if (validator == address(0)) {\n            require(resultSender == promisor);\n        } else {\n            require(IValidator(validator).isValidator(resultSender));\n            // Transfer validator fee when is set\n            if (validatorFee > 0)\n                xrt.safeTransfer(validator, validatorFee);\n\n        }\n\n        if (cost > 0)\n            ERC20(token).safeTransfer(isSuccess ? promisor : promisee, cost);\n\n        emit Finalized(isSuccess, result);\n        return true;\n    }\n}\n",
  "sourcePath": "/home/akru/devel/robonomics_contracts/contracts/robonomics/Liability.sol",
  "compiler": {
    "name": "solc",
    "version": "0.5.7+commit.6da8b019.Emscripten.clang"
  },
  "schemaVersion": "3.0.2",
  "updatedAt": "2019-04-17T09:37:16.000Z",
  "devdoc": {
    "methods": {}
  },
  "userdoc": {
    "methods": {}
  }
}