{
  "contractName": "Lighthouse",
  "abi": [
    {
      "constant": true,
      "inputs": [
        {
          "name": "",
          "type": "address"
        }
      ],
      "name": "stakes",
      "outputs": [
        {
          "name": "",
          "type": "uint256"
        }
      ],
      "payable": false,
      "stateMutability": "view",
      "type": "function",
      "signature": "0x16934fc4"
    },
    {
      "constant": true,
      "inputs": [],
      "name": "xrt",
      "outputs": [
        {
          "name": "",
          "type": "address"
        }
      ],
      "payable": false,
      "stateMutability": "view",
      "type": "function",
      "signature": "0x330f9588"
    },
    {
      "constant": true,
      "inputs": [],
      "name": "marker",
      "outputs": [
        {
          "name": "",
          "type": "uint256"
        }
      ],
      "payable": false,
      "stateMutability": "view",
      "type": "function",
      "signature": "0x3acddfc1"
    },
    {
      "constant": true,
      "inputs": [],
      "name": "keepAliveBlock",
      "outputs": [
        {
          "name": "",
          "type": "uint256"
        }
      ],
      "payable": false,
      "stateMutability": "view",
      "type": "function",
      "signature": "0x4ed75ded"
    },
    {
      "constant": true,
      "inputs": [
        {
          "name": "",
          "type": "uint256"
        }
      ],
      "name": "providers",
      "outputs": [
        {
          "name": "",
          "type": "address"
        }
      ],
      "payable": false,
      "stateMutability": "view",
      "type": "function",
      "signature": "0x50f3fc81"
    },
    {
      "constant": true,
      "inputs": [],
      "name": "timeoutInBlocks",
      "outputs": [
        {
          "name": "",
          "type": "uint256"
        }
      ],
      "payable": false,
      "stateMutability": "view",
      "type": "function",
      "signature": "0x678bd169"
    },
    {
      "constant": true,
      "inputs": [],
      "name": "minimalStake",
      "outputs": [
        {
          "name": "",
          "type": "uint256"
        }
      ],
      "payable": false,
      "stateMutability": "view",
      "type": "function",
      "signature": "0x9ec41a2d"
    },
    {
      "constant": true,
      "inputs": [],
      "name": "providersLength",
      "outputs": [
        {
          "name": "",
          "type": "uint256"
        }
      ],
      "payable": false,
      "stateMutability": "view",
      "type": "function",
      "signature": "0xad23fe73"
    },
    {
      "constant": true,
      "inputs": [],
      "name": "factory",
      "outputs": [
        {
          "name": "",
          "type": "address"
        }
      ],
      "payable": false,
      "stateMutability": "view",
      "type": "function",
      "signature": "0xc45a0155"
    },
    {
      "constant": true,
      "inputs": [],
      "name": "quota",
      "outputs": [
        {
          "name": "",
          "type": "uint256"
        }
      ],
      "payable": false,
      "stateMutability": "view",
      "type": "function",
      "signature": "0xcebe09c9"
    },
    {
      "constant": true,
      "inputs": [
        {
          "name": "_provider",
          "type": "address"
        }
      ],
      "name": "quotaOf",
      "outputs": [
        {
          "name": "",
          "type": "uint256"
        }
      ],
      "payable": false,
      "stateMutability": "view",
      "type": "function",
      "signature": "0xef23b3a3"
    },
    {
      "constant": true,
      "inputs": [
        {
          "name": "",
          "type": "address"
        }
      ],
      "name": "indexOf",
      "outputs": [
        {
          "name": "",
          "type": "uint256"
        }
      ],
      "payable": false,
      "stateMutability": "view",
      "type": "function",
      "signature": "0xfd6aad25"
    },
    {
      "anonymous": false,
      "inputs": [
        {
          "indexed": true,
          "name": "provider",
          "type": "address"
        }
      ],
      "name": "Online",
      "type": "event",
      "signature": "0xb87e760cbc2db6791d417f8be7b6b859468d348a1e174f37374530d391b9cb57"
    },
    {
      "anonymous": false,
      "inputs": [
        {
          "indexed": true,
          "name": "provider",
          "type": "address"
        }
      ],
      "name": "Offline",
      "type": "event",
      "signature": "0x3bc83fff2907676f544f59cca17a4d818ad142c57b57bc028867db31ca8e5b35"
    },
    {
      "anonymous": false,
      "inputs": [
        {
          "indexed": true,
          "name": "provider",
          "type": "address"
        },
        {
          "indexed": true,
          "name": "quota",
          "type": "uint256"
        }
      ],
      "name": "Current",
      "type": "event",
      "signature": "0xd3bed6b350c548f8ecd5aa592c13a6a67bff7ccf6aae87aa3743bc25d8b130e3"
    },
    {
      "constant": false,
      "inputs": [
        {
          "name": "_xrt",
          "type": "address"
        },
        {
          "name": "_minimalStake",
          "type": "uint256"
        },
        {
          "name": "_timeoutInBlocks",
          "type": "uint256"
        }
      ],
      "name": "setup",
      "outputs": [
        {
          "name": "",
          "type": "bool"
        }
      ],
      "payable": false,
      "stateMutability": "nonpayable",
      "type": "function",
      "signature": "0x64f6f7b9"
    },
    {
      "constant": false,
      "inputs": [
        {
          "name": "_value",
          "type": "uint256"
        }
      ],
      "name": "refill",
      "outputs": [
        {
          "name": "",
          "type": "bool"
        }
      ],
      "payable": false,
      "stateMutability": "nonpayable",
      "type": "function",
      "signature": "0xca9d07ba"
    },
    {
      "constant": false,
      "inputs": [
        {
          "name": "_value",
          "type": "uint256"
        }
      ],
      "name": "withdraw",
      "outputs": [
        {
          "name": "",
          "type": "bool"
        }
      ],
      "payable": false,
      "stateMutability": "nonpayable",
      "type": "function",
      "signature": "0x2e1a7d4d"
    },
    {
      "constant": false,
      "inputs": [
        {
          "name": "_demand",
          "type": "bytes"
        },
        {
          "name": "_offer",
          "type": "bytes"
        }
      ],
      "name": "createLiability",
      "outputs": [
        {
          "name": "",
          "type": "bool"
        }
      ],
      "payable": false,
      "stateMutability": "nonpayable",
      "type": "function",
      "signature": "0xd2b962f2"
    },
    {
      "constant": false,
      "inputs": [
        {
          "name": "_liability",
          "type": "address"
        },
        {
          "name": "_result",
          "type": "bytes"
        },
        {
          "name": "_success",
          "type": "bool"
        },
        {
          "name": "_signature",
          "type": "bytes"
        }
      ],
      "name": "finalizeLiability",
      "outputs": [
        {
          "name": "",
          "type": "bool"
        }
      ],
      "payable": false,
      "stateMutability": "nonpayable",
      "type": "function",
      "signature": "0x563e52d5"
    }
  ],
  "bytecode": "0x608060405234801561001057600080fd5b50610f12806100206000396000f3fe608060405234801561001057600080fd5b506004361061010b5760003560e01c8063678bd169116100a2578063ca9d07ba11610071578063ca9d07ba146102f0578063cebe09c91461030d578063d2b962f214610315578063ef23b3a3146103d3578063fd6aad25146103f95761010b565b8063678bd169146102d05780639ec41a2d146102d8578063ad23fe73146102e0578063c45a0155146102e85761010b565b80634ed75ded116100de5780634ed75ded146101a557806350f3fc81146101ad578063563e52d5146101ca57806364f6f7b91461029e5761010b565b806316934fc4146101105780632e1a7d4d14610148578063330f9588146101795780633acddfc11461019d575b600080fd5b6101366004803603602081101561012657600080fd5b50356001600160a01b031661041f565b60408051918252519081900360200190f35b6101656004803603602081101561015e57600080fd5b5035610431565b604080519115158252519081900360200190f35b610181610596565b604080516001600160a01b039092168252519081900360200190f35b6101366105a5565b6101366105ab565b610181600480360360208110156101c357600080fd5b50356105b1565b610165600480360360808110156101e057600080fd5b6001600160a01b038235169190810190604081016020820135600160201b81111561020a57600080fd5b82018360208201111561021c57600080fd5b803590602001918460018302840111600160201b8311171561023d57600080fd5b919390928235151592604081019060200135600160201b81111561026057600080fd5b82018360208201111561027257600080fd5b803590602001918460018302840111600160201b8311171561029357600080fd5b5090925090506105d8565b610165600480360360608110156102b457600080fd5b506001600160a01b038135169060208101359060400135610808565b610136610876565b61013661087c565b610136610882565b610181610889565b6101656004803603602081101561030657600080fd5b5035610898565b610136610973565b6101656004803603604081101561032b57600080fd5b810190602081018135600160201b81111561034557600080fd5b82018360208201111561035757600080fd5b803590602001918460018302840111600160201b8311171561037857600080fd5b919390929091602081019035600160201b81111561039557600080fd5b8201836020820111156103a757600080fd5b803590602001918460018302840111600160201b831117156103c857600080fd5b509092509050610979565b610136600480360360208110156103e957600080fd5b50356001600160a01b0316610b2a565b6101366004803603602081101561040f57600080fd5b50356001600160a01b0316610b57565b60016020526000908152604090205481565b3360009081526001602052604081205482111561044d57600080fd5b3360008181526001602052604090208054849003905560085461047c916001600160a01b039091169084610b69565b61048533610b2a565b61058e57336000818152600160205260408120805491905560085490916104bc916001600160a01b0316908363ffffffff610b6916565b33600090815260096020526040812054905460001991820191018082101561053e57600081815481106104eb57fe5b600091825260208220015481546001600160a01b0390911691908490811061050f57fe5b9060005260206000200160006101000a8154816001600160a01b0302191690836001600160a01b031602179055505b6000805460001901906105519082610ead565b5033600081815260096020526040808220829055517f3bc83fff2907676f544f59cca17a4d818ad142c57b57bc028867db31ca8e5b359190a25050505b506001919050565b6008546001600160a01b031681565b60055481565b60045481565b600081815481106105be57fe5b6000918252602090912001546001600160a01b0316905081565b6000806105e3610c03565b61573f0190506105f1610c60565b6105f9610d2c565b60075460408051600160e01b6399d5bae10281526001600160a01b03808c16600483015291518b9360009316916399d5bae1916024808301926020929190829003018186803b15801561064b57600080fd5b505afa15801561065f573d6000803e3d6000fd5b505050506040513d602081101561067557600080fd5b50511161068157600080fd5b806001600160a01b0316634fe6365e89898989896040518663ffffffff1660e01b8152600401808060200185151515158152602001806020018381038352888882818152602001925080828437600083820152601f01601f191690910184810383528581526020019050858580828437600081840152601f19601f820116905080830192505050975050505050505050602060405180830381600087803b15801561072b57600080fd5b505af115801561073f573d6000803e3d6000fd5b505050506040513d602081101561075557600080fd5b505161076057600080fd5b6007546001600160a01b031663a51daf26825a85036040518363ffffffff1660e01b815260040180836001600160a01b03166001600160a01b0316815260200182815260200192505050602060405180830381600087803b1580156107c457600080fd5b505af11580156107d8573d6000803e3d6000fd5b505050506040513d60208110156107ee57600080fd5b50516107f957600080fd5b50600198975050505050505050565b6007546000906001600160a01b03161580156108245750600083115b80156108305750600082115b61083957600080fd5b5060029190915560035560078054336001600160a01b031991821617909155600880549091166001600160a01b0392909216919091179055600190565b60035481565b60025481565b6000545b90565b6007546001600160a01b031681565b6008546000906108b9906001600160a01b031633308563ffffffff610e1416565b33600090815260016020526040902054610955576002548210156108dc57600080fd5b600080546001810182557f290decd9548b62a8d60345a988386fc84ba6bc95484008f6362f93160ef3e5630180546001600160a01b03191633908117909155815481835260096020526040808420919091555190917fb87e760cbc2db6791d417f8be7b6b859468d348a1e174f37374530d391b9cb5791a25b50336000908152600160208190526040909120805483019055919050565b60065481565b600080610984610c03565b611317019050610992610c60565b61099a610d2c565b60075460408051600160e11b63695cb17902815260048101918252604481018890526000926001600160a01b03169163d2b962f2918a918a918a918a9181906024810190606401878780828437600083820152601f01601f191690910184810383528581526020019050858580828437600081840152601f19601f8201169050808301925050509650505050505050602060405180830381600087803b158015610a4357600080fd5b505af1158015610a57573d6000803e3d6000fd5b505050506040513d6020811015610a6d57600080fd5b505190506001600160a01b038116610a8457600080fd5b6007546001600160a01b031663feb67918825a85036040518363ffffffff1660e01b815260040180836001600160a01b03166001600160a01b0316815260200182815260200192505050602060405180830381600087803b158015610ae857600080fd5b505af1158015610afc573d6000803e3d6000fd5b505050506040513d6020811015610b1257600080fd5b5051610b1d57600080fd5b5060019695505050505050565b6002546001600160a01b03821660009081526001602052604081205490919081610b5057fe5b0492915050565b60096020526000908152604090205481565b826001600160a01b031663a9059cbb83836040518363ffffffff1660e01b815260040180836001600160a01b03166001600160a01b0316815260200182815260200192505050602060405180830381600087803b158015610bc957600080fd5b505af1158015610bdd573d6000803e3d6000fd5b505050506040513d6020811015610bf357600080fd5b5051610bfe57600080fd5b505050565b60005a61520801905060005b36811015610c5c5760003682818110610c2457fe5b9050013560f81c60f81b6001600160f81b031916600060f81b14610c49576044610c4c565b60045b60ff169190910190600101610c0f565b5090565b60045443036003541015610d265733600090815260096020526040902054600581905515801590610c95575060005460055411155b610c9e57600080fd5b610ccd600060016005540381548110610cb357fe5b6000918252602090912001546001600160a01b0316610b2a565b600681905550600654600060016005540381548110610ce857fe5b60009182526020822001546040516001600160a01b03909116917fd3bed6b350c548f8ecd5aa592c13a6a67bff7ccf6aae87aa3743bc25d8b130e391a35b43600455565b600054610d3857600080fd5b600060065411610d4757600080fd5b600060016005540381548110610d5957fe5b6000918252602090912001546001600160a01b03163314610d7957600080fd5b60016006541115610d935760068054600019019055610e12565b60005460055481610da057fe5b066001810160055560008054610db992908110610cb357fe5b600681905550600654600060016005540381548110610dd457fe5b60009182526020822001546040516001600160a01b03909116917fd3bed6b350c548f8ecd5aa592c13a6a67bff7ccf6aae87aa3743bc25d8b130e391a35b565b60408051600160e01b6323b872dd0281526001600160a01b0385811660048301528481166024830152604482018490529151918616916323b872dd916064808201926020929091908290030181600087803b158015610e7257600080fd5b505af1158015610e86573d6000803e3d6000fd5b505050506040513d6020811015610e9c57600080fd5b5051610ea757600080fd5b50505050565b815481835581811115610bfe57600083815260209020610bfe91810190830161088691905b80821115610c5c5760008155600101610ed256fea165627a7a72305820c02f9ef421dfb4ec28ce8a7d8d579a0202a744bf1cdf4561ab7eef03da67bf340029",
  "source": "pragma solidity ^0.5.0;\n\nimport 'openzeppelin-solidity/contracts/token/ERC20/SafeERC20.sol';\n\nimport './interface/ILighthouse.sol';\nimport './interface/IFactory.sol';\nimport './XRT.sol';\n\ncontract Lighthouse is ILighthouse {\n    using SafeERC20 for XRT;\n\n    IFactory public factory;\n    XRT      public xrt;\n\n    function setup(XRT _xrt, uint256 _minimalStake, uint256 _timeoutInBlocks) external returns (bool) {\n        require(factory == IFactory(0) && _minimalStake > 0 && _timeoutInBlocks > 0);\n\n        minimalStake    = _minimalStake;\n        timeoutInBlocks = _timeoutInBlocks;\n        factory         = IFactory(msg.sender);\n        xrt             = _xrt;\n\n        return true;\n    }\n\n    /**\n     * @dev Providers index, started from 1\n     */\n    mapping(address => uint256) public indexOf;\n\n    function refill(uint256 _value) external returns (bool) {\n        xrt.safeTransferFrom(msg.sender, address(this), _value);\n\n        if (stakes[msg.sender] == 0) {\n            require(_value >= minimalStake);\n            providers.push(msg.sender);\n            indexOf[msg.sender] = providers.length;\n            emit Online(msg.sender);\n        }\n\n        stakes[msg.sender] += _value;\n        return true;\n    }\n\n    function withdraw(uint256 _value) external returns (bool) {\n        require(stakes[msg.sender] >= _value);\n\n        stakes[msg.sender] -= _value;\n        xrt.safeTransfer(msg.sender, _value);\n\n        // Drop member with zero quota\n        if (quotaOf(msg.sender) == 0) {\n            uint256 balance = stakes[msg.sender];\n            stakes[msg.sender] = 0;\n            xrt.safeTransfer(msg.sender, balance);\n            \n            uint256 senderIndex = indexOf[msg.sender] - 1;\n            uint256 lastIndex = providers.length - 1;\n            if (senderIndex < lastIndex)\n                providers[senderIndex] = providers[lastIndex];\n\n            providers.length -= 1;\n            indexOf[msg.sender] = 0;\n\n            emit Offline(msg.sender);\n        }\n        return true;\n    }\n\n    function keepAliveTransaction() internal {\n        if (timeoutInBlocks < block.number - keepAliveBlock) {\n            // Set up the marker according to provider index\n            marker = indexOf[msg.sender];\n\n            // Thransaction sender should be a registered provider\n            require(marker > 0 && marker <= providers.length);\n\n            // Allocate new quota\n            quota = quotaOf(providers[marker - 1]);\n\n            // Current provider signal\n            emit Current(providers[marker - 1], quota);\n        }\n\n        // Store transaction sending block\n        keepAliveBlock = block.number;\n    }\n\n    function quotedTransaction() internal {\n        // Don't premit transactions without providers on board\n        require(providers.length > 0);\n\n        // Zero quota guard\n        // XXX: When quota for some reasons is zero, DoS will be preverted by keepalive transaction\n        require(quota > 0);\n\n        // Only provider with marker can to send transaction\n        require(msg.sender == providers[marker - 1]);\n\n        // Consume one quota for transaction sending\n        if (quota > 1) {\n            quota -= 1;\n        } else {\n            // Step over marker\n            marker = marker % providers.length + 1;\n\n            // Allocate new quota\n            quota = quotaOf(providers[marker - 1]);\n\n            // Current provider signal\n            emit Current(providers[marker - 1], quota);\n        }\n    }\n\n    function startGas() internal view returns (uint256 gas) {\n        // the total amount of gas the tx is DataFee + TxFee + ExecutionGas\n        // ExecutionGas\n        gas = gasleft();\n        // TxFee\n        gas += 21000;\n        // DataFee\n        for (uint256 i = 0; i < msg.data.length; ++i)\n            gas += msg.data[i] == 0 ? 4 : 68;\n    }\n\n    function createLiability(\n        bytes calldata _demand,\n        bytes calldata _offer\n    )\n        external\n        returns (bool)\n    {\n        // Gas with estimation error\n        uint256 gas = startGas() + 4887;\n\n        keepAliveTransaction();\n        quotedTransaction();\n\n        ILiability liability = factory.createLiability(_demand, _offer);\n        require(liability != ILiability(0));\n        require(factory.liabilityCreated(liability, gas - gasleft()));\n        return true;\n    }\n\n    function finalizeLiability(\n        address _liability,\n        bytes calldata _result,\n        bool _success,\n        bytes calldata _signature\n    )\n        external\n        returns (bool)\n    {\n        // Gas with estimation error\n        uint256 gas = startGas() + 22335;\n\n        keepAliveTransaction();\n        quotedTransaction();\n\n        ILiability liability = ILiability(_liability);\n        require(factory.gasConsumedOf(_liability) > 0);\n        require(liability.finalize(_result, _success, _signature));\n        require(factory.liabilityFinalized(liability, gas - gasleft()));\n        return true;\n    }\n}\n",
  "sourcePath": "/home/akru/devel/robonomics_contracts/contracts/robonomics/Lighthouse.sol",
  "compiler": {
    "name": "solc",
    "version": "0.5.7+commit.6da8b019.Emscripten.clang"
  },
  "schemaVersion": "3.0.2",
  "updatedAt": "2019-04-17T09:48:27.533Z",
  "devdoc": {
    "methods": {
      "providersLength()": {
        "details": "Count of robonomics providers on this lighthouse"
      },
      "quotaOf(address)": {
        "details": "Get quota of provider"
      }
    }
  },
  "userdoc": {
    "methods": {}
  }
}