{
  "contractName": "Lighthouse",
  "abi": [
    {
      "constant": true,
      "inputs": [
        {
          "name": "",
          "type": "address"
        }
      ],
      "name": "stakes",
      "outputs": [
        {
          "name": "",
          "type": "uint256"
        }
      ],
      "payable": false,
      "stateMutability": "view",
      "type": "function"
    },
    {
      "constant": true,
      "inputs": [],
      "name": "xrt",
      "outputs": [
        {
          "name": "",
          "type": "address"
        }
      ],
      "payable": false,
      "stateMutability": "view",
      "type": "function"
    },
    {
      "constant": true,
      "inputs": [],
      "name": "marker",
      "outputs": [
        {
          "name": "",
          "type": "uint256"
        }
      ],
      "payable": false,
      "stateMutability": "view",
      "type": "function"
    },
    {
      "constant": true,
      "inputs": [],
      "name": "keepAliveBlock",
      "outputs": [
        {
          "name": "",
          "type": "uint256"
        }
      ],
      "payable": false,
      "stateMutability": "view",
      "type": "function"
    },
    {
      "constant": true,
      "inputs": [
        {
          "name": "",
          "type": "uint256"
        }
      ],
      "name": "providers",
      "outputs": [
        {
          "name": "",
          "type": "address"
        }
      ],
      "payable": false,
      "stateMutability": "view",
      "type": "function"
    },
    {
      "constant": true,
      "inputs": [],
      "name": "timeoutInBlocks",
      "outputs": [
        {
          "name": "",
          "type": "uint256"
        }
      ],
      "payable": false,
      "stateMutability": "view",
      "type": "function"
    },
    {
      "constant": true,
      "inputs": [],
      "name": "minimalStake",
      "outputs": [
        {
          "name": "",
          "type": "uint256"
        }
      ],
      "payable": false,
      "stateMutability": "view",
      "type": "function"
    },
    {
      "constant": true,
      "inputs": [],
      "name": "providersLength",
      "outputs": [
        {
          "name": "",
          "type": "uint256"
        }
      ],
      "payable": false,
      "stateMutability": "view",
      "type": "function"
    },
    {
      "constant": true,
      "inputs": [],
      "name": "factory",
      "outputs": [
        {
          "name": "",
          "type": "address"
        }
      ],
      "payable": false,
      "stateMutability": "view",
      "type": "function"
    },
    {
      "constant": true,
      "inputs": [],
      "name": "quota",
      "outputs": [
        {
          "name": "",
          "type": "uint256"
        }
      ],
      "payable": false,
      "stateMutability": "view",
      "type": "function"
    },
    {
      "constant": true,
      "inputs": [
        {
          "name": "_provider",
          "type": "address"
        }
      ],
      "name": "quotaOf",
      "outputs": [
        {
          "name": "",
          "type": "uint256"
        }
      ],
      "payable": false,
      "stateMutability": "view",
      "type": "function"
    },
    {
      "constant": true,
      "inputs": [
        {
          "name": "",
          "type": "address"
        }
      ],
      "name": "indexOf",
      "outputs": [
        {
          "name": "",
          "type": "uint256"
        }
      ],
      "payable": false,
      "stateMutability": "view",
      "type": "function"
    },
    {
      "anonymous": false,
      "inputs": [
        {
          "indexed": true,
          "name": "provider",
          "type": "address"
        }
      ],
      "name": "Online",
      "type": "event"
    },
    {
      "anonymous": false,
      "inputs": [
        {
          "indexed": true,
          "name": "provider",
          "type": "address"
        }
      ],
      "name": "Offline",
      "type": "event"
    },
    {
      "anonymous": false,
      "inputs": [
        {
          "indexed": true,
          "name": "provider",
          "type": "address"
        },
        {
          "indexed": true,
          "name": "quota",
          "type": "uint256"
        }
      ],
      "name": "Current",
      "type": "event"
    },
    {
      "constant": false,
      "inputs": [
        {
          "name": "_xrt",
          "type": "address"
        },
        {
          "name": "_minimalStake",
          "type": "uint256"
        },
        {
          "name": "_timeoutInBlocks",
          "type": "uint256"
        }
      ],
      "name": "setup",
      "outputs": [
        {
          "name": "",
          "type": "bool"
        }
      ],
      "payable": false,
      "stateMutability": "nonpayable",
      "type": "function"
    },
    {
      "constant": false,
      "inputs": [
        {
          "name": "_value",
          "type": "uint256"
        }
      ],
      "name": "refill",
      "outputs": [
        {
          "name": "",
          "type": "bool"
        }
      ],
      "payable": false,
      "stateMutability": "nonpayable",
      "type": "function"
    },
    {
      "constant": false,
      "inputs": [
        {
          "name": "_value",
          "type": "uint256"
        }
      ],
      "name": "withdraw",
      "outputs": [
        {
          "name": "",
          "type": "bool"
        }
      ],
      "payable": false,
      "stateMutability": "nonpayable",
      "type": "function"
    },
    {
      "constant": false,
      "inputs": [
        {
          "name": "_demand",
          "type": "bytes"
        },
        {
          "name": "_offer",
          "type": "bytes"
        }
      ],
      "name": "createLiability",
      "outputs": [
        {
          "name": "",
          "type": "bool"
        }
      ],
      "payable": false,
      "stateMutability": "nonpayable",
      "type": "function"
    },
    {
      "constant": false,
      "inputs": [
        {
          "name": "_liability",
          "type": "address"
        },
        {
          "name": "_result",
          "type": "bytes"
        },
        {
          "name": "_success",
          "type": "bool"
        },
        {
          "name": "_signature",
          "type": "bytes"
        }
      ],
      "name": "finalizeLiability",
      "outputs": [
        {
          "name": "",
          "type": "bool"
        }
      ],
      "payable": false,
      "stateMutability": "nonpayable",
      "type": "function"
    }
  ],
  "bytecode": "0x608060405234801561001057600080fd5b50610fc7806100206000396000f3fe608060405234801561001057600080fd5b506004361061010f5760003560e060020a90048063678bd169116100a6578063ca9d07ba11610075578063ca9d07ba146102f8578063cebe09c914610315578063d2b962f21461031d578063ef23b3a3146103df578063fd6aad25146104055761010f565b8063678bd169146102d85780639ec41a2d146102e0578063ad23fe73146102e8578063c45a0155146102f05761010f565b80634ed75ded116100e25780634ed75ded146101a957806350f3fc81146101b1578063563e52d5146101ce57806364f6f7b9146102a65761010f565b806316934fc4146101145780632e1a7d4d1461014c578063330f95881461017d5780633acddfc1146101a1575b600080fd5b61013a6004803603602081101561012a57600080fd5b5035600160a060020a031661042b565b60408051918252519081900360200190f35b6101696004803603602081101561016257600080fd5b503561043d565b604080519115158252519081900360200190f35b6101856105a5565b60408051600160a060020a039092168252519081900360200190f35b61013a6105b4565b61013a6105ba565b610185600480360360208110156101c757600080fd5b50356105c0565b610169600480360360808110156101e457600080fd5b600160a060020a03823516919081019060408101602082013564010000000081111561020f57600080fd5b82018360208201111561022157600080fd5b8035906020019184600183028401116401000000008311171561024357600080fd5b91939092823515159260408101906020013564010000000081111561026757600080fd5b82018360208201111561027957600080fd5b8035906020019184600183028401116401000000008311171561029b57600080fd5b5090925090506105e8565b610169600480360360608110156102bc57600080fd5b50600160a060020a038135169060208101359060400135610838565b61013a6108b5565b61013a6108bb565b61013a6108c1565b6101856108c8565b6101696004803603602081101561030e57600080fd5b50356108d7565b61013a6109c1565b6101696004803603604081101561033357600080fd5b81019060208101813564010000000081111561034e57600080fd5b82018360208201111561036057600080fd5b8035906020019184600183028401116401000000008311171561038257600080fd5b9193909290916020810190356401000000008111156103a057600080fd5b8201836020820111156103b257600080fd5b803590602001918460018302840111640100000000831117156103d457600080fd5b5090925090506109c7565b61013a600480360360208110156103f557600080fd5b5035600160a060020a0316610b95565b61013a6004803603602081101561041b57600080fd5b5035600160a060020a0316610bc4565b60016020526000908152604090205481565b3360009081526001602052604081205482111561045957600080fd5b3360008181526001602052604090208054849003905560085461048891600160a060020a039091169084610bd6565b61049133610b95565b151561059d57336000818152600160205260408120805491905560085490916104ca91600160a060020a0316908363ffffffff610bd616565b33600090815260096020526040812054905460001991820191018082101561054d5760008054829081106104fa57fe5b60009182526020822001548154600160a060020a0390911691908490811061051e57fe5b9060005260206000200160006101000a815481600160a060020a030219169083600160a060020a031602179055505b6000805460001901906105609082610f62565b5033600081815260096020526040808220829055517f3bc83fff2907676f544f59cca17a4d818ad142c57b57bc028867db31ca8e5b359190a25050505b506001919050565b600854600160a060020a031681565b60055481565b60045481565b60008054829081106105ce57fe5b600091825260209091200154600160a060020a0316905081565b6000806105f3610c75565b615b99019050610601610cf4565b610609610dc3565b600754604080517f99d5bae1000000000000000000000000000000000000000000000000000000008152600160a060020a03808c16600483015291518b9360009316916399d5bae1916024808301926020929190829003018186803b15801561067157600080fd5b505afa158015610685573d6000803e3d6000fd5b505050506040513d602081101561069b57600080fd5b5051116106a757600080fd5b80600160a060020a0316634fe6365e89898989896040518663ffffffff1660e060020a028152600401808060200185151515158152602001806020018381038352888882818152602001925080828437600083820152601f01601f191690910184810383528581526020019050858580828437600081840152601f19601f820116905080830192505050975050505050505050602060405180830381600087803b15801561075457600080fd5b505af1158015610768573d6000803e3d6000fd5b505050506040513d602081101561077e57600080fd5b5051151561078b57600080fd5b600754600160a060020a031663a51daf26825a85036040518363ffffffff1660e060020a0281526004018083600160a060020a0316600160a060020a0316815260200182815260200192505050602060405180830381600087803b1580156107f257600080fd5b505af1158015610806573d6000803e3d6000fd5b505050506040513d602081101561081c57600080fd5b5051151561082957600080fd5b50600198975050505050505050565b600754600090600160a060020a03161580156108545750600083115b80156108605750600082115b151561086b57600080fd5b50600291909155600355600780543373ffffffffffffffffffffffffffffffffffffffff199182161790915560088054909116600160a060020a0392909216919091179055600190565b60035481565b60025481565b6000545b90565b600754600160a060020a031681565b6008546000906108f890600160a060020a031633308563ffffffff610eb116565b3360009081526001602052604090205415156109a35760025482101561091d57600080fd5b600080546001810182557f290decd9548b62a8d60345a988386fc84ba6bc95484008f6362f93160ef3e56301805473ffffffffffffffffffffffffffffffffffffffff191633908117909155815481835260096020526040808420919091555190917fb87e760cbc2db6791d417f8be7b6b859468d348a1e174f37374530d391b9cb5791a25b50336000908152600160208190526040909120805483019055919050565b60065481565b6000806109d2610c75565b6114b80190506109e0610cf4565b6109e8610dc3565b600754604080517fd2b962f20000000000000000000000000000000000000000000000000000000081526004810191825260448101889052600092600160a060020a03169163d2b962f2918a918a918a918a9181906024810190606401878780828437600083820152601f01601f191690910184810383528581526020019050858580828437600081840152601f19601f8201169050808301925050509650505050505050602060405180830381600087803b158015610aa757600080fd5b505af1158015610abb573d6000803e3d6000fd5b505050506040513d6020811015610ad157600080fd5b50519050600160a060020a0381161515610aea57600080fd5b600754600160a060020a031663feb67918825a85036040518363ffffffff1660e060020a0281526004018083600160a060020a0316600160a060020a0316815260200182815260200192505050602060405180830381600087803b158015610b5157600080fd5b505af1158015610b65573d6000803e3d6000fd5b505050506040513d6020811015610b7b57600080fd5b50511515610b8857600080fd5b5060019695505050505050565b600254600160a060020a038216600090815260016020526040812054909190811515610bbd57fe5b0492915050565b60096020526000908152604090205481565b82600160a060020a031663a9059cbb83836040518363ffffffff1660e060020a0281526004018083600160a060020a0316600160a060020a0316815260200182815260200192505050602060405180830381600087803b158015610c3957600080fd5b505af1158015610c4d573d6000803e3d6000fd5b505050506040513d6020811015610c6357600080fd5b50511515610c7057600080fd5b505050565b60005a61520801905060005b36811015610cf05760003682818110610c9657fe5b9050013560f860020a900460f860020a027effffffffffffffffffffffffffffffffffffffffffffffffffffffffffffff1916600060f860020a0214610cdd576044610ce0565b60045b60ff169190910190600101610c81565b5090565b60045443036003541015610dbd57336000908152600960205260408120546005819055118015610d28575060005460055411155b1515610d3357600080fd5b610d646000600160055403815481101515610d4a57fe5b600091825260209091200154600160a060020a0316610b95565b600681905560055460008054909160001901908110610d7f57fe5b6000918252602082200154604051600160a060020a03909116917fd3bed6b350c548f8ecd5aa592c13a6a67bff7ccf6aae87aa3743bc25d8b130e391a35b43600455565b6000805411610dd157600080fd5b600654600010610de057600080fd5b6000600160055403815481101515610df457fe5b600091825260209091200154600160a060020a03163314610e1457600080fd5b60016006541115610e2e5760068054600019019055610eaf565b600054600554811515610e3d57fe5b066001810160055560008054610e5692908110610d4a57fe5b600681905560055460008054909160001901908110610e7157fe5b6000918252602082200154604051600160a060020a03909116917fd3bed6b350c548f8ecd5aa592c13a6a67bff7ccf6aae87aa3743bc25d8b130e391a35b565b604080517f23b872dd000000000000000000000000000000000000000000000000000000008152600160a060020a0385811660048301528481166024830152604482018490529151918616916323b872dd916064808201926020929091908290030181600087803b158015610f2557600080fd5b505af1158015610f39573d6000803e3d6000fd5b505050506040513d6020811015610f4f57600080fd5b50511515610f5c57600080fd5b50505050565b815481835581811115610c7057600083815260209020610c709181019083016108c591905b80821115610cf05760008155600101610f8756fea165627a7a723058209ab9e370fdf36a7eef966b2d257629631d8312863632ffe8b700c8a2803fa6130029",
  "source": "pragma solidity ^0.5.0;\n\nimport 'openzeppelin-solidity/contracts/token/ERC20/SafeERC20.sol';\n\nimport './interface/ILighthouse.sol';\nimport './interface/IFactory.sol';\nimport './XRT.sol';\n\ncontract Lighthouse is ILighthouse {\n    using SafeERC20 for XRT;\n\n    IFactory public factory;\n    XRT      public xrt;\n\n    function setup(XRT _xrt, uint256 _minimalStake, uint256 _timeoutInBlocks) external returns (bool) {\n        require(factory == IFactory(0) && _minimalStake > 0 && _timeoutInBlocks > 0);\n\n        minimalStake    = _minimalStake;\n        timeoutInBlocks = _timeoutInBlocks;\n        factory         = IFactory(msg.sender);\n        xrt             = _xrt;\n\n        return true;\n    }\n\n    /**\n     * @dev Providers index, started from 1\n     */\n    mapping(address => uint256) public indexOf;\n\n    function refill(uint256 _value) external returns (bool) {\n        xrt.safeTransferFrom(msg.sender, address(this), _value);\n\n        if (stakes[msg.sender] == 0) {\n            require(_value >= minimalStake);\n            providers.push(msg.sender);\n            indexOf[msg.sender] = providers.length;\n            emit Online(msg.sender);\n        }\n\n        stakes[msg.sender] += _value;\n        return true;\n    }\n\n    function withdraw(uint256 _value) external returns (bool) {\n        require(stakes[msg.sender] >= _value);\n\n        stakes[msg.sender] -= _value;\n        xrt.safeTransfer(msg.sender, _value);\n\n        // Drop member with zero quota\n        if (quotaOf(msg.sender) == 0) {\n            uint256 balance = stakes[msg.sender];\n            stakes[msg.sender] = 0;\n            xrt.safeTransfer(msg.sender, balance);\n            \n            uint256 senderIndex = indexOf[msg.sender] - 1;\n            uint256 lastIndex = providers.length - 1;\n            if (senderIndex < lastIndex)\n                providers[senderIndex] = providers[lastIndex];\n\n            providers.length -= 1;\n            indexOf[msg.sender] = 0;\n\n            emit Offline(msg.sender);\n        }\n        return true;\n    }\n\n    function keepAliveTransaction() internal {\n        if (timeoutInBlocks < block.number - keepAliveBlock) {\n            // Set up the marker according to provider index\n            marker = indexOf[msg.sender];\n\n            // Thransaction sender should be a registered provider\n            require(marker > 0 && marker <= providers.length);\n\n            // Allocate new quota\n            quota = quotaOf(providers[marker - 1]);\n\n            // Current provider signal\n            emit Current(providers[marker - 1], quota);\n        }\n\n        // Store transaction sending block\n        keepAliveBlock = block.number;\n    }\n\n    function quotedTransaction() internal {\n        // Don't premit transactions without providers on board\n        require(providers.length > 0);\n\n        // Zero quota guard\n        // XXX: When quota for some reasons is zero, DoS will be preverted by keepalive transaction\n        require(quota > 0);\n\n        // Only provider with marker can to send transaction\n        require(msg.sender == providers[marker - 1]);\n\n        // Consume one quota for transaction sending\n        if (quota > 1) {\n            quota -= 1;\n        } else {\n            // Step over marker\n            marker = marker % providers.length + 1;\n\n            // Allocate new quota\n            quota = quotaOf(providers[marker - 1]);\n\n            // Current provider signal\n            emit Current(providers[marker - 1], quota);\n        }\n    }\n\n    function startGas() internal view returns (uint256 gas) {\n        // the total amount of gas the tx is DataFee + TxFee + ExecutionGas\n        // ExecutionGas\n        gas = gasleft();\n        // TxFee\n        gas += 21000;\n        // DataFee\n        for (uint256 i = 0; i < msg.data.length; ++i)\n            gas += msg.data[i] == 0 ? 4 : 68;\n    }\n\n    function createLiability(\n        bytes calldata _demand,\n        bytes calldata _offer\n    )\n        external\n        returns (bool)\n    {\n        // Gas with estimation error\n        uint256 gas = startGas() + 5304;\n\n        keepAliveTransaction();\n        quotedTransaction();\n\n        ILiability liability = factory.createLiability(_demand, _offer);\n        require(liability != ILiability(0));\n        require(factory.liabilityCreated(liability, gas - gasleft()));\n        return true;\n    }\n\n    function finalizeLiability(\n        address _liability,\n        bytes calldata _result,\n        bool _success,\n        bytes calldata _signature\n    )\n        external\n        returns (bool)\n    {\n        // Gas with estimation error\n        uint256 gas = startGas() + 23449;\n\n        keepAliveTransaction();\n        quotedTransaction();\n\n        ILiability liability = ILiability(_liability);\n        require(factory.gasConsumedOf(_liability) > 0);\n        require(liability.finalize(_result, _success, _signature));\n        require(factory.liabilityFinalized(liability, gas - gasleft()));\n        return true;\n    }\n}\n",
  "sourcePath": "/home/akru/devel/robonomics_contracts/contracts/robonomics/Lighthouse.sol",
  "compiler": {
    "name": "solc",
    "version": "0.5.4+commit.9549d8ff.Emscripten.clang"
  },
  "schemaVersion": "3.0.2",
  "updatedAt": "2019-04-09T08:46:48.540Z",
  "devdoc": {
    "methods": {
      "providersLength()": {
        "details": "Count of robonomics providers on this lighthouse"
      },
      "quotaOf(address)": {
        "details": "Get quota of provider"
      }
    }
  },
  "userdoc": {
    "methods": {}
  }
}