{
  "contractName": "PublicAmbix",
  "abi": [
    {
      "constant": false,
      "inputs": [
        {
          "name": "_b",
          "type": "address[]"
        },
        {
          "name": "_m",
          "type": "uint256[]"
        }
      ],
      "name": "setSink",
      "outputs": [],
      "payable": false,
      "stateMutability": "nonpayable",
      "type": "function",
      "signature": "0x4898722d"
    },
    {
      "constant": false,
      "inputs": [
        {
          "name": "_a",
          "type": "address[]"
        },
        {
          "name": "_n",
          "type": "uint256[]"
        }
      ],
      "name": "appendSource",
      "outputs": [],
      "payable": false,
      "stateMutability": "nonpayable",
      "type": "function",
      "signature": "0x55c0a5f4"
    },
    {
      "constant": false,
      "inputs": [],
      "name": "renounceOwnership",
      "outputs": [],
      "payable": false,
      "stateMutability": "nonpayable",
      "type": "function",
      "signature": "0x715018a6"
    },
    {
      "constant": true,
      "inputs": [
        {
          "name": "",
          "type": "uint256"
        },
        {
          "name": "",
          "type": "uint256"
        }
      ],
      "name": "A",
      "outputs": [
        {
          "name": "",
          "type": "address"
        }
      ],
      "payable": false,
      "stateMutability": "view",
      "type": "function",
      "signature": "0x83f86eb2"
    },
    {
      "constant": true,
      "inputs": [],
      "name": "owner",
      "outputs": [
        {
          "name": "",
          "type": "address"
        }
      ],
      "payable": false,
      "stateMutability": "view",
      "type": "function",
      "signature": "0x8da5cb5b"
    },
    {
      "constant": true,
      "inputs": [],
      "name": "isOwner",
      "outputs": [
        {
          "name": "",
          "type": "bool"
        }
      ],
      "payable": false,
      "stateMutability": "view",
      "type": "function",
      "signature": "0x8f32d59b"
    },
    {
      "constant": true,
      "inputs": [
        {
          "name": "",
          "type": "uint256"
        }
      ],
      "name": "M",
      "outputs": [
        {
          "name": "",
          "type": "uint256"
        }
      ],
      "payable": false,
      "stateMutability": "view",
      "type": "function",
      "signature": "0xd6c85529"
    },
    {
      "constant": true,
      "inputs": [
        {
          "name": "",
          "type": "uint256"
        }
      ],
      "name": "B",
      "outputs": [
        {
          "name": "",
          "type": "address"
        }
      ],
      "payable": false,
      "stateMutability": "view",
      "type": "function",
      "signature": "0xdac0eb07"
    },
    {
      "constant": false,
      "inputs": [
        {
          "name": "newOwner",
          "type": "address"
        }
      ],
      "name": "transferOwnership",
      "outputs": [],
      "payable": false,
      "stateMutability": "nonpayable",
      "type": "function",
      "signature": "0xf2fde38b"
    },
    {
      "constant": true,
      "inputs": [
        {
          "name": "",
          "type": "uint256"
        },
        {
          "name": "",
          "type": "uint256"
        }
      ],
      "name": "N",
      "outputs": [
        {
          "name": "",
          "type": "uint256"
        }
      ],
      "payable": false,
      "stateMutability": "view",
      "type": "function",
      "signature": "0xfdbacf5a"
    },
    {
      "anonymous": false,
      "inputs": [
        {
          "indexed": true,
          "name": "previousOwner",
          "type": "address"
        },
        {
          "indexed": true,
          "name": "newOwner",
          "type": "address"
        }
      ],
      "name": "OwnershipTransferred",
      "type": "event",
      "signature": "0x8be0079c531659141344cd1fd0a4f28419497f9722a3daafe3b4186f6b6457e0"
    },
    {
      "constant": false,
      "inputs": [
        {
          "name": "_ix",
          "type": "uint256"
        }
      ],
      "name": "run",
      "outputs": [],
      "payable": false,
      "stateMutability": "nonpayable",
      "type": "function",
      "signature": "0xa444f5e9"
    }
  ],
  "bytecode": "0x60806040819052600080546001600160a01b03191633178082556001600160a01b0316917f8be0079c531659141344cd1fd0a4f28419497f9722a3daafe3b4186f6b6457e0908290a3610e0b806100576000396000f3fe608060405234801561001057600080fd5b50600436106100a95760003560e01c80638f32d59b116100715780638f32d59b1461027b578063a444f5e914610297578063d6c85529146102b4578063dac0eb07146102e3578063f2fde38b14610300578063fdbacf5a14610326576100a9565b80634898722d146100ae57806355c0a5f41461016e578063715018a61461022c57806383f86eb2146102345780638da5cb5b14610273575b600080fd5b61016c600480360360408110156100c457600080fd5b810190602081018135600160201b8111156100de57600080fd5b8201836020820111156100f057600080fd5b803590602001918460208302840111600160201b8311171561011157600080fd5b919390929091602081019035600160201b81111561012e57600080fd5b82018360208201111561014057600080fd5b803590602001918460208302840111600160201b8311171561016157600080fd5b509092509050610349565b005b61016c6004803603604081101561018457600080fd5b810190602081018135600160201b81111561019e57600080fd5b8201836020820111156101b057600080fd5b803590602001918460208302840111600160201b831117156101d157600080fd5b919390929091602081019035600160201b8111156101ee57600080fd5b82018360208201111561020057600080fd5b803590602001918460208302840111600160201b8311171561022157600080fd5b5090925090506103cc565b61016c610531565b6102576004803603604081101561024a57600080fd5b508035906020013561058c565b604080516001600160a01b039092168252519081900360200190f35b6102576105ca565b6102836105da565b604080519115158252519081900360200190f35b61016c600480360360208110156102ad57600080fd5b50356105eb565b6102d1600480360360208110156102ca57600080fd5b50356105f7565b60408051918252519081900360200190f35b610257600480360360208110156102f957600080fd5b5035610615565b61016c6004803603602081101561031657600080fd5b50356001600160a01b031661063c565b6102d16004803603604081101561033c57600080fd5b5080359060200135610656565b6103516105da565b61035a57600080fd5b82811461036657600080fd5b60005b838110156103ab57600085858381811061037f57fe5b905060200201356001600160a01b03166001600160a01b031614156103a357600080fd5b600101610369565b506103b860038585610cf7565b506103c560048383610d5a565b5050505050565b6103d46105da565b6103dd57600080fd5b600083821480156103ed57508315155b6103f657600080fd5b5060005b8381101561043c57600085858381811061041057fe5b905060200201356001600160a01b03166001600160a01b0316141561043457600080fd5b6001016103fa565b60018214801561045f57508282600081811061045457fe5b905060200201356000145b156104785760035460011461047357600080fd5b6104ab565b5060005b818110156104ab57600083838381811061049257fe5b90506020020135116104a357600080fd5b60010161047c565b600180548082018083556000929092526104e8907fb10e2d527612073b26eecdfd717e6a320cf44b4afac2b0732d9fcbe2b7fa0cf6018787610cf7565b50506002805460018101808355600092909252610528907f405787fa12a823e0f2b7631cc41b3ba8828b3321ca811111fa75cd3aa3bb5ace018585610d5a565b50505050505050565b6105396105da565b61054257600080fd5b600080546040516001600160a01b03909116907f8be0079c531659141344cd1fd0a4f28419497f9722a3daafe3b4186f6b6457e0908390a3600080546001600160a01b0319169055565b6001828154811061059957fe5b9060005260206000200181815481106105ae57fe5b6000918252602090912001546001600160a01b03169150829050565b6000546001600160a01b03165b90565b6000546001600160a01b0316331490565b6105f48161068d565b50565b6004818154811061060457fe5b600091825260209091200154905081565b6003818154811061062257fe5b6000918252602090912001546001600160a01b0316905081565b6106446105da565b61064d57600080fd5b6105f481610bef565b6002828154811061066357fe5b90600052602060002001818154811061067857fe5b90600052602060002001600091509150505481565b600154811061069b57600080fd5b600080600283815481106106ab57fe5b906000526020600020016000815481106106c157fe5b90600052602060002001541115610929576000600283815481106106e157fe5b906000526020600020016000815481106106f757fe5b90600052602060002001546001848154811061070f57fe5b9060005260206000200160008154811061072557fe5b6000918252602091829020015460408051600160e11b636eb1769f02815233600482015230602482015290516001600160a01b039092169263dd62ed3e92604480840193829003018186803b15801561077d57600080fd5b505afa158015610791573d6000803e3d6000fd5b505050506040513d60208110156107a757600080fd5b5051816107b057fe5b049050600081116107c057600080fd5b600091505b600183815481106107d257fe5b6000918252602090912001548210156108bc57600183815481106107f257fe5b90600052602060002001828154811061080757fe5b600091825260209091200154600280546001600160a01b03909216916379cc67909133918790811061083557fe5b90600052602060002001858154811061084a57fe5b60009182526020822001546040805163ffffffff861660e01b81526001600160a01b03909416600485015290860260248401525160448084019382900301818387803b15801561089957600080fd5b505af11580156108ad573d6000803e3d6000fd5b505050508160010191506107c5565b600091505b600354821015610923576109183382600485815481106108dd57fe5b906000526020600020015402600385815481106108f657fe5b6000918252602090912001546001600160a01b0316919063ffffffff610c5d16565b8160010191506108c1565b50610beb565b6001828154811061093657fe5b600091825260209091200154600114801561095357506003546001145b61095c57600080fd5b60006001838154811061096b57fe5b9060005260206000200160008154811061098157fe5b6000918252602082200154600380546001600160a01b0390921693509082906109a657fe5b9060005260206000200160009054906101000a90046001600160a01b031690506000826001600160a01b03166318160ddd6040518163ffffffff1660e01b815260040160206040518083038186803b158015610a0157600080fd5b505afa158015610a15573d6000803e3d6000fd5b505050506040513d6020811015610a2b57600080fd5b505160408051600160e01b6370a0823102815230600482015290516001600160a01b038516916370a08231916024808301926020929190829003018186803b158015610a7657600080fd5b505afa158015610a8a573d6000803e3d6000fd5b505050506040513d6020811015610aa057600080fd5b5051670de0b6b3a76400000281610ab357fe5b60408051600160e11b636eb1769f02815233600482015230602482015290519290910492506000916001600160a01b0386169163dd62ed3e916044808301926020929190829003018186803b158015610b0b57600080fd5b505afa158015610b1f573d6000803e3d6000fd5b505050506040513d6020811015610b3557600080fd5b5051905080610b4357600080fd5b60408051600160e41b63079cc6790281523360048201526024810183905290516001600160a01b038616916379cc679091604480830192600092919082900301818387803b158015610b9457600080fd5b505af1158015610ba8573d6000803e3d6000fd5b505050506000670de0b6b3a764000082840281610bc157fe5b04905060008111610bd157600080fd5b6105286001600160a01b038516338363ffffffff610c5d16565b5050565b6001600160a01b038116610c0257600080fd5b600080546040516001600160a01b03808516939216917f8be0079c531659141344cd1fd0a4f28419497f9722a3daafe3b4186f6b6457e091a3600080546001600160a01b0319166001600160a01b0392909216919091179055565b826001600160a01b031663a9059cbb83836040518363ffffffff1660e01b815260040180836001600160a01b03166001600160a01b0316815260200182815260200192505050602060405180830381600087803b158015610cbd57600080fd5b505af1158015610cd1573d6000803e3d6000fd5b505050506040513d6020811015610ce757600080fd5b5051610cf257600080fd5b505050565b828054828255906000526020600020908101928215610d4a579160200282015b82811115610d4a5781546001600160a01b0319166001600160a01b03843516178255602090920191600190910190610d17565b50610d56929150610da1565b5090565b828054828255906000526020600020908101928215610d95579160200282015b82811115610d95578235825591602001919060010190610d7a565b50610d56929150610dc5565b6105d791905b80821115610d565780546001600160a01b0319168155600101610da7565b6105d791905b80821115610d565760008155600101610dcb56fea165627a7a72305820af5164477dce0f96f7ac388f9e49901589a7554845aa6fbdeabbeac36c3d2cb80029",
  "source": "pragma solidity ^0.5.0;\n\nimport './AbstractAmbix.sol';\n\ncontract PublicAmbix is AbstractAmbix {\n    /**\n     * @dev Run distillation process\n     * @param _ix Source alternative index\n     */\n    function run(uint256 _ix) external {\n        _run(_ix);\n    }\n}\n",
  "sourcePath": "/home/akru/devel/robonomics_contracts/contracts/misc/PublicAmbix.sol",
  "compiler": {
    "name": "solc",
    "version": "0.5.7+commit.6da8b019.Emscripten.clang"
  },
  "schemaVersion": "3.0.2",
  "updatedAt": "2019-04-17T09:48:26.639Z",
  "devdoc": {
    "methods": {
      "appendSource(address[],uint256[])": {
        "details": "Append token recipe source alternative",
        "params": {
          "_a": "Token recipe source token addresses",
          "_n": "Token recipe source token counts*"
        }
      },
      "isOwner()": {
        "return": "true if `msg.sender` is the owner of the contract."
      },
      "owner()": {
        "return": "the address of the owner."
      },
      "renounceOwnership()": {
        "details": "Allows the current owner to relinquish control of the contract."
      },
      "run(uint256)": {
        "details": "Run distillation process",
        "params": {
          "_ix": "Source alternative index"
        }
      },
      "setSink(address[],uint256[])": {
        "details": "Set sink of token recipe",
        "params": {
          "_b": "Token recipe sink token list",
          "_m": "Token recipe sink token counts"
        }
      },
      "transferOwnership(address)": {
        "details": "Allows the current owner to transfer control of the contract to a newOwner.",
        "params": {
          "newOwner": "The address to transfer ownership to."
        }
      }
    }
  },
  "userdoc": {
    "methods": {
      "renounceOwnership()": {
        "notice": "Renouncing to ownership will leave the contract without an owner. It will not be possible to call the functions with the `onlyOwner` modifier anymore."
      }
    }
  }
}