{
  "contractName": "PublicAmbix",
  "abi": [
    {
      "constant": false,
      "inputs": [
        {
          "name": "_b",
          "type": "address[]"
        },
        {
          "name": "_m",
          "type": "uint256[]"
        }
      ],
      "name": "setSink",
      "outputs": [],
      "payable": false,
      "stateMutability": "nonpayable",
      "type": "function",
      "signature": "0x4898722d"
    },
    {
      "constant": false,
      "inputs": [
        {
          "name": "_a",
          "type": "address[]"
        },
        {
          "name": "_n",
          "type": "uint256[]"
        }
      ],
      "name": "appendSource",
      "outputs": [],
      "payable": false,
      "stateMutability": "nonpayable",
      "type": "function",
      "signature": "0x55c0a5f4"
    },
    {
      "constant": false,
      "inputs": [],
      "name": "renounceOwnership",
      "outputs": [],
      "payable": false,
      "stateMutability": "nonpayable",
      "type": "function",
      "signature": "0x715018a6"
    },
    {
      "constant": true,
      "inputs": [
        {
          "name": "",
          "type": "uint256"
        },
        {
          "name": "",
          "type": "uint256"
        }
      ],
      "name": "A",
      "outputs": [
        {
          "name": "",
          "type": "address"
        }
      ],
      "payable": false,
      "stateMutability": "view",
      "type": "function",
      "signature": "0x83f86eb2"
    },
    {
      "constant": true,
      "inputs": [],
      "name": "owner",
      "outputs": [
        {
          "name": "",
          "type": "address"
        }
      ],
      "payable": false,
      "stateMutability": "view",
      "type": "function",
      "signature": "0x8da5cb5b"
    },
    {
      "constant": true,
      "inputs": [],
      "name": "isOwner",
      "outputs": [
        {
          "name": "",
          "type": "bool"
        }
      ],
      "payable": false,
      "stateMutability": "view",
      "type": "function",
      "signature": "0x8f32d59b"
    },
    {
      "constant": true,
      "inputs": [
        {
          "name": "",
          "type": "uint256"
        }
      ],
      "name": "M",
      "outputs": [
        {
          "name": "",
          "type": "uint256"
        }
      ],
      "payable": false,
      "stateMutability": "view",
      "type": "function",
      "signature": "0xd6c85529"
    },
    {
      "constant": true,
      "inputs": [
        {
          "name": "",
          "type": "uint256"
        }
      ],
      "name": "B",
      "outputs": [
        {
          "name": "",
          "type": "address"
        }
      ],
      "payable": false,
      "stateMutability": "view",
      "type": "function",
      "signature": "0xdac0eb07"
    },
    {
      "constant": false,
      "inputs": [
        {
          "name": "newOwner",
          "type": "address"
        }
      ],
      "name": "transferOwnership",
      "outputs": [],
      "payable": false,
      "stateMutability": "nonpayable",
      "type": "function",
      "signature": "0xf2fde38b"
    },
    {
      "constant": true,
      "inputs": [
        {
          "name": "",
          "type": "uint256"
        },
        {
          "name": "",
          "type": "uint256"
        }
      ],
      "name": "N",
      "outputs": [
        {
          "name": "",
          "type": "uint256"
        }
      ],
      "payable": false,
      "stateMutability": "view",
      "type": "function",
      "signature": "0xfdbacf5a"
    },
    {
      "anonymous": false,
      "inputs": [
        {
          "indexed": true,
          "name": "previousOwner",
          "type": "address"
        },
        {
          "indexed": true,
          "name": "newOwner",
          "type": "address"
        }
      ],
      "name": "OwnershipTransferred",
      "type": "event",
      "signature": "0x8be0079c531659141344cd1fd0a4f28419497f9722a3daafe3b4186f6b6457e0"
    },
    {
      "constant": false,
      "inputs": [
        {
          "name": "_ix",
          "type": "uint256"
        }
      ],
      "name": "run",
      "outputs": [],
      "payable": false,
      "stateMutability": "nonpayable",
      "type": "function",
      "signature": "0xa444f5e9"
    }
  ],
  "bytecode": "0x6080604081905260008054600160a060020a0319163317808255600160a060020a0316917f8be0079c531659141344cd1fd0a4f28419497f9722a3daafe3b4186f6b6457e0908290a3610eac806100576000396000f3fe608060405234801561001057600080fd5b50600436106100ad5760003560e060020a900480638f32d59b116100755780638f32d59b14610287578063a444f5e9146102a3578063d6c85529146102c0578063dac0eb07146102ef578063f2fde38b1461030c578063fdbacf5a14610332576100ad565b80634898722d146100b257806355c0a5f414610176578063715018a61461023857806383f86eb2146102405780638da5cb5b1461027f575b600080fd5b610174600480360360408110156100c857600080fd5b8101906020810181356401000000008111156100e357600080fd5b8201836020820111156100f557600080fd5b8035906020019184602083028401116401000000008311171561011757600080fd5b91939092909160208101903564010000000081111561013557600080fd5b82018360208201111561014757600080fd5b8035906020019184602083028401116401000000008311171561016957600080fd5b509092509050610355565b005b6101746004803603604081101561018c57600080fd5b8101906020810181356401000000008111156101a757600080fd5b8201836020820111156101b957600080fd5b803590602001918460208302840111640100000000831117156101db57600080fd5b9193909290916020810190356401000000008111156101f957600080fd5b82018360208201111561020b57600080fd5b8035906020019184602083028401116401000000008311171561022d57600080fd5b5090925090506103d8565b61017461053d565b6102636004803603604081101561025657600080fd5b50803590602001356105a5565b60408051600160a060020a039092168252519081900360200190f35b6102636105e3565b61028f6105f3565b604080519115158252519081900360200190f35b610174600480360360208110156102b957600080fd5b5035610604565b6102dd600480360360208110156102d657600080fd5b5035610610565b60408051918252519081900360200190f35b6102636004803603602081101561030557600080fd5b503561062e565b6101746004803603602081101561032257600080fd5b5035600160a060020a0316610655565b6102dd6004803603604081101561034857600080fd5b508035906020013561066f565b61035d6105f3565b61036657600080fd5b82811461037257600080fd5b60005b838110156103b757600085858381811061038b57fe5b90506020020135600160a060020a0316600160a060020a031614156103af57600080fd5b600101610375565b506103c460038585610d7e565b506103d160048383610dee565b5050505050565b6103e06105f3565b6103e957600080fd5b600083821480156103f957508315155b61040257600080fd5b5060005b8381101561044857600085858381811061041c57fe5b90506020020135600160a060020a0316600160a060020a0316141561044057600080fd5b600101610406565b60018214801561046b57508282600081811061046057fe5b905060200201356000145b156104845760035460011461047f57600080fd5b6104b7565b5060005b818110156104b757600083838381811061049e57fe5b90506020020135116104af57600080fd5b600101610488565b600180548082018083556000929092526104f4907fb10e2d527612073b26eecdfd717e6a320cf44b4afac2b0732d9fcbe2b7fa0cf6018787610d7e565b50506002805460018101808355600092909252610534907f405787fa12a823e0f2b7631cc41b3ba8828b3321ca811111fa75cd3aa3bb5ace018585610dee565b50505050505050565b6105456105f3565b61054e57600080fd5b60008054604051600160a060020a03909116907f8be0079c531659141344cd1fd0a4f28419497f9722a3daafe3b4186f6b6457e0908390a36000805473ffffffffffffffffffffffffffffffffffffffff19169055565b600182815481106105b257fe5b9060005260206000200181815481106105c757fe5b600091825260209091200154600160a060020a03169150829050565b600054600160a060020a03165b90565b600054600160a060020a0316331490565b61060d816106a6565b50565b6004818154811061061d57fe5b600091825260209091200154905081565b6003818154811061063b57fe5b600091825260209091200154600160a060020a0316905081565b61065d6105f3565b61066657600080fd5b61060d81610c66565b6002828154811061067c57fe5b90600052602060002001818154811061069157fe5b90600052602060002001600091509150505481565b60015481106106b457600080fd5b600080600283815481106106c457fe5b906000526020600020016000815481106106da57fe5b9060005260206000200154111561095b576000600283815481106106fa57fe5b9060005260206000200160008154811061071057fe5b90600052602060002001546001848154811061072857fe5b9060005260206000200160008154811061073e57fe5b60009182526020918290200154604080517fdd62ed3e0000000000000000000000000000000000000000000000000000000081523360048201523060248201529051600160a060020a039092169263dd62ed3e92604480840193829003018186803b1580156107ac57600080fd5b505afa1580156107c0573d6000803e3d6000fd5b505050506040513d60208110156107d657600080fd5b5051816107df57fe5b049050600081116107ef57600080fd5b600091505b6001838154811061080157fe5b6000918252602090912001548210156108ee576001838154811061082157fe5b90600052602060002001828154811061083657fe5b60009182526020909120015460028054600160a060020a03909216916379cc67909133918790811061086457fe5b90600052602060002001858154811061087957fe5b60009182526020822001546040805160e060020a63ffffffff8716028152600160a060020a03909416600485015290860260248401525160448084019382900301818387803b1580156108cb57600080fd5b505af11580156108df573d6000803e3d6000fd5b505050508160010191506107f4565b600091505b6003548210156109555761094a33826004858154811061090f57fe5b9060005260206000200154026003858154811061092857fe5b600091825260209091200154600160a060020a0316919063ffffffff610ce116565b8160010191506108f3565b50610c62565b6001828154811061096857fe5b600091825260209091200154600114801561098557506003546001145b61098e57600080fd5b60006001838154811061099d57fe5b906000526020600020016000815481106109b357fe5b600091825260208220015460038054600160a060020a0390921693509082906109d857fe5b9060005260206000200160009054906101000a9004600160a060020a03169050600082600160a060020a03166318160ddd6040518163ffffffff1660e060020a02815260040160206040518083038186803b158015610a3657600080fd5b505afa158015610a4a573d6000803e3d6000fd5b505050506040513d6020811015610a6057600080fd5b5051604080517f70a082310000000000000000000000000000000000000000000000000000000081523060048201529051600160a060020a038516916370a08231916024808301926020929190829003018186803b158015610ac157600080fd5b505afa158015610ad5573d6000803e3d6000fd5b505050506040513d6020811015610aeb57600080fd5b5051670de0b6b3a76400000281610afe57fe5b604080517fdd62ed3e0000000000000000000000000000000000000000000000000000000081523360048201523060248201529051929091049250600091600160a060020a0386169163dd62ed3e916044808301926020929190829003018186803b158015610b6c57600080fd5b505afa158015610b80573d6000803e3d6000fd5b505050506040513d6020811015610b9657600080fd5b5051905080610ba457600080fd5b604080517f79cc6790000000000000000000000000000000000000000000000000000000008152336004820152602481018390529051600160a060020a038616916379cc679091604480830192600092919082900301818387803b158015610c0b57600080fd5b505af1158015610c1f573d6000803e3d6000fd5b505050506000670de0b6b3a764000082840281610c3857fe5b04905060008111610c4857600080fd5b610534600160a060020a038516338363ffffffff610ce116565b5050565b600160a060020a038116610c7957600080fd5b60008054604051600160a060020a03808516939216917f8be0079c531659141344cd1fd0a4f28419497f9722a3daafe3b4186f6b6457e091a36000805473ffffffffffffffffffffffffffffffffffffffff1916600160a060020a0392909216919091179055565b82600160a060020a031663a9059cbb83836040518363ffffffff1660e060020a0281526004018083600160a060020a0316600160a060020a0316815260200182815260200192505050602060405180830381600087803b158015610d4457600080fd5b505af1158015610d58573d6000803e3d6000fd5b505050506040513d6020811015610d6e57600080fd5b5051610d7957600080fd5b505050565b828054828255906000526020600020908101928215610dde579160200282015b82811115610dde57815473ffffffffffffffffffffffffffffffffffffffff1916600160a060020a03843516178255602090920191600190910190610d9e565b50610dea929150610e35565b5090565b828054828255906000526020600020908101928215610e29579160200282015b82811115610e29578235825591602001919060010190610e0e565b50610dea929150610e66565b6105f091905b80821115610dea57805473ffffffffffffffffffffffffffffffffffffffff19168155600101610e3b565b6105f091905b80821115610dea5760008155600101610e6c56fea165627a7a7230582000d916eb2f427a9f3be82cf6ff8c69844cd09fc2962a0ba2b46dca0c260b82520029",
  "source": "pragma solidity ^0.5.0;\n\nimport './AbstractAmbix.sol';\n\ncontract PublicAmbix is AbstractAmbix {\n    /**\n     * @dev Run distillation process\n     * @param _ix Source alternative index\n     */\n    function run(uint256 _ix) external {\n        _run(_ix);\n    }\n}\n",
  "sourcePath": "/home/akru/devel/robonomics_contracts/contracts/misc/PublicAmbix.sol",
  "compiler": {
    "name": "solc",
    "version": "0.5.7+commit.6da8b019.Emscripten.clang"
  },
  "schemaVersion": "3.0.2",
  "updatedAt": "2019-04-12T13:28:42.900Z",
  "devdoc": {
    "methods": {
      "appendSource(address[],uint256[])": {
        "details": "Append token recipe source alternative",
        "params": {
          "_a": "Token recipe source token addresses",
          "_n": "Token recipe source token counts*"
        }
      },
      "isOwner()": {
        "return": "true if `msg.sender` is the owner of the contract."
      },
      "owner()": {
        "return": "the address of the owner."
      },
      "renounceOwnership()": {
        "details": "Allows the current owner to relinquish control of the contract."
      },
      "run(uint256)": {
        "details": "Run distillation process",
        "params": {
          "_ix": "Source alternative index"
        }
      },
      "setSink(address[],uint256[])": {
        "details": "Set sink of token recipe",
        "params": {
          "_b": "Token recipe sink token list",
          "_m": "Token recipe sink token counts"
        }
      },
      "transferOwnership(address)": {
        "details": "Allows the current owner to transfer control of the contract to a newOwner.",
        "params": {
          "newOwner": "The address to transfer ownership to."
        }
      }
    }
  },
  "userdoc": {
    "methods": {
      "renounceOwnership()": {
        "notice": "Renouncing to ownership will leave the contract without an owner. It will not be possible to call the functions with the `onlyOwner` modifier anymore."
      }
    }
  }
}