{
  "contractName": "SingletonHash",
  "abi": [
    {
      "constant": true,
      "inputs": [
        {
          "name": "",
          "type": "bytes32"
        }
      ],
      "name": "isHashConsumed",
      "outputs": [
        {
          "name": "",
          "type": "bool"
        }
      ],
      "payable": false,
      "stateMutability": "view",
      "type": "function"
    },
    {
      "anonymous": false,
      "inputs": [
        {
          "indexed": true,
          "name": "hash",
          "type": "bytes32"
        }
      ],
      "name": "HashConsumed",
      "type": "event"
    }
  ],
  "bytecode": "0x608060405234801561001057600080fd5b5060b88061001f6000396000f3fe6080604052348015600f57600080fd5b50600436106044577c01000000000000000000000000000000000000000000000000000000006000350463fa3260de81146049575b600080fd5b606360048036036020811015605d57600080fd5b50356077565b604080519115158252519081900360200190f35b60006020819052908152604090205460ff168156fea165627a7a72305820b6aa662a4c2acc6e83c7f45eede9ce36884f43d602189a010984caf4406aca010029",
  "source": "pragma solidity ^0.5.0;\n\ncontract SingletonHash {\n    event HashConsumed(bytes32 indexed hash);\n\n    /**\n     * @dev Used hash accounting\n     */\n    mapping(bytes32 => bool) public isHashConsumed;\n\n    /**\n     * @dev Parameter can be used only once\n     * @param _hash Single usage hash\n     */\n    function singletonHash(bytes32 _hash) internal {\n        require(!isHashConsumed[_hash]);\n        isHashConsumed[_hash] = true;\n        emit HashConsumed(_hash);\n    }\n}\n",
  "sourcePath": "/home/akru/devel/robonomics_contracts/contracts/misc/SingletonHash.sol",
  "compiler": {
    "name": "solc",
    "version": "0.5.7+commit.6da8b019.Emscripten.clang"
  },
  "schemaVersion": "3.0.2",
  "updatedAt": "2019-04-10T11:03:06.789Z",
  "devdoc": {
    "methods": {}
  },
  "userdoc": {
    "methods": {}
  }
}